:020000040800F2
:1000000078740020E9010008110C00087905000847
:100010000D0C00089D030008FD13000800000000FF
:100020000000000000000000000000004501000882
:100030005904000800000000890100080D0F0008A5
:10004000030200080302000803020008030200087C
:10005000030200080302000803020008030200086C
:10006000030200080302000803020008030200085C
:10007000030200080302000803020008030200084C
:10008000030200080302000803020008030200083C
:10009000030200080302000803020008030200082C
:1000A000030200080302000803020008030200081C
:1000B000030200080302000803020008030200080C
:1000C00003020008030200080302000803020008FC
:1000D000030200089D0F0008AD0F0008BD0F0008C7
:1000E00003020008030200080302000803020008DC
:1000F00003020008030200080302000803020008CC
:1001000003020008030200080302000803020008BB
:100110008D0F000803020008030200080302000814
:10012000030200080302000803020008030200089B
:10013000DFF80CD000F0E6F800480047F52E000884
:1001400078740020204B19680868B0E8F00F80F33D
:100150000988BFF36F8F4FF0000080F311884EF0D5
:100160000D0E70470000000006480068006880F32C
:10017000088862B661B6BFF34F8FBFF36F8F00DFA1
:1001800000BF00BF08ED00E0EFF30980BFF36F8F01
:100190000D4B1A6820E9F00F106008B54FF0100001
:1001A00080F3118803F0C4FD4FF0000080F3118844
:1001B000BDE8084019680868B0E8F00F80F30988C6
:1001C000BFF36F8F704700BF30000020EFF3118046
:1001D0004FF0100181F31188704780F31188704748
:1001E000EFF3058070470000064880470648004747
:1001F000FEE7FEE7FEE7FEE7FEE7FEE7FEE7FEE7D7
:10020000FEE7FEE72D0F00083101000840EA010378
:100210009B0703D009E008C9121F08C0042AFAD2BC
:1002200003E011F8013B00F8013B521EF9D2704780
:10023000D2B201E000F8012B491EFBD27047002228
:10024000F6E710B513460A4604461946FFF7F0FFD5
:10025000204610BD30B505462A460B4612F8010B64
:1002600013F8014B08B1A042F8D01CB1002802D00D
:100270006D1CF1E7284630BD421C10F8011B002917
:10028000FBD1801A704730B504460020034600E0D9
:100290005B1C934203D2E05CCD5C401BF8D030BDC8
:1002A0002DE9F05F0546002092469B4688460646AB
:1002B000814640241BE0284641464746224600F03E
:1002C00042F853465A46C01A914110D31146184677
:1002D000224600F029F82D1A67EB01084F46224606
:1002E0000120002100F020F817EB00094E41201EEC
:1002F000A4F10104DFDC484631462A464346BDE806
:10030000F09F0000064C074D06E0E06840F0010356
:1003100094E8070098471034AC42F6D3FFF70CFF7F
:1003200090480008B0480008202A04DB203A00FA70
:1003300002F1002070479140C2F1200320FA03F33C
:10034000194390407047202A04DB203A21FA02F03A
:100350000021704721FA02F3D040C2F120029140FF
:1003600008431946704700001FB50020064A0423C1
:10037000CDE901200093039003464FF4007203A1DE
:10038000054803F0F7FE1FBD04000020765461739A
:100390006B53746172740000A53C000800BFFEE757
:1003A000014609B909487047012901D10848FAE70F
:1003B000022901D10748F6E7032901D10648F2E7EF
:1003C000042901D10020EEE70020ECE7A80000207E
:1003D000D0080020F81000202019002008B52520A2
:1003E0008DF8000001208DF8010000208DF802003A
:1003F00001208DF80300684600F00CFC26208DF8E3
:10040000000001208DF8010000208DF8020001207D
:100410008DF80300684600F0FDFB27208DF80000F2
:1004200001208DF8010000208DF8020001208DF8D8
:100430000300684600F0EEFB34208DF80000012038
:100440008DF8010000208DF8020001208DF80300D6
:10045000684600F0DFFB08BD70472DE9F041024619
:1004600000250026002000230024002791F803C067
:100470000CF00F0591F803C00CF0100CBCF1000F4C
:1004800003D091F802C04CEA050591F800C0BCF118
:10049000000F31D0146800202BE04FF0010C0CFA53
:1004A00000F3B1F800C00CEA03069E4220D183009D
:1004B0004FF00F0C0CFA03F7BC4305FA03FC4CEAAF
:1004C000040491F803C0BCF1280F06D14FF0010CD1
:1004D0000CFA00FCC2F814C00AE091F803C0BCF1A9
:1004E000480F05D14FF0010C0CFA00FCC2F810C007
:1004F000401C0828D1D31460B1F800C0BCF1FF0F34
:1005000034DD546800202EE000F1080C4FF00108A3
:1005100008FA0CF3B1F800C00CEA03069E4221D1A0
:1005200083004FF00F0C0CFA03F7BC4305FA03FCF1
:100530004CEA040491F803C0BCF1280F05D100F186
:10054000080C08FA0CF8C2F8148091F803C0BCF14A
:10055000480F07D100F1080C4FF0010808FA0CF819
:10056000C2F81080401C0828CED35460BDE8F0814A
:10057000416170470161704709A100200CE00A5CED
:10058000124B1A8000BF114A121F128802F040025B
:10059000002AF8D0421CD0B22A28F0D300BFFEE7D0
:1005A0000D0A456E74657220486172644661756C0F
:1005B000745F48616E646C65722C20537973746546
:1005C0006D2048616C742E0D0A0000000438014053
:1005D00000B585B00121052000F06EFB01218803E4
:1005E00000F06AFB4FF40070ADF8100018208DF891
:1005F000130003208DF8120004A98748FFF72DFF90
:100600004FF48060ADF8100004208DF8130004A9A9
:100610008148FFF722FF4FF4E13000900020ADF851
:100620000400ADF80600ADF80800ADF80C000C2091
:10063000ADF80A006946794800F02CFD012240F22D
:100640002551764800F001FD0121744800F0C7FCF7
:100650004021724800F0BAFC0121052000F02CFB7B
:100660000121480400F018FB0420ADF81000182008
:100670008DF8130003208DF8120004A96648FFF7D7
:10068000ECFE0820ADF8100004208DF8130004A93A
:100690006148FFF7E2FE04A95F48FFF7DEFE4FF472
:1006A000E13000900020ADF80400ADF80600ADF890
:1006B0000800ADF80C000C20ADF80A006946584857
:1006C00000F0E8FC012240F22551554800F0BDFC45
:1006D0000121534800F083FC4021514800F076FC92
:1006E0000121082000F0E8FA10208DF81300032003
:1006F0008DF812000420ADF8100004A94948FFF756
:10070000ACFE0121092000F0D7FA0121880400F095
:10071000C3FA4FF48060ADF8100018208DF8130074
:1007200003208DF8120004A93E48FFF796FE4FF40F
:100730000060ADF8100004208DF8130004A93948BA
:10074000FFF78BFE04A93748FFF787FE4FF4E1302F
:1007500000900020ADF80400ADF80600ADF80800E8
:10076000ADF80C000C20ADF80A0069462E4800F0E8
:1007700091FC012240F225512B4800F066FC01213A
:10078000294800F02CFC4021274800F01FFC0121E3
:10079000112000F091FA0121C80400F07DFA4FF415
:1007A0008060ADF8100018208DF8130003208DF83C
:1007B000120004A91D48FFF750FE4FF40060ADF889
:1007C000100004208DF8130004A91848FFF745FE17
:1007D0004FF4E13000900020ADF80400ADF80600C1
:1007E000ADF80800ADF80C000C20ADF80A00694621
:1007F0000F4800F04FFC012240F225510C4800F058
:1008000024FC01210A4800F0EAFB4021084800F0DE
:10081000DDFB05B000BD00000008014000380140CC
:1008200000440040000C014000480040001001401E
:10083000004C004010B5044600F0A8F94FF4805178
:100840000C48FFF795FED82000F0D6F8C4F3074017
:1008500000F0D2F8C4F3072000F0CEF8E0B200F0C8
:10086000CBF84FF480510348FFF784FE00F0E0F826
:1008700010BD0000000C014000B585B000F030F85C
:100880004FF480511448FFF775FE0020ADF80000CA
:100890004FF48270ADF802000020ADF80400022091
:1008A000ADF806000120ADF808004002ADF80A00DE
:1008B0000820ADF80C000020ADF80E000720ADF8C0
:1008C00010006946054800F08FFA0121034800F046
:1008D00071FA05B000BD0000000C01400038004076
:1008E00008B50121880300F0D7F90121082000F0A4
:1008F000E3F918208DF8030003208DF802004FF46F
:100900000050ADF8000069461048FFF7A6FD4FF40F
:100910000040ADF8000069460C48FFF79EFD4FF41B
:100920008040ADF8000069460848FFF796FD4FF497
:100930008050ADF8000010208DF8030003208DF8E2
:10094000020069460148FFF788FD08BD000C014020
:1009500070B505460C4616464FF480511048FFF717
:1009600007FE032000F048F8C4F3074000F044F805
:10097000C4F3072000F040F8E0B200F03DF804E0D6
:10098000A52000F039F828706D1C301EA6F1010179
:100990008EB2F5D14FF480510148FFF7EBFD70BDE9
:1009A000000C01402DE9F04100240025002600271D
:1009B0004FF480510F48FFF7DBFD9F2000F01CF83B
:1009C000A52000F019F80546A52000F015F8064608
:1009D000A52000F011F807464FF480510548FFF7B5
:1009E000C9FD280440EA062040EA07042046BDE885
:1009F000F0810000000C014010B5044600BF022148
:100A00000A4800F0E3F90028F9D02146074800F031
:100A1000E9F900BF0121054800F0D8F90028F9D014
:100A2000024800F0DCF9C0B210BD00000038004000
:100A300010B500244FF480510A48FFF799FD0520B6
:100A4000FFF7DAFF00BFA520FFF7D6FF044604F04A
:100A500001000028F7D14FF480510248FFF78AFDCA
:100A600010BD0000000C01402DE9F05F07460E4666
:100A700014464FF00008C146C2460025AB4606F0BA
:100A8000FF0ACAF10000C5B22046E11704EB11616C
:100A9000C1F30728E11704EB11610912A4EB01214E
:100AA00001F0FF09BAF1000F20D1B8F1000F05D114
:100AB00022463146384600F07BF864E009E04FF406
:100AC00080723146384600F073F806F5807607F5F7
:100AD0008077B8F10000A8F1010101F0FF08EED124
:100AE0004A463146384600F063F84CE0B8F1000F52
:100AF00018D1A94510DDA9EB050000F0FF0B2A462F
:100B00003146384600F054F82E442F445A463146B8
:100B1000384600F04DF836E022463146384600F0BF
:100B200047F830E0601B84B22046E11704EB116106
:100B3000C1F30728E11704EB11610912A4EB0121AD
:100B400001F0FF092A463146384600F031F82E44BC
:100B50002F4409E04FF480723146384600F028F8FF
:100B600006F5807607F58077B8F10000A8F101015D
:100B700001F0FF08EED1B9F1000F04D04A4631462A
:100B8000384600F015F8BDE8F09F000010B54FF4AE
:100B900080510648FFF7ECFC0620FFF72DFF4FF4CD
:100BA00080510248FFF7E6FC10BD0000000C014038
:100BB00070B505460C461646FFF7E8FF4FF4805126
:100BC0001148FFF7D5FC0220FFF716FFC4F30740DA
:100BD000FFF712FFC4F30720FFF70EFFE0B2FFF7A5
:100BE0000BFF03E02878FFF707FF6D1C301EA6F10E
:100BF00001018EB2F6D14FF480510348FFF7BAFCE1
:100C0000FFF716FF70BD0000000C014000BFFEE7BB
:100C10007047000070B5002100230F22C47804B390
:100C2000154C246804F4E064C4F5E064210AC1F1C1
:100C30000403CA40447804FA03F184781440214341
:100C400009010E4C0678A155047804F01F05012413
:100C5000AC4005786D11AD0005F1E025C5F8004107
:100C600009E0047804F01F050124AC40044D067827
:100C7000761145F8264070BD0CED00E000E400E080
:100C800080E100E002490143024A11607047000020
:100C90000000FA050CED00E029B1064AD2690243D2
:100CA000044BDA6104E0034AD2698243014BDA6102
:100CB000704700000010024029B1064A92690243C1
:100CC000044B9A6104E0034A92698243014B9A61A2
:100CD000704700000010024030B5002100220024BF
:100CE00000232D4D6D6805F00C0121B1042905D0BC
:100CF000082923D105E0294D056022E0284D056033
:100D00001FE0254D6D6805F47012234D6D6805F4E4
:100D10008034022505EB92421CB9224D55430560F3
:100D20000BE01D4D6D6805F400351DB11E4D55439A
:100D3000056002E01A4D5543056002E0174D05605D
:100D400000BF00BF144D6D6805F0F0010909174D93
:100D50006B5C0568DD4045600F4D6D6805F4E06132
:100D6000090A124D6B5C4568DD4085600A4D6D686F
:100D700005F46051C90A0D4D6B5C4568DD40C560E6
:100D8000054D6D6805F44041890B094D6B5CC568E4
:100D9000B5FBF3F5056130BD0010024000127A008A
:100DA000001BB70000093D00808D5B001B00002088
:100DB0002B00002021B1028842F04002028004E0B2
:100DC00002884FF6BF731A40028070470246002027
:100DD00013890B400BB1012000E000207047014651
:100DE000888970478181704710B50022028802F41B
:100DF00041520B884C8823438C882343CC8823435F
:100E00000C8923434C8923438C892343CC89234376
:100E10001A430280838B4FF2FF74234083830B8A33
:100E2000038210BD10B500F001F810BD0CB5002014
:100E3000019000903348006840F4803031490860E8
:100E400000BF3048006800F4003000900198401C5A
:100E50000190009818B90198B0F5A06FF1D1294818
:100E6000006800F4003010B10120009001E0002083
:100E700000900098012843D12348006840F01000FA
:100E8000214908600846006820F003000860084611
:100E9000006840F0020008601A484068194948603C
:100EA0000846406848600846406840F480604860F2
:100EB0000846406820F47C1048600846406840F4CA
:100EC000881048600846006840F08070086000BFE5
:100ED0000C48006800F000700028F9D0094840680C
:100EE00020F00300074948600846406840F00200CF
:100EF000486000BF0348406800F00C000828F9D1A2
:100F00000CBD0000001002400020024010B5FFF7A9
:100F10005DF903F0CFF918B14FF080500249086035
:100F20000020FFF75AF910BD04ED00E010B513489A
:100F3000006840F001001149086008464068104907
:100F400008400E494860084600680E4908400B49B1
:100F500008600846006820F4802008600846406861
:100F600020F4FE0048604FF41F008860FFF75AFF2E
:100F70004FF000600449086010BD000000100240FE
:100F80000000FFF8FFFFF6FE08ED00E010B5024894
:100F900000F016F910BD00002019002010B502481D
:100FA00000F00EF910BD0000A800002010B50248A6
:100FB00000F006F910BD0000D008002010B502486E
:100FC00000F0FEF810BD0000F810002001F40072DF
:100FD000B2F5007F00D100BFCA430280704721B143
:100FE000828942F40052828104E082894DF6FF73C7
:100FF0001A408281704770B5024600240023002504
:10100000002040F66A16B14200D100BFC1F342157C
:1010100001F01F03012606FA03F3012D02D1968980
:10102000334006E0022D02D1168A334001E0968A51
:1010300033400C12012606FA04F41688344013B12A
:101040000CB1012000E0002070BDF0B50346002483
:1010500000260025002040F66A17B94200D100BFE3
:101060001846C1F3421401F01F06012707FA06F5DE
:10107000012C01D10C3004E0022C01D1103000E031
:1010800014301AB107682F43076002E00768AF43C6
:101090000760F0BD2DE9F04786B005460E460024F6
:1010A000A24600BFA1460027B08900B100BF2F466D
:1010B0002C8A4CF6FF700440F08804432C82AC89E3
:1010C0004EF6F3100440B088318908437189084313
:1010D0000443AC81AC8A4FF6FF400440B08904431E
:1010E000AC8201A8FFF7F8FD1F48874202D1DDF866
:1010F00010A001E0DDF80CA0A88900F4004040B188
:101100000AEBCA0000EB0A1031684900B0FBF1F8A5
:1011100007E00AEBCA0000EB0A1031688900B0FB57
:10112000F1F86420B8FBF0F004012009642101FB10
:101130001089A88900F4004040B1322000EBC900BA
:10114000B0FBF1F000F00700044308E0322000EBB0
:1011500009106421B0FBF1F000F00F0004432C8172
:1011600006B0BDE8F08700000038014001468888DD
:10117000C0F308007047C1F308028280704770B561
:1011800004460D4602F0C2FA668B02F0E1FA0EB98F
:10119000002070BD218BA068405C287002F0B6FA78
:1011A000208B401C80B22083E189884201DB002033
:1011B0002083608B401E608302F0CAFA0120E8E7BA
:1011C00070B5044640F225512068FFF714FFE0B1E6
:1011D0002068FFF7CBFFC5B2E18AA0684554E08ADA
:1011E000401C80B2E082E189884201DB0020E0827D
:1011F000608BE189884202DA608B401C6083606A00
:1012000010B12846616A884700BF40F22771206804
:10121000FFF7F1FE08B3A08A60B9002240F22771FF
:101220002068FFF712FF012240F226612068FFF7D5
:101230000CFF37E0638A6268D15C2068FFF79BFF90
:10124000608A401C80B26082A189884201DB002054
:101250006082A08A401EA08224E040F226612068BD
:10126000FFF7C9FEF0B1A08A50B9002240F2266112
:101270002068FFF7EAFE206AA0B1206A804711E0EB
:10128000638A6268D15C2068FFF775FF608A401C42
:1012900080B26082A189884201DB00206082A08A3E
:1012A000401EA08270BDF8B504460E4617460025C4
:1012B00025E00CE002F02AFAA08A009002F048FA39
:1012C000A089BDF80010884200DD01E000BFF1E711
:1012D00000BF705D228A6168885402F017FA208A84
:1012E000401C80B22082A189884201DB002020823C
:1012F000A08A401CA08202F02BFA681C85B2BD4275
:10130000D7DB012240F227712068FFF79EFEF8BD6F
:101310002A482B4908602B4848602B4888604FF4C6
:1013200080608881C881002008824882C882088342
:1013300048838882C861086248622448244908605A
:1013400024484860244888604FF480608881C881C0
:10135000002008824882C882088348838882C86146
:10136000086248621D481E4908601E4848601E48C1
:1013700088604FF480608881C8810020088248829C
:10138000C882088348838882C86108624862174817
:101390001749086017484860174888604FF4806014
:1013A0008881C881002008824882C88208834883D7
:1013B0008882C861086248627047000000380140B6
:1013C000A8000020D0000020D004002000440040ED
:1013D000D0080020F8080020F80C00200048004049
:1013E000F81000202011002020150020004C0040A3
:1013F0002019002048190020481D002000BFFEE7EA
:101400000FB4054B10B503A9044A029800F02CF85C
:1014100010BC5DF814FB0000551C00089C00002067
:101420000FB41CB50A46521ECDE9000207A9054BB0
:101430006A46069800F018F8009A002111701CBC4A
:101440005DF814FBCB18000802E008C8121F08C1A1
:10145000002AFAD170477047002001E001C1121F35
:10146000002AFBD1704700002DE9FF4F8DB00F46D9
:101470000546002606E025280BD0DDE90F1290472F
:101480006D1C761C28780028F5D111B03046BDE8D7
:10149000F08F0024A246A1460122EC4900E004435B
:1014A00015F8013F203B02FA03F00842F7D12878F3
:1014B0002A2810D06FF02F022878A0F130010929D6
:1014C00014D80AEB8A0102EB410144F0020400EB5C
:1014D000010A6D1CF0E701CF5FEA000A03D544F46E
:1014E0000054CAF1000A44F002046D1C28782E282A
:1014F00017D115F8010F44F004042A280ED06FF01C
:101500002F022878A0F1300109290AD809EB8901B6
:1015100002EB410100EB01096D1CF2E757F8049B57
:101520006D1C28786C280FD006DC4C2817D0682852
:101530000DD06A2814D104E0742810D07A280FD175
:101540000DE044F400140AE044F4801401E044F493
:1015500040146978814202D104F580146D1C6D1C21
:101560002A786E2A1FD00CDC632A31D004DC002AD2
:101570008BD0582A11D1A3E0642A68D0692A0CD1F3
:1015800065E0732A2ED004DC6F2A73D0702A04D150
:101590009BE0752A6FD0782A6ED01046DDE90F12D5
:1015A0009047761C50E1C4F30250022806D003286D
:1015B00009D0042801CF09D0066045E101CFF11719
:1015C000C0E9006140E101CF06803DE106703BE1EA
:1015D00017F8040B8DF8000000208DF80100EB4691
:1015E000012003E057F804BB4FF0FF3061074FF0D4
:1015F000000102D40DE008F10101884649450FDAE7
:101600008045F8DB1BF808100029F4D108E008F148
:10161000010188468142FADB1BF808100029F6D147
:10162000DDE90F23AAEB08008146214600F036F9D8
:10163000304400EB080604E0DDE90F121BF8010B53
:101640009047B8F10108F7D221464846F7E00A2151
:10165000C4F302534FF0000B0891022B04D001CFCA
:10166000C117032B09D00AE0FF1D27F00707F7E891
:10167000020108E032E01FE020E000B2C117042BB5
:1016800001D140B2C117031E71F1000307DA4FF018
:10169000000CD0EB0C006CEB01012D2302E02305C4
:1016A00004D52B238DF82430012303E0E30701D078
:1016B0002023F7E7984658E00A2110E010210EE0B9
:1016C00010204FF0000B08900CE010214FF0000BA1
:1016D00044F004044FF00809089103E008214FF09A
:1016E000000B0891C4F30253022B04D001CF002158
:1016F000032B06D006E0FF1D27F00707F7E80201DD
:1017000003E080B2042B00D1C0B24FF000082307E1
:101710002BD5702A07D0DDF820C08CF0100C5CEAC5
:101720000B0C05D00EE040238DF82430012308E097
:1017300050EA010306D030238DF824308DF825209F
:1017400002239846DDF820C08CF0080C5CEA0B0CF4
:101750000BD150EA010301D1630706D530238DF880
:1017600024304FF00108A9F10109582A04D038A209
:101770000B9208AA0A920BE03AA2F9E75B46089A94
:10178000FEF78EFD0B9B9B5C0A9A521E0A92137009
:1017900050EA0102F2D10A98ADEB000000F1200BF3
:1017A000600702D524F4803401E04FF00109D945E7
:1017B00002DDA9EB0B0000E0002000EB0B0141442F
:1017C0000890AAEB010AE00306D4DDE90F232146C5
:1017D000504600F063F806444FF0000908E009A9FC
:1017E00011F80900DDE90F12904709F10109761C93
:1017F000C145F4DBE0030CD5DDE90F23214650465B
:1018000000F04CF8064404E0DDE90F123020904768
:10181000761C0899481E08900029F5DC08E00A9813
:101820000A990078491C0A91DDE90F129047761C4D
:10183000BBF10001ABF1010BF1DC21465046DDE9C3
:101840000F2300F019F806446D1C1BE6092801005F
:101850003031323334353637383961626364656626
:1018600000000000303132333435363738394142E8
:1018700043444546000000002DE9F04104460025A0
:101880001E461746880404D405E039462020B04798
:101890006D1C641EF9D52846BDE8F0812DE9F041A4
:1018A000044600251E469046C80301D5302700E0B7
:1018B0002027880404D505E041463846B0476D1C12
:1018C000641EF9D52846BDE8F0814A68002A06D092
:1018D0000A68531C0B6010704868401E48607047CF
:1018E00010B54FF44070FFF7CDF900F001F810BDCE
:1018F00010B5FFF70DFDFEF76BFEFEF76FFD10BD97
:1019000000B503461846FEF74BFD024602B900BD7E
:101910000020D0821083508300BFF8E770B50546E1
:101920000E462846FEF73CFD04460CB9002070BD6B
:1019300031462046FFF723FCF9E72DE9F041054643
:101940000E4617462846FEF72BFD04460CB9BDE8A7
:10195000F081E06908B1E06980473A4631462046A7
:10196000FFF7A1FC00BFF2E713B50446012201A96D
:101970002046FFF7E2FF1CBDF8B5FEF77DFFFFF73D
:1019800011F8054600BF02F08FFC04464FF47A7050
:10199000B4FBF0F100FB1146B4FBF0F7044B324608
:1019A000394604A00095FFF72BFD00BFF8BD0000ED
:1019B000104600085B253035642E253033642F49EE
:1019C0005D3A2025733A207265616420666C61730C
:1019D000682069642025780D0A0000002DE9F04395
:1019E00087B0182400BF02F05FFC07464FF47A70FE
:1019F000B7FBF0F100FB1178B7FBF0F9624B424600
:101A0000494662A0FFF7FCFC00BF204601F088FABF
:101A1000064621463046FEF712FC21466148FEF795
:101A20000EFCA2B200213046FEF792FF00250FE027
:101A3000725D715D5CA0FFF7E3FC681C0A2190FBFE
:101A4000F1F201FB120010B955A0FFF7D9FC6D1C93
:101A5000A542EDDB52A0FFF7D3FC224631465148A8
:101A6000FEF7D4FB4F480078242842D14D484078F7
:101A700024283ED100BF02F017FC07464FF47A70CD
:101A8000B7FBF0F100FB1178B7FBF0F93E4B424693
:101A9000494648A0FFF7B4FC00BF00BF02F004FCB9
:101AA00007464FF47A70B7FBF0F100FB1178B7FBF3
:101AB000F0F93C4840693B49891C334B4246CDE92B
:101AC0000010494646A0FFF79BFC00BF354840691F
:101AD000401C344948610020FEF7ACFE22463149E3
:101AE0003046FEF793FBA2B200213046FEF7BCFF62
:101AF00031E003A800F0E0F800BF02F0D5FB074694
:101B00004FF47A70B7FBF0F100FB1178B7FBF0F9F6
:101B100003A81D4B4246494600903EA0FFF770FCCB
:101B200000BF24201F4908704870102203A91D48D7
:101B3000801CFEF76BFB01201A4948610020FEF76C
:101B400079FE224617493046FEF760FBA2B200211B
:101B50003046FEF789FF304600F086F800BF02F0FD
:101B6000A3FB07464FF47A70B7FBF0F100FB117846
:101B7000B7FBF0F9044B4246494630A0FFF740FC62
:101B800000BF07B0BDE8F083E34600085B253035B1
:101B9000642E253033642F495D3A2025733A204561
:101BA0000D0A000030660020253032782825632990
:101BB000200000005B253035642E253033642F492A
:101BC0005D3A2025733A20636F6E66696720616C09
:101BD000726561647920646F6E650D0A0000000013
:101BE0005B253035642E253033642F495D3A20253E
:101BF000733A206465766963656964202D202573D6
:101C00002C20626F6F742074696D6573202D202500
:101C1000640D0A005B253035642E253033642F496E
:101C20005D3A2025733A20676574206465766963A0
:101C3000652069642025730D0A0000005B2530359E
:101C4000642E253033642F495D3A2025733A20589D
:101C50000D0A000070B504460D46E1B20120FFF701
:101C600083FE204670BD000010B5002821D0114B26
:101C70000022001F196803E0814203D80A46496820
:101C80000029F9D152B11368841A9C4204D100682A
:101C900018441060104602E0506000E0186039B14E
:101CA00002680B1A934203D10B681A440260496818
:101CB000416010BDA000002010B50446102202496A
:101CC0002046FEF7A3FA10BD1F660020014630290A
:101CD00003DB392901DC012070470020FCE700000C
:101CE0002DE9F0410220FFF70BFE1AA001F0D2F817
:101CF00040F6B8311AA001F087F8A0B100BF02F099
:101D0000D3FA05464FF47A70B5FBF0F100FB11569B
:101D1000B5FBF0F7134B3246394613A0FFF770FBC3
:101D200000BF012413E000BF02F0BEFA05464FF4E5
:101D30007A70B5FBF0F100FB1156B5FBF0F7094BDB
:101D40003246394611A0FFF75BFB00BF0024204656
:101D5000BDE8F08141542B43474154543F0D0A00E4
:101D60004F4B00009F4600085B253035642E253020
:101D700033642F495D3A2025733A20636761747498
:101D800020737563636573730D0A00005B2530353E
:101D9000642E253033642F455D3A2025733A206345
:101DA00067617474206661696C65640D0A000000E7
:101DB00070B50220FFF7A4FD17A001F06BF84FF4F7
:101DC000FA6118A001F020F890B100BF02F06CFA9F
:101DD00004464FF47A70B4FBF0F100FB1145B4FBFC
:101DE000F0F6114B2A46314610A0FFF709FB12E02E
:101DF00000BF02F059FA04464FF47A70B4FBF0F1D8
:101E000000FB1145B4FBF0F6074B2A46314612A001
:101E1000FFF7F6FA00BF70BD41542B43474D520DFA
:101E20000A0000004F4B00005A4600085B25303581
:101E3000642E253033642F495D3A2025733A2063A0
:101E40006865636B2076657273696F6E2073756366
:101E5000636573730D0A00005B253035642E2530F1
:101E600033642F455D3A2025733A20636865636BC0
:101E70002076657273696F6E206661696C65640DAA
:101E80000A0000002DE9F04186B0142101A8FEF7F8
:101E9000D6F90F213148FEF7D2F90220FFF730FDC5
:101EA0002FA000F0F7FFC82201A930A000F0F4FD38
:101EB00090B100BF02F0F8F906464FF47A70B6FB15
:101EC000F0F100FB1167B6FBF0F8294B3A464146AA
:101ED00028A0FFF795FA15E000BF02F0E5F90646E5
:101EE0004FF47A70B6FBF0F100FB1167B6FBF0F827
:101EF0001F4B3A4641462BA0FFF782FA00BF06B0BF
:101F0000BDE8F081002408E001A9085DFFF7DEFECE
:101F100008B1254603E0601CC4B2142CF4DB00BFFA
:101F2000052C05DA01A841190F220C48FEF76EF9BD
:101F300000BF02F0B9F906464FF47A70B6FBF0F133
:101F400000FB1167B6FBF0F8044B3A46414621A06E
:101F5000FFF756FA00BF00BFD1E70000106600206F
:101F600041542B4347534E0D0A0000004F4B0000D5
:101F7000814600085B253035642E253033642F49B7
:101F80005D3A2025733A20636865636B206465764B
:101F900069636520696D6569207375636365737333
:101FA0000D0A00005B253035642E253033642F4543
:101FB0005D3A2025733A20636865636B206465761B
:101FC00069636520696D6569206661696C65640D8A
:101FD0000A0000005B253035642E253033642F491C
:101FE0005D3A20696D65693A2025730D0A0000008D
:101FF0002DE9F043A3B004460D460220FFF780FC14
:1020000056A000F047FF4FF4FA515BA000F0FCFE31
:10201000A0B100BF02F048F907464FF47A70B7FB51
:10202000F0F100FB1178B7FBF0F9544B42464946FA
:1020300053A0FFF7E5F900BF012614E000BF02F04E
:1020400033F907464FF47A70B7FBF0F100FB1178D3
:10205000B7FBF0F9494B4246494654A0FFF7D0F987
:1020600000BF002675E05CA000F014FF41F288314B
:1020700041A000F0C9FEA0B100BF02F015F907466B
:102080004FF47A70B7FBF0F100FB1178B7FBF0F971
:102090003A4B4246494654A0FFF7B2F900BF012629
:1020A00014E000BF02F000F907464FF47A70B7FB66
:1020B000F0F100FB1178B7FBF0F9304B424649468E
:1020C00053A0FFF79DF900BF002642E0802103A83E
:1020D000FEF7B5F8234659A24FF4806103A8009596
:1020E000FFF79EF903A800F0D5FE42F2107159A047
:1020F00000F08AFEB0B100BF02F0D6F807464FF4F8
:102100007A70B7FBF0F100FB1178B7FBF0F91B4BCD
:102110004246494652A0CDE90045FFF771F900BF9C
:10212000012615E000BF02F0BFF807464FF47A70B1
:10213000B7FBF0F100FB1179B7FBF0F80F4B4A4603
:10214000414652A0CDE90045FFF75AF900BF0026ED
:1021500000BF304623B0BDE8F083000041542B5A45
:1021600049504346473D756E696D326D2E6E6A6DFE
:10217000326D61706E0D0A004F4B0000D6460008AC
:102180005B253035642E253033642F495D3A202598
:10219000733A207265676973746572206770727331
:1021A00020737563636573730D0A00005B2530351A
:1021B000642E253033642F455D3A2025733A207212
:1021C00065676973746572206770727320666169F0
:1021D0006C65640D0A00000041542B5A495043417C
:1021E0004C4C3D310D0A00005B253035642E253006
:1021F00033642F495D3A2025733A207A6970636110
:102200006C6C20737563636573730D0A00000000C6
:102210005B253035642E253033642F455D3A20250B
:10222000733A207A697063616C6C206770727320F6
:102230006661696C65640D0A0000000041542B5A08
:1022400049504F50454E3D322C302C25732C25647F
:102250000D0A0000434F4E4E454354204F4B0000A3
:102260005B253035642E253033642F495D3A2025B7
:10227000733A20636F6E6E6563742025733A25642C
:1022800020737563636573730D0A00005B25303539
:10229000642E253033642F455D3A2025733A206340
:1022A0006F6E6E6563742025733A256420666169DC
:1022B0006C65640D0A0000002DE9F0410220FFF773
:1022C0001FFB1AA000F0E6FDC8211BA000F09CFD3A
:1022D000A0B100BF01F0E8FF05464FF47A70B5FBEE
:1022E000F0F100FB1156B5FBF0F7144B32463946BE
:1022F00013A0FFF785F800BF012413E000BF01F031
:10230000D3FF05464FF47A70B5FBF0F100FB115690
:10231000B5FBF0F7094B3246394613A0FFF770F8CA
:1023200000BF00242046BDE8F081000041542B434B
:1023300050494E3F0D0A00004F4B00008B460008ED
:102340005B253035642E253033642F495D3A2025D6
:10235000733A20636865636B2073696D20737563DE
:10236000636573730D0A00005B253035642E2530DC
:1023700033642F455D3A2025733A20636865636BAB
:102380002073696D206661696C65640D0A00000048
:102390002DE9F04788B020216846FDF750FF002660
:1023A00060E000F0B3F8012000F003FE0220FFF728
:1023B000A7FA30A000F06EFD4FF47A72694630A0A3
:1023C00000F06AFBA8B100BF01F06EFF07464FF4B2
:1023D0007A70B7FBF0F100FB1179B7FBF0FA294BEB
:1023E0004A46514628A0FFF70BF800BF4FF00108FE
:1023F00014E000BF01F058FF07464FF47A70B7FBB6
:10240000F0F100FB1179B7FBF0FA1E4B4A4651463A
:1024100029A0FEF7F5FF00BF4FF0000832A1684683
:10242000FDF718FF054668783038C4B200BF01F0E8
:102430003BFF07464FF47A70B7FBF0F100FB1179D0
:10244000B7FBF0FA23464A46514628A0FEF7D8FFCC
:1024500000BF012C01D0052C02D14FF0010803E090
:10246000701CC6B20A2E9CDB00BF404608B0BDE817
:10247000F087000041542B435245473F0D0A0000AE
:102480004F4B0000954600085B253035642E253003
:1024900033642F495D3A2025733A2072656769736A
:1024A000746572206E6574776F726B2073756363E9
:1024B0006573730D0A0000005B253035642E2530EE
:1024C00033642F455D3A2025733A2072656769733E
:1024D000746572206E6574776F726B206661696CCB
:1024E00065640D0A000000002C0000005B253035FB
:1024F000642E253033642F495D3A207374617475FE
:1025000073203D2025640D0A0000000070B50220F4
:10251000FFF7F6F917A000F0BDFCC82118A000F0E5
:1025200073FC90B100BF01F0BFFE04464FF47A7017
:10253000B4FBF0F100FB1145B4FBF0F6114B2A4659
:10254000314611A0FEF75CFF12E000BF01F0ACFEC7
:1025500004464FF47A70B4FBF0F100FB1145B4FB74
:10256000F0F6084B2A46314611A0FEF749FF00BF9E
:1025700070BD000041542B4353510D0A0000000070
:102580004F4B0000514600085B253035642E253046
:1025900033642F495D3A2025733A20636865636B85
:1025A0002063737120737563636573730D0A000094
:1025B0005B253035642E253033642F455D3A202568
:1025C000733A20636865636B206373712066616989
:1025D0006C65640D0A0000002DE9F04186B01421FD
:1025E00001A8FDF72CFE0F213148FDF728FE02203F
:1025F000FFF786F92FA000F04DFCC82201A930A0FA
:1026000000F04AFA90B100BF01F04EFE06464FF4CA
:102610007A70B6FBF0F100FB1167B6FBF0F8294BBE
:102620003A46414628A0FEF7EBFE12E000BF01F05B
:102630003BFE06464FF47A70B6FBF0F100FB1167E3
:10264000B6FBF0F81F4B3A4641462BA0FEF7D8FEEA
:1026500000BF002408E001A9085DFFF737FB08B1BF
:10266000254603E0601CC4B2142CF4DB00BF052C2B
:1026700008DA01A841190F220D48FDF7C7FD002017
:102680000B49C87300BF01F00FFE06464FF47A7085
:10269000B6FBF0F100FB1167B6FBF0F8044B3A46CD
:1026A000414621A0FEF7ACFE00BF06B0BDE8F081B8
:1026B0001F66002041542B49434349440D0A000042
:1026C0004F4B0000764600085B253035642E2530E0
:1026D00033642F495D3A2025733A20636865636B44
:1026E0002064657669636520696363696420737536
:1026F00063636573730D0A005B253035642E2530E6
:1027000033642F455D3A2025733A20636865636B17
:102710002064657669636520696363696420666126
:10272000696C65640D0A00005B253035642E253028
:1027300033642F495D3A2069636369643A202573E5
:102740000D0A000070B586B001210820FEF7B4FA2A
:102750000120ADF8140010208DF8170003208DF82B
:10276000160005A93248FDF778FE01211020FEF77A
:10277000A3FA4FF40040ADF8140010208DF81700B4
:1027800003208DF8160005A92A48FDF766FE0120F2
:1027900001F05EFB284908600846006890B900BF58
:1027A00001F082FD04464FF47A70B4FBF0F100FBB7
:1027B0001145B4FBF0F6214B2A46314620A0FEF726
:1027C0001FFE00BF00BF01F06FFD04464FF47A709A
:1027D000B4FBF0F100FB1145B4FBF0F62A4631469C
:1027E00025A0FEF70DFE00BF00202E4A0423CDE9F0
:1027F00001200093039003464FF400722AA12D4854
:1028000001F0B8FC00BF01F04FFD04464FF47A70B0
:10281000B4FBF0F100FB1145B4FBF0F6074B2A4680
:10282000314625A0FEF7ECFD00BF06B070BD0000EC
:10283000000C0140001001408C0000202E460008D2
:102840005B253035642E253033642F455D3A2025D5
:10285000733A206661696C656420746F20637265E9
:10286000617465206D7574657820666F72206C32B6
:1028700030360D0A000000005B253035642E25300F
:1028800033642F495D3A20637265617465206C3250
:1028900030362070726F63657373207461736B0DD3
:1028A0000A000000900000204C32303650726F63F6
:1028B00065737300913800085B253035642E253030
:1028C00033642F495D3A20257320646F6E650D0ACD
:1028D00000000000014800787047000094000020CC
:1028E00010B500235A1E19460248006801F0D4FAB8
:1028F00010BD00008C0000202DE9F041002431E0E3
:102900003EA000F0C7FA4FF47A713EA000F07CFAC6
:10291000A0B100BF01F0C8FC05464FF47A70B5FBCA
:10292000F0F100FB1156B5FBF0F73246394636A000
:10293000FEF766FD00BF0120BDE8F08100BF01F099
:10294000B3FC05464FF47A70B5FBF0F100FB11566D
:10295000B5FBF0F73246394634A0FEF751FD00BF13
:10296000601CC4B2012CCBDB00F0D6F80121384842
:10297000FDF700FE022000F01CFB01213448FDF7AA
:10298000F7FD0A2000F015FB0220FEF7B9FF002436
:102990001EE01AA000F07EFA4FF47A7119A000F040
:1029A00033FA98B100BF01F07FFC05464FF47A700E
:1029B000B5FBF0F100FB1156B5FBF0F73246394696
:1029C00024A0FEF71DFD00BF0120B5E7601CC4B2C6
:1029D000052CDEDB00BF01F067FC05464FF47A7082
:1029E000B5FBF0F100FB1156B5FBF0F73246394666
:1029F00021A0FEF705FD00BF00209DE741544530B2
:102A00000D0A00004F4B00005B253035642E253049
:102A100033642F495D3A20416C726561647920709E
:102A20006F7765726F6E210D0A0000005B253035EF
:102A3000642E253033642F455D3A20506F776572E0
:102A4000206F6E206661696C65640D0A00000000ED
:102A5000000C01405B253035642E253033642F494E
:102A60005D3A20706F7765726F6E20737563636572
:102A700073730D0A000000005B253035642E25308D
:102A800033642F455D3A20706F7765726F6E2066F4
:102A900061696C65640D0A002DE9F0439DB08146C3
:102AA0000E4617460024002502974846FDF7E4FB32
:102AB0000546684601F0E4F800BF1CA90220FEF7B5
:102AC0002DFFE0B19DF8701012A0FEF799FC9DF863
:102AD00070202046611C8CB203A90A54AC420ED36C
:102AE000601B03AA81182A464846FDF7CCFB30B983
:102AF000A046224603A93046FDF788FB05E002A95F
:102B0000684601F0FDFA0028D7D000BF40461DB04E
:102B1000BDE8F0832563000070B500BF01F0C4FB81
:102B200004464FF47A70B4FBF0F100FB1145B4FB9E
:102B3000F0F6194B2A46314618A0FEF761FC00BF9B
:102B40004FF400411B48FDF715FD022000F031FA5B
:102B50004FF400411748FDF70BFD012000F029FA62
:102B60004FF400411348FDF705FD022000F021FA63
:102B700000BF01F099FB04464FF47A70B4FBF0F10A
:102B800000FB1145B4FBF0F6034B2A4631460AA080
:102B9000FEF736FC00BF70BD384600085B253035B7
:102BA000642E253033642F495D3A2025733A204541
:102BB0000D0A0000001001405B253035642E2530E1
:102BC00033642F495D3A2025733A20580D0A0000DE
:102BD0002DE9FE4F06460C469046002002908146A5
:102BE00000BF01F061FB82464FF47A70BAFBF0F14E
:102BF00000FB11ABBAFBF0F02E4B5A460146CDE973
:102C000000602DA0FEF7FCFB00BFFFF769FE61002E
:102C100001F10D0000F084F90746600000F10D019C
:102C20003846FDF70CFB2AA24FF480613846FEF7C8
:102C3000F7FB1FFA80F900250CE0735D07EB090034
:102C400027A24FF48061FEF7EBFB48441FFA80F99E
:102C5000681C85B2A542F0DB384600F01BF922A0C3
:102C600000F018F91FFA88F120A000F0CDF810B19B
:102C70000120029015E000BF01F016FB82464FF4E0
:102C80007A70BAFBF0F100FB11ABBAFBF0F0094B24
:102C90005A460146019017A0FEF7B2FB00BF002084
:102CA00002903846FEF7E0FF002700F0A1F80298F6
:102CB000BDE8FE8FCC4600085B253035642E2530FC
:102CC00033642F495D3A2025733A2025730D0A009D
:102CD00041542B5A495053454E443D322C0000007C
:102CE00025303278000000000D0A000053454E44A4
:102CF000204F4B005B253035642E253033642F4543
:102D00005D3A2025733A2073656E64206661696CB4
:102D100065640D0A0000000070B50220FEF7F0FDAA
:102D200017A000F0B7F8C82119A000F06DF890B115
:102D300000BF01F0B9FA04464FF47A70B4FBF0F129
:102D400000FB1145B4FBF0F6124B2A46314612A0A7
:102D5000FEF756FB12E000BF01F0A6FA04464FF45E
:102D60007A70B4FBF0F100FB1145B4FBF0F6094BAF
:102D70002A46314613A0FEF743FB00BF70BD00009A
:102D800041542B4950523D3131353230300D0A001B
:102D90004F4B0000644600085B253035642E25301B
:102DA00033642F495D3A2025733A2073657420629D
:102DB0006175647261746520737563636573730D07
:102DC0000A0000005B253035642E253033642F4522
:102DD0005D3A2025733A20736574206261756472D0
:102DE000617465206661696C65640D0A000000000D
:102DF00010B500231A4619460248006801F0ECF8A5
:102E000010BD00008C0000202DE9F0419EB0054669
:102E10000E460024A04603962846FDF72DFA80466C
:102E200001A800F02DFF00BF1DA90220FEF776FDCE
:102E300018B39DF8741016A0FEF7E2FA9DF874001E
:102E40000A280DD1002C09DD4246294604A8FDF7C9
:102E50001AFA08B9012716E000240EE000240CE05D
:102E6000642C0AD29DF87400202806DB9DF874209B
:102E70002046611C8CB204A90A5403A901A801F0E0
:102E80003FF90028D0D000BF38461EB0BDE8F08121
:102E9000256300002DE9F04104460220FEF730FDD5
:102EA0002046FDF7E9F985B22A4621460220FEF7C1
:102EB00044FD00BF01F0F8F905464FF47A70B5FB08
:102EC000F0F100FB1156B5FBF0F7234632463946C8
:102ED00002A0FEF795FA00BFBDE8F0815B25303512
:102EE000642E253033642F495D3A202D3E20257312
:102EF0000D0A0000012080F3108800BFFEF7F0FCEF
:102F00000548016805A0FEF77BFAFDF72DFA00F0F1
:102F1000D7FE00BFFEE70000000000202573000080
:102F2000F0B50B30154D20F007010024144A0FE0D6
:102F300003688B420BD38B4205D95E1A431847684E
:102F4000C3E9006700E04368136002C004E0021DAB
:102F500010680028ECD12046002802D1286808B16A
:102F60000020F0BD064A07481060074A121A22F0F6
:102F70000702C0E9002401202860D7E7A400002050
:102F8000A00000207C6A0020786C0020024600200F
:102F9000704770B505460C46A1B241F2883228460A
:102FA000FFF716FE012801D1002070BD4FF0FF3061
:102FB000FBE710B504464FF47A7104FB01F000F012
:102FC0002FFC10BD10B50446204600F029FC10BDB2
:102FD00010B504460E48006844600E4800688442FC
:102FE00007D20B480168091D0B48006800F068FB18
:102FF0000CE007480168091D0848006800F060FB04
:1030000007480068844201D20548046010BD0000F2
:103010003000002044000020380000203400002050
:10302000600000202DE9F04106460F461FB9B000B0
:1030300000F010FA00E03846054655B1542000F083
:1030400009FA04460CB1256304E0284600F096FB1B
:1030500000E000242046BDE8F081000070B523E0C8
:1030600000F05EFE1348006808B9012000E000206F
:10307000054601F059FABDB900F048FB0D48C0689B
:10308000C468201D00F0F8FA0B480068401E0A4989
:1030900008600A480068401E0849086000F058FBB4
:1030A000204600F062F800BF044800680028D7D12D
:1030B00070BD0000E8210020400000203C000020FE
:1030C00070B504460D46206C70B1216CE068084470
:1030D000E0606168E068884201D32068E0602846CB
:1030E000226CE168FDF792F870BD2DE9F0410446CD
:1030F0000E4615460027206C40B9206878BB6068F2
:1031000001F076F907460020606028E07DB931467D
:10311000226CA068FDF77AF8216CA0680844A060D2
:10312000D4E9011088421AD32068A06017E0314624
:10313000226CE068FDF76AF8216CE068401AE060F4
:103140002168E068884203D2216C6068401AE06020
:10315000022D04D1A06B10B1A06B401EA063A06B28
:10316000401CA0633846BDE8F08110B50446206BD2
:1031700000F004FB204600F001FB10BD30B54FF419
:103180008843174800F007042CB1C01D20F0070049
:10319000134C041B1B1B0246124C22600024114DD1
:1031A0006C60D018083820F007000F4C2060002415
:1031B0000D4D2D686C600C4D2D682C601146441A25
:1031C0004C60094C24680C60084D4C682C60084D1C
:1031D0004C682C604FF00044064D2C6030BD000060
:1031E00010220020740000207C00002084000020B9
:1031F000800000208800002000BFFFF72FFF034859
:1032000000680128F9D900F0FFFAF6E7482100200C
:103210002DE9F04704460F4615469946DDF8208013
:10322000002607E0B95D04F134008155B85D00B9AE
:1032300002E0761C102EF5D300BF0021432001557B
:10324000052D00D30425E56265640020A064201DDF
:1032500000F033FA04F1180000F02FFA2461C5F1F0
:103260000500A06164620020E06484F85000BDE8BD
:10327000F087000010B5002407E004EB84010F4A3A
:1032800002EB810000F00CFA641C052CF5D30C480D
:1032900000F006FA0B4800F003FA0B4800F000FAC1
:1032A0000A4800F0FDF90A4800F0FAF90448094913
:1032B000086004480849086010BD0000482100204B
:1032C000AC210020C0210020D4210020E8210020D2
:1032D000FC210020340000203800002010B50146F9
:1032E000164800E0006803688B42FBD3024643683F
:1032F00013448B4204D143684C6823444360014625
:103300000A464B6813440468A34211D10C4C03686D
:103310002468A34208D04B680468646823444B6067
:1033200003681B680B6005E0054B1B680B6001E040
:1033300003680B60884200D0016010BD740000205B
:103340007C00002070B5054600F0E0F9A86B08B9D4
:10335000012400E0002400F0FBF9204670BD70B5A8
:10336000054600F0D3F9A86BE96B884201D101242E
:1033700000E0002400F0ECF9204670BD0A4909681D
:10338000096809B9012100E0002121B14FF0FF31A6
:10339000064A116006E004490968C968C868034A1A
:1033A0004168116070470000340000206000002078
:1033B00007480068401C08B9012000E0002018B947
:1033C000FCF704FF00BFFEE7FCF700FF00BFFEE7CD
:1033D0006800002010B5044600F098F911E0606A1A
:1033E00008B9012000E0002038B904F1240001F000
:1033F00055F818B100F056FB00E005E0A06C401E47
:10340000A064A06C0028EADC00BF4FF0FF30A0648D
:1034100000F09EF900F07AF911E0206908B9012066
:1034200000E0002050B904F1100001F037F808B1B5
:1034300000F038FB606C401E606400E002E0606CED
:103440000028EADC00BF4FF0FF30606400F080F934
:1034500010BD00002DE9F04104464FF0000800F0D7
:103460005FFC3C48006808B9FFF788FE3A480068EE
:10347000204000285DD19CB1083404F0070078B1E9
:1034800004F00700C0F10800044404F0070008B984
:10349000012000E0002018B9FCF798FE00BFFEE70D
:1034A000002C46D02D480068844242D82C4E30462D
:1034B000056801E02E462D686868A04202D228689F
:1034C0000028F7D123480068854232D0306800F1E7
:1034D0000808286830606868001B102812D92F1966
:1034E00007F0070008B9012000E0002018B9FCF738
:1034F0006DFE00BFFEE76868001B78606C603846B0
:10350000FFF7ECFE154968680968081A1349086056
:103510000846006813490968884203D20F480068CA
:10352000104908600C496868096808436860002011
:10353000286000F0F9FF08F0070008B9012000E05A
:10354000002018B9FCF742FE00BFFEE74046BDE888
:10355000F08100007C000020880000208000002016
:1035600074000020840000200648006830B105493E
:10357000096801F14800896C491C01600148006834
:103580007047000030000020001F4FF08073036080
:10359000001F0160001F034B0360143802602038D5
:1035A00070470000B13300087FB500BF00F07CFE1B
:1035B00004464FF47A70B4FBF0F100FB1145B4FB04
:1035C000F0F6184B2A46314617A0FDF719FF00BF49
:1035D0001B481C49C1F824041B48C1F828040020DA
:1035E0001A4A0423CDE901200093039003464FF4C7
:1035F000006217A1194800F0BDFD00BF00F054FEA5
:1036000004464FF47A70B4FBF0F100FB1145B4FBB3
:10361000F0F6044B2A46314611A0FDF7F1FE00BF3B
:103620007FBD0000054700085B253035642E25303E
:1036300033642F495D3A2025733A20450D0A000076
:103640008D2F000848660020932F00089800002066
:103650004D71747450726F6365737300B13A0008F2
:103660005B253035642E253033642F495D3A2025A3
:10367000733A20580D0A000001460A69D1E9013069
:103680009860D1E9010358605068884201D1886888
:103690005060002008611068401E1060106870477C
:1036A00000F1080141604FF0FF31816000F1080135
:1036B000C160016100210160704700210161704714
:1036C00010B502460B685C1C0CB9106907E002F1EA
:1036D000080000E04068446824689C42FAD94468C5
:1036E0004C604C68A160886041600A611468641C89
:1036F000146010BD42684A6093688B60936859609B
:103700009160086103685B1C0360704710B5FCF7AB
:103710005DFD0D480068401C0B490860BFF34F8FEA
:10372000BFF36F8F0846006801280BD10748006877
:10373000C0B208B9012000E0002018B9FCF746FD2E
:1037400000BFFEE710BD00006800002004ED00E0AF
:1037500010B50948006818B9FCF738FD00BFFEE74E
:1037600005480068401E044908600846006810B912
:103770000020FCF732FD10BD6800002070B5064641
:103780003546002E31D0083D2C461849606809683E
:10379000084008B1012000E0002018B9FCF716FD30
:1037A00000BFFEE7206808B9012000E0002018B93A
:1037B000FCF70CFD00BFFEE70C4960680968084093
:1037C00098B1206888B909496068096888436060D1
:1037D00000F0A6FA064960680968084404490860D0
:1037E0002046FFF77BFD00F09FFE70BD88000020A3
:1037F0008000002003484FF0E02148610720086165
:10380000704700003F1901004FF0805003490860E5
:10381000BFF34F8FBFF36F8F7047000004ED00E0E0
:1038200070B50446002634B31548006808B9012075
:1038300000E0002018B9FCF7C9FC00BFFEE700F06B
:103840006FFA1048006805190F480068001DFFF75F
:1038500013FF50B90C48006890F82C1001208840E4
:103860000A4909688143094801602846FFF7B0FB0F
:1038700000F05AFE06460EB9FFF7C6FF70BD000005
:103880006400002044000020300000204800002098
:10389000F8B5074600BF00F007FD04464FF47A7004
:1038A000B4FBF0F100FB1145B4FBF0F6424B2A46A5
:1038B000314642A0FDF7A4FD00BFFFF71DF8012827
:1038C00012D100BF00F0F0FC04464FF47A70B4FB54
:1038D000F0F100FB1145B4FBF0F6374B2A463146B8
:1038E0003CA0FDF78DFD13E000BF00F0DDFC0446B9
:1038F0004FF47A70B4FBF0F100FB1145B4FBF0F625
:103900002D4B2A4631463EA0FDF77AFD00BFF8BD9B
:10391000FFF702FAFEF74CFAFEF7B4FAFEF7CCFC1A
:10392000FEF75AFEFEF734FDFEF7DAF9FEF756F819
:1039300040F25C713BA0FEF75BFBA8B100BF00F05A
:10394000B3FC04464FF47A70B4FBF0F100FB114570
:10395000B4FBF0F62A46314636A0FDF751FD00BF14
:1039600001204249087015E000BF00F09DFC0446AC
:103970004FF47A70B4FBF0F100FB1145B4FBF0F6A4
:103980002A4631463AA0FDF73BFD00BF00203749EB
:103990000870BCE70EE004E09DF8001040A0FDF7C1
:1039A0002FFD69460220FDF7B9FF0028F4D10A2057
:1039B000FFF708FBEFE700001D4600085B253035E8
:1039C000642E253033642F495D3A2025733A204513
:1039D0000D0A00005B253035642E253033642F49F5
:1039E0005D3A2025733A20706F7765726F6E207391
:1039F00075636365737366756C6C790D0A000000FE
:103A00005B253035642E253033642F455D3A202503
:103A1000733A20706F7765726F6E206661696C65AE
:103A2000640D0A003133392E3232342E3232372EC1
:103A3000313734005B253035642E253033642F490F
:103A40005D3A20636F6E6E65637420736F636B65A0
:103A50007420736572766572207375636365737322
:103A600066756C6C7921210D0A000000940000201D
:103A70005B253035642E253033642F455D3A206355
:103A80006F6E6E65637420736F636B65742073650E
:103A900072766572206661696C656421210D0A0089
:103AA0002563000001200149086070475400002090
:103AB00031E000BF00F0F8FB04464FF47A70B4FB2D
:103AC000F0F100FB1145B4FBF0F6134B2A463146EA
:103AD00012A0FDF795FC00BF0A20FFF76AFAFEF777
:103AE000F9FE012817D113480621D0F8282412A086
:103AF000904700BF00F0D8FB04464FF47A70B4FB47
:103B0000F0F100FB1145B4FBF0F62A4631460CA05B
:103B1000FDF776FC00BFCCE7F44600085B253035A6
:103B2000642E253033642F495D3A2025733A2045B1
:103B30000D0A00004866002048656C6C6F0A0000A2
:103B40005B253035642E253033642F495D3A207370
:103B5000656E642068656C6C6F21210D0A000000A1
:103B600070B505460C461DB9FCF730FB00BFFEE7FB
:103B70001348016818312846FFF7A2FD1048006875
:103B8000001DFFF779FD50B90D48006890F82C1022
:103B9000012088400B49096881430A480160601C84
:103BA00030B907480168091D0748FFF7A3FD05E084
:103BB0000648006806193046FFF70AFA70BD000093
:103BC0003000002048000020FC210020440000209C
:103BD00070B505462C46002D4BD02649E06A096891
:103BE000C96A884245D2A06900F0004028B921483E
:103BF0000068C06AC0F10500A061E16A01EB8101C3
:103C00001D4A02EB81016069884201D1012000E078
:103C1000002050B3201DFFF72FFD78B9E06A00EBBC
:103C20008000154951F8200040B994F82C1001206B
:103C30008840124909688143104801600D480068B6
:103C4000C06AE06294F82C10012088400B49096892
:103C500008430A490860E16A01EB8101064A02EB68
:103C60008100211DFFF746FD03E002480068C06A9D
:103C7000E06270BD30000020482100204800002094
:103C800010B504461CB9FCF7A1FA00BFFEE70348D3
:103C90000068206002480068606010BD5800002085
:103CA0004400002000BFFDF767FEFEF74BFDFFF765
:103CB0007BFC03E04FF4FA60FFF784F9FAE70000B9
:103CC0001FB50020009001900290034680220EA1B3
:103CD00003900F4800F04EFA0446012C0DD1FCF77A
:103CE00075FAA01E0B49086001200B4908600020EE
:103CF0000A49086000F05CF804E01CB9FCF766FAB9
:103D000000BFFEE71FBD000049444C450000000015
:103D1000F9310008600000204C0000204400002021
:103D200002480068401C0149086070476400002098
:103D300010B51A48006818B10120194908602BE035
:103D400000201749086017480068B0FA80F0C0F1F9
:103D50001F0404EB8400144951F8200008B101202D
:103D600000E0002018B9FCF731FA00BFFEE704EBD1
:103D700084010D4A02EB810041684968416000F10D
:103D8000080142688A4202D141684968416041683D
:103D9000C968064A116000BF10BD00006400002021
:103DA000540000204800002048210020300000205E
:103DB0001CB52248014609780191FF210246117085
:103DC0000146097800919DF8001001F010011C4A8D
:103DD000117007211B4A116009E01A490968491E40
:103DE000184A11609DF800104906090E00919DF8CF
:103DF000001001F080018029EFD012490968090202
:103E0000104A11601146098801F4E06111600B4A03
:103E1000019911700C48006840F470000A4908606C
:103E20000846006840F070400860FFF7E3FC00209F
:103E300006490860FCF798F900201CBD00E400E08A
:103E40006C0000207000002020ED00E068000020E1
:103E500070B505464C20FFF7FDFA0446D4B10020AA
:103E600060602060A060E060A0630120E06300204B
:103E70002064401E6064A06404F11000FFF710FC91
:103E800004F12400FFF70CFC00231A4619462046D3
:103E900000F0A2F8204670BD2DE9FF4383B005462F
:103EA0000E461F464FF000092C461CB9FCF78EF950
:103EB00000BFFEE70EB9206C08B9012000E0002029
:103EC00018B9FCF783F900BFFEE700BFFFF71EFC3F
:103ED000A06B90B3D4F80C8031462046FFF7F0F881
:103EE000B7B9A06B401EA063206810B9FFF73CFB78
:103EF0006060206908B9012000E00020B8B904F131
:103F0000100000F0CBFA012811D1FFF77DFC0EE084
:103F1000C4F80C80606A08B9012000E0002030B9C4
:103F200004F1240000F0BAFA08B1FFF76DFCFFF7C6
:103F30000FFC012007B0BDE8F083FFE7059818B932
:103F4000FFF706FC0020F5E7B9F1000F04D101A846
:103F5000FFF796FE4FF00109FFF7FAFBFFF7E0FECF
:103F6000FFF7D4FB606C401C08B900206064A06CB3
:103F7000401C08B90020A064FFF7EAFB05A901A8CE
:103F800000F0BEF808BB2046FFF7DCF9B8B12068A6
:103F900030B9FFF7BBFB6068FFF71AFEFFF7D8FBED
:103FA00004F124000599FFF7DBFD2046FFF712FA24
:103FB00000F0BAFA002889D1FFF726FC86E72046F0
:103FC000FFF708FA00F0B0FA80E72046FFF702FAA0
:103FD00000F0AAFA0020ADE72DE9FF4383B00646C2
:103FE00088461D464FF0000934461CB9FCF7EEF830
:103FF00000BFFEE7B8F1000F01D1206C08B9012025
:1040000000E0002018B9FCF7E1F800BFFEE7022D40
:1040100002D1E06B012801D1012000E0002018B995
:10402000FCF7D4F800BFFEE700BFFFF76FFBA06B03
:10403000E16B884201D3022D1DD12A46414620461C
:10404000FFF753F80746606A08B9012000E0002036
:1040500040B904F1240000F021FA012805D1FFF74E
:10406000D3FB02E00FB1FFF7CFFBFFF771FB01209D
:1040700007B0BDE8F083059818B9FFF769FB002089
:10408000F6E7B9F1000F04D101A8FFF7F9FD4FF0F1
:104090000109FFF75DFBFFF743FEFFF737FB606C9D
:1040A000401C08B900206064A06C401C08B90020C6
:1040B000A064FFF74DFB05A901A800F021F8C0B9E5
:1040C0002046FFF74CF970B104F110000599FFF795
:1040D00047FD2046FFF77EF900F026FA0028A4D11C
:1040E000FFF792FBA1E72046FFF774F900F01CFAF6
:1040F0009BE72046FFF76EF900F016FA0020B7E7BD
:104100002DE9F04104460D461CB9FCF75FF800BFED
:10411000FEE71DB9FCF75AF800BFFEE7FFF7F6FA15
:10412000124807682868401C08B9002619E01049A1
:1041300020680968884204D06068B84201D8012626
:104140000FE06068381A2968884209D228686168D7
:10415000791A401A28602046FFF792FD002600E0F9
:104160000126FFF7F5FA3046BDE8F0814400002053
:10417000580000202DE9FF4F81B0804616469A4630
:10418000DDE90E5BB8F1000F03D1FCF71FF800BFAB
:10419000FEE7052D01D2012000E0002018B9FCF750
:1041A00015F800BFFEE730461099FEF73BFF0446C6
:1041B000002C5AD0701E216B01EB800929F00709F1
:1041C00009F0070008B9012000E0002018B9FBF74A
:1041D000FDFF00BFFEE700962A462046119B02998C
:1041E000FFF716F8524641464846FFF7CDF92060E2
:1041F000BBF1000F01D0CBF80040FFF787FA24484D
:104200000068401C224908602248006840B92148E3
:1042100004600846006801280CD1FFF72BF809E07C
:104220001D48006830B91B480068C06AA84201D820
:104230001848046019480068401C1849086094F840
:104240002C10012088401649096808431449086069
:10425000E16A01EB8101134A02EB8100211DFFF7A6
:1042600049FA0127FFF774FA01E04FF0FF37012FF9
:1042700009D10948006830B106480068C06AA84200
:1042800001D2FFF7C1FA384605B0BDE8F08F000053
:1042900040000020300000204C0000205C00002086
:1042A00048000020482100200149086870470000AC
:1042B000440000202DE9F0414FF00008414800681B
:1042C000002872D140480068401C3F4908600846F9
:1042D0000668DEB93D480068006808B9012000E0C2
:1042E000002018B9FBF772FF00BFFEE737480768E8
:1042F0003748006835490860354807603548006828
:10430000401C34490860FFF739F800BF32480068A4
:1043100086423CD300BF2D480068006808B90120E0
:1043200000E0002020B14FF0FF302B4908602DE065
:1043300026480068C068C4686568AE4202D2264854
:10434000056023E0201DFFF797F9A06A18B104F17A
:104350001800FFF791F994F82C10012088401F49AC
:10436000096808431D490860E16A01EB81011C4AA4
:1043700002EB8100211DFFF7BDF91A49E06A0968C7
:10438000C96A8842C7D34FF00108C4E700BF154887
:104390000068C06A00EB8000114951F82000012834
:1043A00008D94FF0010805E0FFE70F480068401CFE
:1043B0000D4908600D48006808B14FF001084046FB
:1043C000BDE8F0816400002044000020340000209B
:1043D0003800002058000020600000204800002025
:1043E0004821002030000020500000205400002010
:1043F00070B505462C460026002D47D0244800689D
:10440000844201D1012000E0002018B9FBF7DEFE54
:1044100000BFFEE7A06C18B9FBF7D8FE00BFFEE7AF
:10442000A06C401EA064616CE06A88422ED0A06C33
:1044300060BB201DFFF720F978B9E06A00EB80002F
:10444000144951F8200040B994F82C1001208840FC
:1044500011490968814310480160606CE062E06ABC
:10446000C0F10500A06194F82C10012088400A4991
:104470000968084308490860E16A01EB8101054ABF
:1044800002EB8100211DFFF735F90126304670BD92
:1044900030000020482100204800002070B506466A
:1044A000F068C4681CB9FBF791FE00BFFEE704F199
:1044B0001800FFF7E1F816480068A8B9201DFFF7BB
:1044C000DBF894F82C100120884012490968084351
:1044D00010490860E16A01EB81010F4A02EB81009B
:1044E000211DFFF707F904E004F118010B48FFF75D
:1044F00001F90B49E06A0968C96A884204D90125B3
:1045000001200849086000E00025284670BD000031
:10451000640000204800002048210020D421002011
:10452000300000205400002070B50025304800689D
:1045300018B9FBF74BFE00BFFEE7FFF7E7F82C4882
:104540000068401E2A4908600846006800284BD1D0
:1045500028480068002847D024E02748C068C4687D
:1045600004F11800FFF788F8201DFFF785F894F88C
:104570002C10012088402149096808431F49086020
:10458000E16A01EB81011E4A02EB8100211DFFF768
:10459000B1F81C49E06A0968C96A884202D301205F
:1045A000194908601448006808B9012000E000209B
:1045B0000028D2D01548006878B10AE0FFF77AFEEB
:1045C00010B101201049086010480068401E0F49D2
:1045D00008600E4800680028F0D10B4800680128E8
:1045E00002D10125FFF710F9FFF7B2F8284670BD98
:1045F0006400002040000020D4210020480000205A
:1046000048210020300000205400002050000020ED
:10461000647269766572735F696E6974007654615D
:10462000736B4C32303650726F63657373006C324B
:1046300030365F696E6974006C3230365F72657354
:104640006574006C3230365F706F7765726F6666C6
:10465000006C3230365F637371006C3230365F63EA
:10466000676D72006C3230365F7365745F626175BE
:104670006472617465006C3230365F6963636964CB
:10468000006C3230365F6367736E006C3230365FB9
:104690006370696E006C3230365F63726567006C00
:1046A0003230365F6367617474006C3230365F6637
:1046B00074705F6765745F66696C65006C32303674
:1046C0005F6674705F636F6E666967006C32303668
:1046D0005F73656E64006C3230365F636F6E6E655B
:1046E000637400666C6173685F7461626C655F69B6
:1046F0006E697400765461736B4D71747450726F8F
:1047000063657373007468696E5F6D7174745F695B
:104710006E6974007468696E5F6D7174745F636F45
:104720006E6E656374007468696E5F6D7174745F3A
:10473000646973636F6E6E656374007468696E5F3D
:104740006D7174745F70696E67007468696E5F6D17
:104750007174745F7075626C697368007468696EF7
:104760005F6D7174745F7375627363726962650003
:104770002B2B2B2B2B2B2B2B2B2B2B2B2B2B2B2B89
:104780002B2B2B2B2B2B2B2B2B2B2B2B2B2B2B2B79
:104790002B2B2B2B2B2B2B2B2B2B2B0D0A2B2020BE
:1047A0002020202020202020202020202020202009
:1047B00020202020202020202020202020202020F9
:1047C000202020202020202B0D0A2B2020202020FC
:1047D0002020202020202056656869636C65556E76
:1047E000696F6E2E6F7267202020202020202020ED
:1047F000202020202B0D0A2B2020202020202020CC
:10480000202020202056323031382E303232362EC1
:104810003031202020202020202020202020202077
:10482000202B0D0A2B20202020202020202020209B
:104830002020202020202020202020202020202078
:1048400020202020202020202020202020202B0D70
:104850000A2B2B2B2B2B2B2B2B2B2B2B2B2B2B2BC9
:104860002B2B2B2B2B2B2B2B2B2B2B2B2B2B2B2B98
:104870002B2B2B2B2B2B2B2B2B2B2B2B0D0A546861
:1048800069732069732061707021210D0A00000096
:10489000B048000800000020A800000048140008EC
:1048A00058490008A8000020D073000058140008E0
:1048B00070470008000000000000000048454C4C14
:1048C0004F21210000000000000000000000000156
:1048D0000203040102030406070809020406080093
:1048E00000000000000000000000000000000000C8
:1048F00000000000000000000000000000000000B8
:1049000000000000000000000000000000000000A7
:104910000000000000000000AAAAAAAA00000000EF
:104920000000000000000000000000000000000087
:104930000000000000000000000000000000000077
:104940000000000000000000000000000000000067
:0849500000000000000000005F
:0400000508000131BD
:00000001FF
