:020000040800F2
:10000000D0730020010200086917000809090008E0
:10001000A10C0008F5060008191F000800000000E8
:100020000000000000000000000000004501000882
:100030008F0700080000000089010008651A000809
:100040001B0200081B0200081B0200081B0200081C
:100050001B0200081B0200081B0200081B0200080C
:100060001B0200081B0200081B0200081B020008FC
:100070001B0200081B0200081B0200081B020008EC
:100080001B0200081B0200081B0200081B020008DC
:100090001B0200081B0200081B0200081B020008CC
:1000A0001B0200081B0200081B0200081B020008BC
:1000B0001B0200081B0200081B0200081B020008AC
:1000C0001B0200081B0200081B0200081B0200089C
:1000D0001B020008F51A0008051B0008151B000884
:1000E0001B0200081B0200081B0200081B0200087C
:1000F0001B0200081B0200081B0200081B0200086C
:100100001B0200081B0200081B0200081B0200085B
:10011000E51A00081B0200081B0200081B02000869
:100120001B0200081B0200081B0200081B0200083B
:10013000DFF80CD000F048FA004800470D3E0008F8
:10014000D0730020204B19680868B0E8F00F80F3E6
:100150000988BFF36F8F4FF0000080F311884EF0D5
:100160000D0E70470000000006480068006880F32C
:10017000088862B661B6BFF34F8FBFF36F8F00DFA1
:1001800000BF00BF08ED00E0EFF30980BFF36F8F01
:100190000D4B1A6820E9F00F106008B54FF0100001
:1001A00080F3118804F0F0FF4FF0000080F3118815
:1001B000BDE8084019680868B0E8F00F80F30988C6
:1001C000BFF36F8F704700BF40000020EFF3118036
:1001D0004FF0100181F31188704780F31188704748
:1001E000EFF30580704700004FF0010080F31388A3
:1001F000014802490160FEE70CED00E00400FA0549
:100200000648804706480047FEE7FEE7FEE7FEE7B0
:10021000FEE7FEE7FEE7FEE7FEE7FEE7851A0008D9
:100220003101000810B5431A934209D28318881887
:1002300003E010F8011D03F8011D521EF9D210BD94
:1002400040EA01039B0703D009E008C9121F08C058
:10025000042AFAD203E011F8013B00F8013B521ED8
:10026000F9D210BDD2B201E000F8012B491EFBD239
:1002700070470022F6E710B513460A4604461946B1
:10028000FFF7F0FF204610BD30B505462A460B4665
:1002900012F8010B13F8014B08B1A042F8D01CB1C1
:1002A000002802D06D1CF1E7284630BD421C10F832
:1002B000011B0029FBD1801A704710B5002200E015
:1002C000521C835C8C5CA34201D1002BF8D1D8B2C4
:1002D000E1B2401A10BD30B504460020034600E0EC
:1002E0005B1C934203D2E05CCD5C401BF8D030BD78
:1002F00070B50F4D00B92868002412E00A4602E0EC
:100300009E4203D0521C1378002BF9D1DAB222435B
:1003100005D02BB124B1002100F8011B04E00446F4
:10032000401C0678002EE9D12860204670BD0000F0
:10033000B8000020F0B480EA0102D40F4200B2EB12
:10034000410F02D20246084611464A0042D0C30D70
:10035000DDB2C1F3C752AD1A202D35DAC1F3160153
:1003600041F4000204B15242C5F1200602FA06F13E
:100370002A411044B3EBD05F23D0C4B1012DA0EBD0
:10038000C35009DCF0BC4FF0004202EAC352DBB2BA
:1003900000F5000000F0E9B8400000F1807000EBCB
:1003A000C350A0F1807040EAD170490009E04908CB
:1003B00041EAC071A0EBC35000F50000400800EB1B
:1003C000C350F0BC00F0C8B86142012202EB410109
:1003D000001BF6E7F0BC704781F00041AAE780F00F
:1003E0000040A7E780EA010210B502F00043400098
:1003F00022D04A001FD0010E01EB1261C0F356005B
:10040000C2F3560240F4000042F40002A0FB0220B6
:1004100000047F39140400D0401C50EA124001D47B
:100420004000491EC2B20C0604EBD010401C40082C
:10043000802A02D003E0002010BD20F00100002936
:1004400000DA0020184310BD30B480EA010202F047
:10045000004530F0004221F0004013D090B1C30DB0
:10046000D40DC2F31601C0F31600E41A41F40001E2
:1004700040F400027D34914201D3641C00E0490045
:10048000002C02DA30BC002070474FF4000000233B
:10049000914201D3891A034340084FEA4101F7D141
:1004A00051B1914202D14FF0004105E002D24FF02C
:1004B000010101E06FF0010103EBC450284430BC9E
:1004C00000F04AB896230022114600F04EB820F002
:1004D0000040C10DC0F3160040F400007F2901DA8E
:1004E00000207047962903DCC1F19601C84070478F
:1004F0009639884070472DE9F05F05460020924606
:100500009B4688460646814640241BE028464146D5
:100510004746224600F079F853465A46C01A9141A0
:1005200010D311461846224600F060F82D1A67EBEA
:1005300001084F4622460120002100F057F817EB32
:1005400000094E41201EA4F10104DFDC484631467B
:100550002A464346BDE8F09F0029A8BF7047401CCB
:10056000490008BF20F00100704710B4B0FA80FCC9
:1005700000FA0CF050EA010404BF10BC704749B106
:10058000CCF1200421FA04F411FA0CF118BF012176
:1005900021430843A3EB0C01CB1D4FEA00614FEA56
:1005A000102042BF002010BC704700EBC350104425
:1005B0000029A4BF10BC7047401C490008BF20F0B0
:1005C000010010BC70470000064C074D06E0E068D3
:1005D00040F0010394E8070098471034AC42F6D38A
:1005E000FFF7AAFDBC5D0008DC5D0008202A04DBE3
:1005F000203A00FA02F1002070479140C2F1200336
:1006000020FA03F3194390407047202A04DB203A74
:1006100021FA02F00021704721FA02F3D040C2F122
:100620002002914008431946704700001FB501F0B1
:100630003FFF00201B4A0423CDE9012000930390D3
:1006400003464FF4806218A11A4805F02FF80020E5
:10065000194A0123CDE901200093039003464FF48A
:10066000007216A1184805F021F80020174A01234E
:10067000CDE901200093039003464FF4807214A14A
:10068000164805F013F80020154A0123CDE9012092
:100690000093039003464FF4806212A1144805F0C2
:1006A00005F81FBD1000002050726F63657373540E
:1006B00061736B00714F0008140000204770735085
:1006C000726F6365737300007D4A000808000020A4
:1006D0004C32303650726F6365737300ED4A000818
:1006E0000C0000204D71747450726F636573730059
:1006F000414C000800BFFEE7014609B900207047E1
:10070000012901D10748FAE7022901D10648F6E795
:10071000032901D10548F2E7042901D10020EEE7C1
:100720000020ECE7C8000020F0080020181100208D
:1007300008B526208DF8000001208DF8010000206A
:100740008DF8020001208DF80300684601F00EF8D4
:1007500027208DF8000001208DF8010000208DF881
:10076000020001208DF80300684600F0FFFF3420EE
:100770008DF8000001208DF8010000208DF80200A6
:1007800001208DF80300684600F0F0FF08BD7047B7
:100790002DE9F04102460025002600200023002418
:1007A000002791F803C00CF00F0591F803C00CF07E
:1007B000100CBCF1000F03D091F802C04CEA050503
:1007C00091F800C0BCF1000F31D0146800202BE07C
:1007D0004FF0010C0CFA00F3B1F800C00CEA03066C
:1007E0009E4220D183004FF00F0C0CFA03F7BC435C
:1007F00005FA03FC4CEA040491F803C0BCF1280F8D
:1008000006D14FF0010C0CFA00FCC2F814C00AE04B
:1008100091F803C0BCF1480F05D14FF0010C0CFA60
:1008200000FCC2F810C0401C0828D1D31460B1F8F5
:1008300000C0BCF1FF0F34DD546800202EE000F151
:10084000080C4FF0010808FA0CF3B1F800C00CEAEC
:1008500003069E4221D183004FF00F0C0CFA03F7E0
:10086000BC4305FA03FC4CEA040491F803C0BCF154
:10087000280F05D100F1080C08FA0CF8C2F8148012
:1008800091F803C0BCF1480F07D100F1080C4FF0FC
:10089000010808FA0CF8C2F81080401C0828CED3D2
:1008A0005460BDE8F081416170470161704770B5E7
:1008B00004460D462946204600F004FD2946204600
:1008C00000F09AFA2946204600F06CFC29462046A2
:1008D00000F002FA2946204600F098FC29462046FE
:1008E00000F02EFA2946204600F082FD29462046D7
:1008F00000F01CFB2946204600F08AFE29462046CF
:1009000000F024FC70BD000009A100200CE00A5C8E
:10091000124B1A8000BF114A121F128802F04002C7
:10092000002AF8D0421CD0B22A28F0D300BFFEE73C
:100930000D0A456E74657220486172644661756C7B
:10094000745F48616E646C65722C205379737465B2
:100950006D2048616C742E0D0A00000004380140BF
:1009600000B585B00121052000F052FF01214804A7
:1009700000F03EFF0420ADF8100018208DF81300A1
:1009800003208DF8120004A96648FFF701FF082034
:10099000ADF8100004208DF8130004A96148FFF79A
:1009A000F7FE04A95F48FFF7F3FE4FF4E130009033
:1009B0000020ADF80400ADF80600ADF80800ADF871
:1009C0000C000C20ADF80A006946574801F00EF9FA
:1009D000012240F22551544801F0E3F80121524828
:1009E00001F0A9F84021504801F09CF801210820AD
:1009F00000F00EFF10208DF8130003208DF8120078
:100A00000420ADF8100004A94848FFF7C1FE0121F9
:100A1000092000F0FDFE0121880400F0E9FE4FF4FA
:100A20008060ADF8100018208DF8130003208DF8B9
:100A3000120004A93D48FFF7ABFE4FF40060ADF88B
:100A4000100004208DF8130004A93848FFF7A0FE19
:100A500004A93648FFF79CFE4FF4E13000900020D7
:100A6000ADF80400ADF80600ADF80800ADF80C00D4
:100A70000C20ADF80A0069462D4801F0B7F80122B4
:100A800040F225512A4801F08CF80121284801F054
:100A900052F84021264801F045F80121112000F0CC
:100AA000B7FE0121C80400F0A3FE4FF48060ADF84A
:100AB000100018208DF8130003208DF8120004A9EF
:100AC0001C48FFF765FE4FF40060ADF810000420ED
:100AD0008DF8130004A91748FFF75AFE4FF416507B
:100AE00000900020ADF80400ADF80600ADF8080055
:100AF000ADF80C000C20ADF80A0069460E4801F074
:100B000075F8012240F225510B4801F04AF8012105
:100B1000094801F010F84021074801F003F805B03A
:100B200000BD00000008014000440040000C0140EE
:100B30000048004000100140004C004000B585B066
:100B400000F030F84FF480511448FFF7AEFE00205B
:100B5000ADF800004FF48270ADF802000020ADF84F
:100B600004000220ADF806000120ADF808004002A4
:100B7000ADF80A000820ADF80C000020ADF80E001A
:100B80000720ADF810006946054800F0D9FE0121A4
:100B9000034800F0BBFE05B000BD0000000C0140A2
:100BA0000038004008B50121880300F021FE012132
:100BB000082000F02DFE18208DF8030003208DF88A
:100BC00002004FF40050ADF8000069461048FFF7EE
:100BD000DFFD4FF40040ADF8000069460C48FFF718
:100BE000D7FD4FF48040ADF8000069460848FFF794
:100BF000CFFD4FF48050ADF8000010208DF80300B9
:100C000003208DF8020069460148FFF7C1FD08BDC9
:100C1000000C01402DE9F0410024002500260027AA
:100C20004FF480510F48FFF73EFE9F2000F01CF864
:100C3000A52000F019F80546A52000F015F8064695
:100C4000A52000F011F807464FF480510548FFF742
:100C50002CFE280440EA062040EA07042046BDE8AE
:100C6000F0810000000C014010B5044600BF0221D5
:100C70000A4800F057FE0028F9D02146074800F046
:100C80005DFE00BF0121054800F04CFE0028F9D0B0
:100C9000024800F050FEC0B210BD00000038004015
:100CA00000BFFEE70246134610E010782A2805D060
:100CB0001078202802DB10787A2801DDFF207047A9
:100CC00010782C2801D1481EC1B2521C0029ECD149
:100CD000D01AC0B2F3E70000F8B505460F4616A1DA
:100CE0003846FFF7D1FA064606213046FFF7DAFF0D
:100CF0000446FF2C05D03019694600F0C0FC85F889
:100D00004E0007213046FFF7CDFF0446FF2C05D0EB
:100D10003019694600F0B3FC85F84F0009213046D0
:100D2000FFF7C0FF0446FF2C05D03019694600F0DC
:100D3000A6FCC5F86300F8BD24474E4747410000B4
:100D40002DE9F8430546884629A14046FFF79CFA5D
:100D5000064602213046FFF7A5FF0446FF2C05D0CA
:100D60003019694600F08BFC85F85C00002713E021
:100D7000F81CC1B23046FFF795FF0446FF2C08D09F
:100D80003019694600F07BFCC1B205F15000C15535
:100D900000E003E0781CC7B20C2FE9DB00BF0F2195
:100DA0003046FFF77FFF0446FF2C05D03019694617
:100DB00000F065FCA5F85D0010213046FFF772FFDA
:100DC0000446FF2C05D03019694600F058FCA5F800
:100DD0005F0011213046FFF765FF0446FF2C05D068
:100DE0003019694600F04BFCA5F86100BDE8F883B6
:100DF00024474E47534100002DE9FC5F07468A46D1
:100E00004FF00008CDF804A044A10198FFF73CFA88
:100E10000646F079303800F0FF0B03213046FFF72B
:100E200041FF0546FF2D04D07019694600F027FCEC
:100E300038704FF000096CE03AA10198FFF724FAEE
:100E4000064600245CE0042000EB8400C1B230467A
:100E5000FFF728FF0546FF2D09D07019694600F0FD
:100E60000EFCC1B208EB8802781C815400E049E016
:100E7000052000EB8400C1B23046FFF713FF0546A2
:100E8000FF2D0AD07019694600F0F9FBC1B208EBDA
:100E90008802781C1044417000E033E0062000EB2B
:100EA0008400C1B23046FFF7FDFE0546FF2D0AD093
:100EB0007019694600F0E3FB81B208EB8802781CE8
:100EC0001044418000E01DE0072000EB8400C1B227
:100ED0003046FFF7E7FE0546FF2D0AD07019694638
:100EE00000F0CDFBC1B208EB8802781C1044017100
:100EF00000E007E008F1010000F0FF08601CC4B248
:100F0000042CA0DB00BF701C019009F1010000F06F
:100F1000FF09D94590DBBDE8FC9F000024474E4700
:100F20005356000024475047535600002DE9F04F18
:100F300085B00446884682A14046FFF7A5F90746DA
:100F400001213846FFF7AEFE0546FF2D23D0781964
:100F500004A900F094FB82469DF810100A2000F0CE
:100F600083FBBAFBF0F642F21070B6FBF0F0C1B2B0
:100F7000412001556420B6FBF0F06421B0FBF1F292
:100F800001FB1201422001556420B6FBF0F100FB89
:100F900011614320015503213846FFF783FE0546C2
:100FA000FF2D43D0781904A900F069FB06469DF88F
:100FB0001000801CC1B20A2000F056FBB6FBF0F016
:100FC00060649DF81000801CC1B20A2000F04CFB48
:100FD000B6FBF0F100FB116A5046FFF773FA814649
:100FE0009DF81000C0F10500C1B20A2000F03CFBE2
:100FF0000090FFF767FA83464946FFF7F3F9824608
:101000005149FFF721FA052102900A2000F02CFB3C
:10101000616C00FB01FA5046FFF754FA0190029907
:10102000FFF788F90390FFF752FA6064042138460D
:10103000FFF738FE0546FF2D02D0785D84F84800A2
:1010400005213846FFF72EFE0546FF2D45D07819BD
:1010500004A900F014FB06469DF81000801CC1B2E4
:101060000A2000F001FBB6FBF0F044F8490F9DF8B0
:101070001000801CC1B20A2000F0F6FAB6FBF0F1B5
:1010800000FB116A5046FFF71DFA81469DF81000DB
:10109000C0F10500C1B20A2000F0E6FA0090FFF7A7
:1010A00011FA83464946FFF79DF982462649FFF724
:1010B000CBF9052102900A2000F0D6FA216800FB46
:1010C00001FA5046FFF7FEF901900299FFF732F955
:1010D0000390FFF7FCF944F8490906213846FFF769
:1010E000E1FD0546FF2D02D0785D84F84D00092111
:1010F0003846FFF7D7FD0546FF2D1ED0781904A905
:1011000000F0BDFA064642F21070B6FBF0F0C1B234
:10111000402001556420B6FBF0F06421B0FBF1F2F1
:1011200001FB12013F2001556420B6FBF0F100FBEA
:10113000116000F5FA60A4F83D0005B0BDE8F08F3D
:10114000474E524D4300000000007042F8B504467F
:101150000D4612A12846FFF797F8064607213046AC
:10116000FFF7A0FD0746FF2F16D0F019694600F0E3
:1011700086FAA4F867009DF8000003280CDA9DF8B1
:101180000000C0F10300C1B20A2000F06DFAB4F80B
:1011900067104843A4F86700F8BD000024474E5686
:1011A00054470000F8B505460F4616A13846FFF72C
:1011B0006BF8064606213046FFF774FD0446FF2C07
:1011C00005D03019694600F05AFA85F84E0007211B
:1011D0003046FFF767FD0446FF2C05D030196946FD
:1011E00000F04DFA85F84F0009213046FFF75AFD0F
:1011F0000446FF2C05D03019694600F040FAC5F8C6
:101200006300F8BD24475047474100002DE9F843EB
:101210000546884629A14046FFF736F806460221D2
:101220003046FFF73FFD0446FF2C05D030196946D4
:1012300000F025FA85F85C00002713E0F81CC1B225
:101240003046FFF72FFD0446FF2C08D030196946C1
:1012500000F015FAC1B205F15000C15500E003E0FD
:10126000781CC7B20C2FE9DB00BF0F213046FFF717
:1012700019FD0446FF2C05D03019694600F0FFF92E
:10128000A5F85D0010213046FFF70CFD0446FF2C49
:1012900005D03019694600F0F2F9A5F85F00112178
:1012A0003046FFF7FFFC0446FF2C05D03019694695
:1012B00000F0E5F9A5F86100BDE8F8832447504740
:1012C000534100002DE9FC5F07468A464FF00008B5
:1012D000CDF804A044A10198FEF7D6FF0646F079A8
:1012E000303800F0FF0B03213046FFF7DBFC0546EA
:1012F000FF2D04D07019694600F0C1F938704FF025
:1013000000096CE038A10198FEF7BEFF06460024F4
:101310005CE0042000EB8400C1B23046FFF7C2FC61
:101320000546FF2D09D07019694600F0A8F9C1B231
:1013300008EB8802781C815400E049E0052000EBAE
:101340008400C1B23046FFF7ADFC0546FF2D0AD040
:101350007019694600F093F9C1B208EB8802781C55
:101360001044417000E033E0062000EB8400C1B27D
:101370003046FFF797FC0546FF2D0AD070196946E5
:1013800000F07DF981B208EB8802781C104441809E
:1013900000E01DE0072000EB8400C1B23046FFF7FB
:1013A00081FC0546FF2D0AD07019694600F067F9E7
:1013B000C1B208EB8802781C1044017100E007E01C
:1013C00008F1010000F0FF08601CC4B2042CA0DB8F
:1013D00000BF701C019009F1010000F0FF09D94520
:1013E00090DBBDE8FC9F00002447504753560000A7
:1013F0002DE9F04F85B00446884682A14046FEF7AD
:1014000043FF074601213846FFF74CFC0546FF2DF8
:1014100023D0781904A900F032F982469DF8101003
:101420000A2000F021F9BAFBF0F642F21070B6FB88
:10143000F0F0C1B2412001556420B6FBF0F0642108
:10144000B0FBF1F201FB1201422001556420B6FB12
:10145000F0F100FB11614320015503213846FFF7ED
:1014600021FC0546FF2D43D0781904A900F007F9A7
:1014700006469DF81000801CC1B20A2000F0F4F866
:10148000B6FBF0F060649DF81000801CC1B20A2029
:1014900000F0EAF8B6FBF0F100FB116A5046FFF7E6
:1014A00011F881469DF81000C0F10500C1B20A2074
:1014B00000F0DAF80090FFF705F883464946FEF79A
:1014C00091FF82465149FEF7BFFF052102900A2095
:1014D00000F0CAF8616C00FB01FA5046FEF7F2FF1B
:1014E00001900299FEF726FF0390FEF7F0FF60647B
:1014F00004213846FFF7D6FB0546FF2D02D0785D64
:1015000084F8480005213846FFF7CCFB0546FF2D3F
:1015100045D0781904A900F0B2F806469DF81000ED
:10152000801CC1B20A2000F09FF8B6FBF0F044F82E
:10153000490F9DF81000801CC1B20A2000F094F8F9
:10154000B6FBF0F100FB116A5046FEF7BBFF814687
:101550009DF81000C0F10500C1B20A2000F084F827
:101560000090FEF7AFFF83464946FEF73BFF8246F9
:101570002649FEF769FF052102900A2000F074F861
:10158000216800FB01FA5046FEF79CFF019002998A
:10159000FEF7D0FE0390FEF79AFF44F849090621B2
:1015A0003846FFF77FFB0546FF2D02D0785D84F8B3
:1015B0004D0009213846FFF775FB0546FF2D1ED06B
:1015C000781904A900F05BF8064642F21070B6FBE9
:1015D000F0F0C1B2402001556420B6FBF0F0642168
:1015E000B0FBF1F201FB12013F2001556420B6FB74
:1015F000F0F100FB116000F5FA60A4F83D0005B0C1
:10160000BDE8F08F4750524D43000000000070428B
:10161000F8B504460D4612A12846FEF735FE0646EB
:1016200007213046FFF73EFB0746FF2F16D0F01983
:10163000694600F024F8A4F867009DF8000003282C
:101640000CDA9DF80000C0F10300C1B20A2000F0DE
:101650000BF8B4F867104843A4F86700F8BD000021
:10166000244750565447000010B50246012000E0C0
:1016700050430B1EA1F10104E1B2F9D110BD2DE9D7
:10168000F34F81B007463C460020009083468146D8
:101690000026804628E020782D2802D148F0020854
:1016A000641C20782C2802D020782A2800D11CE045
:1016B00020782E2803D148F00108641C09E0207826
:1016C000392802DC2078302803DA4FF000090026A0
:1016D0000BE008F0010010B1701CC6B203E009F184
:1016E000010000F0FF09641CD5E700BF08F002000C
:1016F00000B17F1C00250EE0A9F10100401BC1B222
:101700000A20FFF7B1FF795D3039009A00FB012014
:101710000090681CC5B24D45EEDB052E00DD0526A8
:101720000298067000250EE0701E401BC1B20A2010
:10173000FFF79AFF09F101012944795C303900FB78
:1017400001BB681CC5B2B542EEDB31460A20FFF78B
:101750008BFF009901FB00BA08F0020008B1CAF142
:10176000000A5046BDE8FE8F7047000070B50021AA
:1017700000230F22C47804B3154C246804F4E064F9
:10178000C4F5E064210AC1F10403CA40447804FAB4
:1017900003F184781440214309010E4C0678A155C9
:1017A000047804F01F050124AC4005786D11AD00EC
:1017B00005F1E025C5F8004109E0047804F01F05B3
:1017C0000124AC40044D0678761145F8264070BDE2
:1017D0000CED00E000E400E080E100E0024901439C
:1017E000024A1160704700000000FA050CED00E0AD
:1017F00029B1064AD2690243044BDA6104E0034A84
:10180000D2698243014BDA61704700000010024048
:1018100029B1064A92690243044B9A6104E0034AE3
:1018200092698243014B9A617047000000100240A8
:1018300030B500210022002400232D4D6D6805F0F5
:101840000C0121B1042905D0082923D105E0294D37
:10185000056022E0284D05601FE0254D6D6805F408
:101860007012234D6D6805F48034022505EB924219
:101870001CB9224D554305600BE01D4D6D6805F404
:1018800000351DB11E4D5543056002E01A4D55430C
:10189000056002E0174D056000BF00BF144D6D6884
:1018A00005F0F0010909174D6B5C0568DD404560E6
:1018B0000F4D6D6805F4E061090A124D6B5C4568D7
:1018C000DD4085600A4D6D6805F46051C90A0D4D13
:1018D0006B5C4568DD40C560054D6D6805F44041B1
:1018E000890B094D6B5CC568B5FBF3F5056130BD2F
:1018F0000010024000127A00001BB70000093D00F2
:10190000808D5B002B0000203B00002021B102886D
:1019100042F04002028004E002884FF6BF731A4092
:10192000028070470246002013890B400BB1012052
:1019300000E0002070470146888970478181704728
:1019400010B50022028802F441520B884C882343D0
:101950008C882343CC8823430C8923434C8923431D
:101960008C892343CC8923431A430280838B4FF213
:10197000FF74234083830B8A038210BD10B500F0EF
:1019800001F810BD0CB500200190009033480068AC
:1019900040F480303149086000BF3048006800F4EE
:1019A000003000900198401C0190009818B90198EF
:1019B000B0F5A06FF1D12948006800F4003010B1F3
:1019C0000120009001E0002000900098012843D100
:1019D0002348006840F0100021490860084600686C
:1019E00020F0030008600846006840F0020008602C
:1019F0001A484068194948600846406848600846E7
:101A0000406840F4806048600846406820F47C10DC
:101A100048600846406840F48810486008460068FE
:101A200040F08070086000BF0C48006800F0007053
:101A30000028F9D00948406820F0030007494860B1
:101A40000846406840F00200486000BF0348406814
:101A500000F00C000828F9D10CBD00000010024075
:101A60000020024010B5FEF7B1FB03F0BFFE18B135
:101A70004FF08050024908600020FEF7AEFB10BD19
:101A800004ED00E010B51348006840F00100114972
:101A9000086008464068104908400E4948600846FA
:101AA00000680E4908400B4908600846006820F4A9
:101AB000802008600846406820F4FE0048604FF42B
:101AC0001F008860FFF75AFF4FF00060044908606C
:101AD00010BD0000001002400000FFF8FFFFF6FEFE
:101AE00008ED00E010B5024800F016F910BD000046
:101AF0001811002010B5024800F0DBFE10BD0000F8
:101B00008C5E002010B5024800F006F910BD000000
:101B1000C800002010B5024800F0FEF810BD00001B
:101B2000F008002001F40072B2F5007F00D100BF80
:101B3000CA430280704721B1828942F400528281F7
:101B400004E082894DF6FF731A408281704770B5B8
:101B50000246002400230025002040F66A16B14208
:101B600000D100BFC1F3421501F01F03012606FAA0
:101B700003F3012D02D19689334006E0022D02D1F4
:101B8000168A334001E0968A33400C12012606FA89
:101B900004F41688344013B10CB1012000E0002099
:101BA00070BDF0B50346002400260025002040F655
:101BB0006A17B94200D100BF1846C1F3421401F0C0
:101BC0001F06012707FA06F5012C01D10C3004E0AD
:101BD000022C01D1103000E014301AB107682F43F5
:101BE000076002E00768AF430760F0BD2DE9F047EA
:101BF00086B005460E460024A24600BFA146002737
:101C0000B08900B100BF2F462C8A4CF6FF7004400B
:101C1000F08804432C82AC894EF6F3100440B0885F
:101C200031890843718908430443AC81AC8A4FF67B
:101C3000FF400440B0890443AC8201A8FFF7F8FDDF
:101C40001F48874202D1DDF810A001E0DDF80CA0AA
:101C5000A88900F4004040B10AEBCA0000EB0A106A
:101C600031684900B0FBF1F807E00AEBCA0000EB6D
:101C70000A1031688900B0FBF1F86420B8FBF0F07D
:101C800004012009642101FB1089A88900F40040A7
:101C900040B1322000EBC900B0FBF1F000F00700CA
:101CA000044308E0322000EB09106421B0FBF1F09E
:101CB00000F00F0004432C8106B0BDE8F08700005F
:101CC0000038014001468888C0F308007047C1F31E
:101CD00008028280704770B504460D4602F00CFE83
:101CE000668B02F02BFE0EB9002070BD218BA06820
:101CF000405C287002F000FE208B401C80B22083E4
:101D0000E189884201DB00202083608B401E6083D4
:101D100002F014FE0120E8E770B5044640F22551B8
:101D20002068FFF714FFE0B12068FFF7CBFFC5B2D2
:101D3000E18AA0684554E08A401C80B2E082E189D3
:101D4000884201DB0020E082608BE189884202DA70
:101D5000608B401C6083606A10B12846616A8847C6
:101D600000BF40F227712068FFF7F1FE08B3A08A98
:101D700060B9002240F227712068FFF712FF0122AC
:101D800040F226612068FFF70CFF37E0638A626843
:101D9000D15C2068FFF79BFF608A401C80B26082A4
:101DA000A189884201DB00206082A08A401EA082B7
:101DB00024E040F226612068FFF7C9FEF0B1A08A56
:101DC00050B9002240F226612068FFF7EAFE206A3F
:101DD000A0B1206A804711E0638A6268D15C206804
:101DE000FFF775FF608A401C80B26082A18988423B
:101DF00001DB00206082A08A401EA08270BDF8B581
:101E000004460E461746002525E00CE002F074FD5E
:101E1000A08A009002F092FDA089BDF800108842CF
:101E200000DD01E000BFF1E700BF705D228A61685C
:101E3000885402F061FD208A401C80B22082A18972
:101E4000884201DB00202082A08A401CA08202F090
:101E500075FD681C85B2BD42D7DB012240F22771B7
:101E60002068FFF79EFEF8BD1F4820490860204803
:101E70004860204888604FF480608881C8810020D5
:101E800008824882C882088348838882C8610862C1
:101E9000486219481949086019484860194888601B
:101EA0004FF480608881C881002008824882C882FF
:101EB000088348838882C8610862486212481349CF
:101EC000086013484860134888604FF48060888138
:101ED000C881002008824882C8820883488388829B
:101EE000C86108624862704700440040C800002092
:101EF000F0000020F004002000480040F00800201E
:101F000018090020180D0020004C00401811002076
:101F1000401100204015002000BFFEE70FB4054B24
:101F200010B503A9044A029800F02CF810BC5DF823
:101F300014FB000019250008BC0000200FB41CB5DC
:101F40000A46521ECDE9000207A9054B6A460698CB
:101F500000F018F8009A002111701CBC5DF814FB09
:101F6000E723000802E008C8121F08C1002AFAD1BE
:101F700070477047002001E001C1121F002AFBD109
:101F8000704700002DE9FF4F8DB00F460546002633
:101F900006E025280BD0DDE90F1290476D1C761C5A
:101FA00028780028F5D111B03046BDE8F08F002424
:101FB000A246A1460122EC4900E0044315F8013F86
:101FC000203B02FA03F00842F7D128782A2810D0E3
:101FD0006FF02F022878A0F13001092914D80AEBFC
:101FE0008A0102EB410144F0020400EB010A6D1C7E
:101FF000F0E701CF5FEA000A03D544F40054CAF1C8
:10200000000A44F002046D1C28782E2817D115F818
:10201000010F44F004042A280ED06FF02F02287814
:10202000A0F1300109290AD809EB890102EB41012D
:1020300000EB01096D1CF2E757F8049B6D1C287832
:102040006C280FD006DC4C2817D068280DD06A28E1
:1020500014D104E0742810D07A280FD10DE044F494
:1020600000140AE044F4801401E044F44014697858
:10207000814202D104F580146D1C6D1C2A786E2AF1
:102080001FD00CDC632A31D004DC002A8BD0582A04
:1020900011D1A3E0642A68D0692A0CD165E0732AC3
:1020A0002ED004DC6F2A73D0702A04D19BE0752AED
:1020B0006FD0782A6ED01046DDE90F129047761C5B
:1020C00050E1C4F30250022806D0032809D00428A6
:1020D00001CF09D0066045E101CFF117C0E90061E9
:1020E00040E101CF06803DE106703BE117F8040BAB
:1020F0008DF8000000208DF80100EB46012003E080
:1021000057F804BB4FF0FF3061074FF0000102D4D5
:102110000DE008F10101884649450FDA8045F8DBFA
:102120001BF808100029F4D108E008F101018846E5
:102130008142FADB1BF808100029F6D1DDE90F23F4
:10214000AAEB08008146214600F036F9304400EB46
:10215000080604E0DDE90F121BF8010B9047B8F107
:102160000108F7D221464846F7E00A21C4F302539A
:102170004FF0000B0891022B04D001CFC117032BA5
:1021800009D00AE0FF1D27F00707F7E8020108E081
:1021900032E01FE020E000B2C117042B01D140B2B1
:1021A000C117031E71F1000307DA4FF0000CD0EBEA
:1021B0000C006CEB01012D2302E0230504D52B2339
:1021C0008DF82430012303E0E30701D02023F7E753
:1021D000984658E00A2110E010210EE010204FF040
:1021E000000B08900CE010214FF0000B44F00404A9
:1021F0004FF00809089103E008214FF0000B089107
:10220000C4F30253022B04D001CF0021032B06D0CC
:1022100006E0FF1D27F00707F7E8020103E080B2A0
:10222000042B00D1C0B24FF0000823072BD5702A31
:1022300007D0DDF820C08CF0100C5CEA0B0C05D048
:102240000EE040238DF82430012308E050EA01031A
:1022500006D030238DF824308DF8252002239846AF
:10226000DDF820C08CF0080C5CEA0B0C0BD150EAB6
:10227000010301D1630706D530238DF824304FF0D8
:102280000108A9F10109582A04D038A20B9208AA22
:102290000A920BE03AA2F9E75B46089AFEF72BF99F
:1022A0000B9B9B5C0A9A521E0A92137050EA010221
:1022B000F2D10A98ADEB000000F1200B600702D5C7
:1022C00024F4803401E04FF00109D94502DDA9EB87
:1022D0000B0000E0002000EB0B0141440890AAEB4A
:1022E000010AE00306D4DDE90F232146504600F041
:1022F00063F806444FF0000908E009A911F8090045
:10230000DDE90F12904709F10109761CC145F4DBA4
:10231000E0030CD5DDE90F232146504600F04CF8D0
:10232000064404E0DDE90F1230209047761C08993E
:10233000481E08900029F5DC08E00A980A99007800
:10234000491C0A91DDE90F129047761CBBF1000190
:10235000ABF1010BF1DC21465046DDE90F2300F023
:1023600019F806446D1C1BE6092801003031323390
:1023700034353637383961626364656600000000C1
:1023800030313233343536373839414243444546AB
:10239000000000002DE9F041044600251E461746C6
:1023A000880404D405E039462020B0476D1C641E23
:1023B000F9D52846BDE8F0812DE9F0410446002515
:1023C0001E469046C80301D5302700E02027880428
:1023D00004D505E041463846B0476D1C641EF9D56A
:1023E0002846BDE8F0814A68002A06D00A68531CD6
:1023F0000B6010704868401E4860704710B54FF47D
:102400004070FFF7EBF900F001F810BD10B5FFF7D1
:102410002BFDFEF7A5FAFEF78BF910BD00B50346BC
:102420001846FEF769F9024602B900BD0020D082C5
:102430001083508300BFF8E700B503461846FEF747
:102440005BF9024602B900BD0020108250829082E2
:1024500000BFF8E770B505460E462846FEF74CF972
:1024600004460CB9002070BD31462046FFF733FC0E
:10247000F9E72DE9F04105460E4617462846FEF7D6
:102480003BF904460CB9BDE8F081E06908B1E069A8
:1024900080473A4631462046FFF7B1FC00BFF2E7DD
:1024A00013B50446012201A92046FFF7E2FF1CBD37
:1024B000F8B501F073FCFEF741FBFEF7ABFB0546F8
:1024C00000BF03F08DF904464FF47A70B4FBF0F1CD
:1024D00000FB1146B4FBF0F7044B3246394604A02A
:1024E0000095FFF71BFD00BFF8BD0000595B000819
:1024F0005B253035642E253033642F495D3A202525
:10250000733A207265616420666C61736820696447
:102510002025780D0A00000070B504460D46E1B292
:102520000120FFF7BDFF204670BD000010B5002858
:1025300021D0114B0022001F196803E0814203D80B
:102540000A4649680029F9D152B11368841A9C429D
:1025500004D1006818441060104602E0506000E0AA
:10256000186039B102680B1A934203D10B681A4400
:1025700002604968416010BDC000002010B50446EB
:10258000102202492046FDF74DFE10BD7B5E002063
:102590002DE9F04188B05B480078C0EB0010C0EB3B
:1025A000C00059494518686C5849496C884206D1A1
:1025B000D5F849005549D1F8491088427ED000BF6E
:1025C00003F00EF906464FF47A70B6FBF0F100FB0B
:1025D0001167B6FBF0F84E4B3A4641464DA0FFF767
:1025E0009DFC00BF554800784649087053490A7859
:1025F0000978491C514B1970C2EB0211C1EBC101A2
:10260000414A881869224149FDF70CFE4B48007881
:102610000A2873D100245DE000BF03F0E1F806460C
:102620004FF47A70B6FBF0F100FB1167B6FBF0F8DF
:10263000C4EB0410C0EBC0003349084490F84300D9
:10264000C4EB0411C1EBC1012F4A114491F84210AF
:10265000C4EB0412C2EBC2022B4B1A4492F8412085
:10266000C4EB0413C3EBC303DFF89CC0634493F8CB
:102670004030CDE90432CDE90610C4EB0410C0EBC4
:10268000C0006146084490F83F00C4EB0411C1EB60
:10269000C10162461144B1F83D10C4EB0412C2EB13
:1026A000C20263461A44526CC4EB0413C3EBC30367
:1026B0006344D3F84930CDE9003200E01EE0CDE9B3
:1026C0000210134B3A4641461D48FFF727FC00BF56
:1026D000601CC4B20A2C9FDB00201849087000243B
:1026E0000AE0C4EB0411C1EBC101074A8818692153
:1026F000FDF7BFFD601CC4B20A2CF2DB08B0BDE8D8
:10270000F0810000AD0000209163002028630020CC
:102710002C5C00085B253035642E253033642F494E
:102720005D3A2025733A206E6577206770732063C9
:102730006F6D6D696E67210D0A000000AC0000200E
:10274000785D000810B500200949087000240AE0EF
:10275000C4EB0411C1EBC101064A88186921FDF7D9
:1027600088FD601CC4B20A2CF2DB00F005F810BD35
:10277000AC0000209163002008B501211020FFF774
:1027800047F84FF48050ADF8000010208DF803009A
:1027900003208DF8020069460948FDF7F9FF4FF460
:1027A00080510748FEF781F8022001F08BFB41F2CF
:1027B000883000F009F800200249087008BD0000C8
:1027C00000100140AE000020F0B589B0054600269B
:1027D000202101A8FDF74DFD2B4610A2202101A8C4
:1027E000FFF7ACFBC7B2012409E001A8005D2A286D
:1027F00000D106E001A8005D4640601CC4B2BC42A6
:10280000F3DB00BF2B460AA2202101A80096FFF7A8
:1028100095FB01A800F016F809B0F0BD24504D5406
:102820004B3232302C25642A31460D0A000000005C
:1028300024504D544B3232302C25642A25303258E6
:102840000D0A00002DE9F04104462046FDF72EFD5B
:1028500085B22A4621460320FFF70BFE00BF02F097
:10286000BFFF05464FF47A70B5FBF0F100FB11563F
:10287000B5FBF0F723463246394603A0FFF74EFB7F
:1028800000BFBDE8F08100005B253035642E2530A7
:1028900033642F495D3A202D3E2025730D0A000038
:1028A0000146302903DB392901DC01207047002073
:1028B000FCE770B5044640F225512068FFF747F960
:1028C000B8B12068FFF7FEF9C5B2E18AA0684554A7
:1028D000E08A401C80B2E082E189884201DB00206E
:1028E000E082608BE189884202DA608B401C608361
:1028F00000BF40F227712068FFF729F908B3A08ACA
:1029000060B9002240F227712068FFF74AF90122DE
:1029100040F226612068FFF744F933E0638A626879
:10292000D15C2068FFF7D3F9608A401C80B26082D6
:10293000A189884201DB00206082A08A401EA0821B
:1029400020E040F226612068FFF701F9D0B1A08AAB
:1029500030B9002240F226612068FFF722F911E029
:10296000638A6268D15C2068FFF7B1F9608A401C15
:1029700080B26082A189884201DB00206082A08A47
:10298000401EA08270BD00002DE9F0410220FFF73B
:1029900045FD1AA001F0BCF940F6B8311AA001F0CB
:1029A0006FF9A0B100BF02F01BFF05464FF47A702B
:1029B000B5FBF0F100FB1156B5FBF0F7134B3246B7
:1029C000394613A0FFF7AAFA00BF012413E000BFA5
:1029D00002F006FF05464FF47A70B5FBF0F100FBFC
:1029E0001156B5FBF0F7094B3246394611A0FFF7F7
:1029F00095FA00BF00242046BDE8F08141542B43E6
:102A0000474154543F0D0A004F4B0000E85B00085B
:102A10005B253035642E253033642F495D3A2025FF
:102A2000733A2063676174742073756363657373AD
:102A30000D0A00005B253035642E253033642F45A8
:102A40005D3A2025733A206367617474206661697A
:102A50006C65640D0A00000070B50220FFF7DEFC13
:102A600017A001F055F94FF4FA6118A001F008F928
:102A700090B100BF02F0B4FE04464FF47A70B4FB8C
:102A8000F0F100FB1145B4FBF0F6114B2A4631463C
:102A900010A0FFF743FA12E000BF02F0A1FE0446C7
:102AA0004FF47A70B4FBF0F100FB1145B4FBF0F683
:102AB000074B2A46314612A0FFF730FA00BF70BD1F
:102AC00041542B43474D520D0A0000004F4B00006C
:102AD000A35B00085B253035642E253033642F4915
:102AE0005D3A2025733A20636865636B20766572D2
:102AF00073696F6E20737563636573730D0A0000ED
:102B00005B253035642E253033642F455D3A202512
:102B1000733A20636865636B2076657273696F6EC4
:102B2000206661696C65640D0A0000002DE9F041C2
:102B300086B0142101A8FDF79CFB0F213148FDF759
:102B400098FB0220FFF76AFC2FA001F0E1F8C822F1
:102B500001A930A000F098FE90B100BF02F040FE45
:102B600006464FF47A70B6FBF0F100FB1167B6FB36
:102B7000F0F8294B3A46414628A0FFF7CFF915E077
:102B800000BF02F02DFE06464FF47A70B6FBF0F15E
:102B900000FB1167B6FBF0F81F4B3A4641462BA0ED
:102BA000FFF7BCF900BF06B0BDE8F081002408E0E3
:102BB00001A9085DFFF774FE08B1254603E0601C1B
:102BC000C4B2142CF4DB00BF052C05DA01A84119AE
:102BD0000F220C48FDF726FB00BF02F001FE06465F
:102BE0004FF47A70B6FBF0F100FB1167B6FBF0F81A
:102BF000044B3A46414621A0FFF790F900BF00BFC1
:102C0000D1E700006C5E002041542B4347534E0D2A
:102C10000A0000004F4B0000CA5B00085B253035FE
:102C2000642E253033642F495D3A2025733A2063A2
:102C30006865636B2064657669636520696D6569A5
:102C400020737563636573730D0A00005B2530356F
:102C5000642E253033642F455D3A2025733A206376
:102C60006865636B2064657669636520696D656975
:102C7000206661696C65640D0A0000005B253035D3
:102C8000642E253033642F495D3A20696D65693AB9
:102C90002025730D0A0000002DE9F043A3B004467F
:102CA0000D460220FFF7BAFB59A001F031F84FF4AE
:102CB000FA515EA000F0E4FFA0B100BF02F090FD69
:102CC00007464FF47A70B7FBF0F100FB1178B7FBC1
:102CD000F0F9574B4246494656A0FFF71FF900BF8F
:102CE000012614E000BF02F07BFD07464FF47A7026
:102CF000B7FBF0F100FB1178B7FBF0F94C4B424603
:102D0000494657A0FFF70AF900BF00267BE00220E2
:102D1000FFF784FB0220FFF78FFB5CA000F0F8FFB9
:102D200041F2883141A000F0ABFFA0B100BF02F03A
:102D300057FD07464FF47A70B7FBF0F100FB1178AE
:102D4000B7FBF0F93A4B4246494654A0FFF7E6F884
:102D500000BF012614E000BF02F042FD07464FF419
:102D60007A70B7FBF0F100FB1178B7FBF0F9304B4C
:102D70004246494653A0FFF7D1F800BF002642E083
:102D8000802103A8FDF775FA234659A24FF480610C
:102D900003A80095FFF7D2F803A800F0B9FF42F2AC
:102DA000107159A000F06CFFB0B100BF02F018FD27
:102DB00007464FF47A70B7FBF0F100FB1178B7FBD0
:102DC000F0F91B4B4246494652A0CDE90045FFF7BA
:102DD000A5F800BF012615E000BF02F001FD07467F
:102DE0004FF47A70B7FBF0F100FB1179B7FBF0F804
:102DF0000F4B4A46414652A0CDE90045FFF78EF8F9
:102E000000BF002600BF304623B0BDE8F0830000BD
:102E100041542B5A49504346473D756E696D326D9A
:102E20002E6E6A6D326D61706E0D0A004F4B0000A0
:102E30001F5C00085B253035642E253033642F4934
:102E40005D3A2025733A2072656769737465722054
:102E50006770727320737563636573730D0A000086
:102E60005B253035642E253033642F455D3A2025AF
:102E7000733A207265676973746572206770727344
:102E8000206661696C65640D0A00000041542B5A8C
:102E9000495043414C4C3D310D0A00005B25303513
:102EA000642E253033642F495D3A2025733A207A09
:102EB000697063616C6C20737563636573730D0A6D
:102EC000000000005B253035642E253033642F452B
:102ED0005D3A2025733A207A697063616C6C2067D3
:102EE000707273206661696C65640D0A00000000F1
:102EF00041542B5A49504F50454E3D322C302C25D1
:102F0000732C25640D0A0000434F4E4E4543542058
:102F10004F4B00005B253035642E253033642F493C
:102F20005D3A2025733A20636F6E6E6563742025C9
:102F3000733A256420737563636573730D0A00002B
:102F40005B253035642E253033642F455D3A2025CE
:102F5000733A20636F6E6E6563742025733A25643F
:102F6000206661696C65640D0A0000002DE9F0417E
:102F70000220FFF753FA1AA000F0CAFEC8211BA0D6
:102F800000F07EFEA0B100BF02F02AFC05464FF41F
:102F90007A70B5FBF0F100FB1156B5FBF0F7144B5E
:102FA0003246394613A0FEF7B9FF00BF012413E0F3
:102FB00000BF02F015FC05464FF47A70B5FBF0F146
:102FC00000FB1156B5FBF0F7094B3246394613A00A
:102FD000FEF7A4FF00BF00242046BDE8F0810000FA
:102FE00041542B4350494E3F0D0A00004F4B000007
:102FF000D45B00085B253035642E253033642F49BF
:103000005D3A2025733A20636865636B2073696DB0
:1030100020737563636573730D0A00005B2530359B
:10302000642E253033642F455D3A2025733A2063A2
:103030006865636B2073696D206661696C65640DFA
:103040000A0000002DE9F04788B020216846FDF70E
:1030500010F9002660E000F0B3F8012000F032FF24
:103060000220FFF7DBF930A000F052FE4FF47A7235
:10307000694630A000F008FCA8B100BF02F0B0FB28
:1030800007464FF47A70B7FBF0F100FB1179B7FBFC
:10309000F0FA294B4A46514628A0FEF73FFF00BFF1
:1030A0004FF0010814E000BF02F09AFB07464FF40E
:1030B0007A70B7FBF0F100FB1179B7FBF0FA1E4B09
:1030C0004A46514629A0FEF729FF00BF4FF00008ED
:1030D00032A16846FDF7D8F8054668783038C4B2A2
:1030E00000BF02F07DFB07464FF47A70B7FBF0F1AA
:1030F00000FB1179B7FBF0FA23464A46514628A057
:10310000FEF70CFF00BF012C01D0052C02D14FF0BF
:10311000010803E0701CC6B20A2E9CDB00BF4046CB
:1031200008B0BDE8F087000041542B435245473FAB
:103130000D0A00004F4B0000DE5B00085B253035B8
:10314000642E253033642F495D3A2025733A20726E
:1031500065676973746572206E6574776F726B2032
:10316000737563636573730D0A0000005B2530356A
:10317000642E253033642F455D3A2025733A207242
:1031800065676973746572206E6574776F726B2002
:103190006661696C65640D0A000000002C00000087
:1031A0005B253035642E253033642F495D3A20731A
:1031B0007461747573203D2025640D0A00000000C1
:1031C00070B50220FFF72AF917A000F0A1FDC82171
:1031D00018A000F055FD90B100BF02F001FB0446BD
:1031E0004FF47A70B4FBF0F100FB1145B4FBF0F63C
:1031F000114B2A46314611A0FEF790FE12E000BFA7
:1032000002F0EEFA04464FF47A70B4FBF0F100FBE2
:103210001145B4FBF0F6084B2A46314611A0FEF7E3
:103220007DFE00BF70BD000041542B4353510D0A79
:10323000000000004F4B00009A5B00085B25303512
:10324000642E253033642F495D3A2025733A20637C
:103250006865636B20637371207375636365737353
:103260000D0A00005B253035642E253033642F4570
:103270005D3A2025733A20636865636B2063737140
:10328000206661696C65640D0A0000002DE9F04755
:1032900080468946002500F075FCFFF7DDFBFFF74F
:1032A00045FCFFF763FE00F071F8FFF7CBFEFFF778
:1032B0006BFB40F25C7117A0FFF7EEFC98B100BF0A
:1032C00002F08EFA04464FF47A70B4FBF0F100FB82
:1032D0001146B4FBF0F73246394612A0FEF71EFE47
:1032E00000BF012512E000BF02F07AFA04464FF455
:1032F0007A70B4FBF0F100FB1146B4FBF0F73246F4
:10330000394616A0FEF70AFE00BF00252846BDE894
:10331000F08700003133392E3232342E3232372EDC
:10332000313734005B253035642E253033642F4926
:103330005D3A20636F6E6E65637420736F636B65B7
:103340007420736572766572207375636365737339
:1033500066756C6C7921210D0A0000005B25303503
:10336000642E253033642F455D3A20636F6E6E65A1
:10337000637420736F636B65742073657276657216
:10338000206661696C656421210D0A002DE9F04118
:103390008CB0142102A8FCF76CFF0F214B48FCF7FE
:1033A00068FF0220FFF73AF80220FFF745F848A02F
:1033B00000F0AEFC4FF47A7202A948A000F064FA63
:1033C00090B100BF02F00CFA06464FF47A70B6FBDB
:1033D000F0F100FB1167B6FBF0F8414B3A4641466D
:1033E00040A0FEF79BFD12E000BF02F0F9F906468F
:1033F0004FF47A70B6FBF0F100FB1167B6FBF0F802
:10340000374B3A46414643A0FEF788FD00BF00BF58
:1034100002F0E6F906464FF47A70B6FBF0F100FBD5
:103420001167B6FBF0F802AB3A46414645A0FEF7FD
:1034300075FD00BF00240DE002A8015D48A0FEF765
:103440006DFD02A9085DFFF72BFA08B1254603E0E0
:10345000601CC4B2282CEFDB00BF1FA0FEF75EFD8E
:1034600000BF02F0BDF906464FF47A70B6FBF0F1EA
:1034700000FB1167B6FBF0F8194B3A4641463AA0FB
:103480000094FEF74BFD00BF142C08DA02A8411986
:103490000F220E48FCF7C6FE00200C49C87300BF7F
:1034A00002F09EF906464FF47A70B6FBF0F100FB8D
:1034B0001167B6FBF0F8054B3A46414631A0FEF7DE
:1034C0002DFD00BF0CB0BDE8F08100007B5E002048
:1034D00041542B49434349440D0A00004F4B00001F
:1034E000BF5B00085B253035642E253033642F49DF
:1034F0005D3A2025733A20636865636B20646576C6
:1035000069636520696363696420737563636573C8
:10351000730D0A005B253035642E253033642F454A
:103520005D3A2025733A20636865636B2064657695
:10353000696365206963636964206661696C6564B9
:103540000D0A00005B253035642E253033642F4989
:103550005D3A206275663A2025730D0A000000006E
:1035600025303278200000005B253035642E253070
:1035700033642F495D3A2025733A2069203D202588
:10358000640D0A005B253035642E253033642F49E5
:103590005D3A2069636369643A2025730D0A00006F
:1035A000F8B501210820FEF733F90120ADF800003D
:1035B00010208DF8030003208DF80200694618489A
:1035C000FDF7E6F801211020FEF722F94FF4004044
:1035D000ADF8000010208DF8030003208DF80200E4
:1035E00069461048FDF7D4F8012001F05DFE0E4950
:1035F00008600846006890B900BF02F0F1F8044680
:103600004FF47A70B4FBF0F100FB1145B4FBF0F617
:10361000064B2A46314606A0FEF780FC00BFF8BDE7
:10362000000C0140001001409C000020775B000866
:103630005B253035642E253033642F455D3A2025D7
:10364000733A206661696C656420746F20637265EB
:10365000617465206D7574657820666F72206C32B8
:1036600030360D0A00000000014800787047000065
:10367000A000002010B500235A1E19460248006819
:1036800001F069FE10BD00009C00002070B500BF75
:1036900002F0A6F804464FF47A70B4FBF0F100FB98
:1036A0001145B4FBF0F6094B2A46314608A0FEF757
:1036B00035FC00BF01210B48FDF7F7F8022000F0B0
:1036C00001FC01210748FDF7EEF870BD8C5B000896
:1036D0005B253035642E253033642F495D3A202533
:1036E000730D0A00000C01402DE9F041002431E087
:1036F0003EA000F00DFB4FF47A713EA000F0C0FA3E
:10370000A0B100BF02F06CF805464FF47A70B5FB2B
:10371000F0F100FB1156B5FBF0F73246394636A002
:10372000FEF7FCFB00BF0120BDE8F08100BF02F006
:1037300057F805464FF47A70B5FBF0F100FB1156CF
:10374000B5FBF0F73246394634A0FEF7E7FB00BF81
:10375000601CC4B2012CCBDB00F00EF9012138480B
:10376000FDF7A3F8022000F0ADFB01213448FDF77E
:103770009AF80A2000F0A6FB0220FEF74FFE002474
:103780001EE01AA000F0C4FA4FF47A7119A000F0FC
:1037900077FA98B100BF02F023F805464FF47A702B
:1037A000B5FBF0F100FB1156B5FBF0F73246394698
:1037B00024A0FEF7B3FB00BF0120B5E7601CC4B234
:1037C000052CDEDB00BF02F00BF805464FF47A70E3
:1037D000B5FBF0F100FB1156B5FBF0F73246394668
:1037E00021A0FEF79BFB00BF00209DE74154453020
:1037F0000D0A00004F4B00005B253035642E25304C
:1038000033642F495D3A20416C72656164792070A0
:103810006F7765726F6E210D0A0000005B253035F1
:10382000642E253033642F455D3A20506F776572E2
:10383000206F6E206661696C65640D0A00000000EF
:10384000000C01405B253035642E253033642F4950
:103850005D3A20706F7765726F6E20737563636574
:1038600073730D0A000000005B253035642E25308F
:1038700033642F455D3A20706F7765726F6E2066F6
:1038800061696C65640D0A002DE9F0439DB08146C5
:103890000E4617460024002502974846FCF706FD11
:1038A0000546684601F026FC00BF1CA90220FEF771
:1038B000D1FDE0B19DF8701016A0FEF72FFB9DF82A
:1038C00070202046611C8CB203A90A54AC420ED36E
:1038D000601B03AA81182A464846FCF7FCFC30B955
:1038E000A046224603A93046FCF79CFC05E002A94D
:1038F000684601F0A1FE0028D7D000BF00BF1CA978
:103900000220FEF7A7FD0028F9D140461DB0BDE812
:10391000F083000025630000F0B59DB007460D461A
:10392000164600240296FFF7A5FE684601F0E2FB6A
:1039300000BF1CA90220FEF78DFD48B19DF8702044
:103940002046611C8CB203A90A54AC4200DB05E09E
:1039500002A9684601F070FE0028EAD000BF002CE2
:1039600004DD224603A93846FCF75CFC00F07CF934
:1039700020461DB0F0BD000070B500BF01F030FF63
:1039800004464FF47A70B4FBF0F100FB1145B4FB30
:10399000F0F6194B2A46314618A0FEF7BFFA00BFD1
:1039A0004FF400411B48FCF780FF022000F08AFA28
:1039B0004FF400411748FCF776FF012000F082FA2F
:1039C0004FF400411348FCF770FF022000F07AFA30
:1039D00000BF01F005FF04464FF47A70B4FBF0F12C
:1039E00000FB1145B4FBF0F6034B2A4631460AA012
:1039F000FEF794FA00BF70BD815B00085B2530358F
:103A0000642E253033642F495D3A2025733A2045D2
:103A10000D0A0000001001405B253035642E253072
:103A200033642F495D3A2025733A20580D0A00006F
:103A30002DE9FE4F06460C46904600200290814636
:103A400000BF01F0CDFE82464FF47A70BAFBF0F170
:103A500000FB11ABBAFBF0F0314B5A460146CDE901
:103A6000006030A0FEF75AFA00BFFFF703FE6100C6
:103A700001F10D0000F0E0F90746600000F10D01D2
:103A80003846FCF7F6FB2DA24FF480613846FEF76E
:103A900055FA1FFA80F900250CE0735D07EB090069
:103AA0002AA24FF48061FEF749FA48441FFA80F9D0
:103AB000681C85B2A542F0DB0220FEF7AFFC0220B5
:103AC000FEF7BAFC384600F023F922A000F020F9F6
:103AD0001FFA88F120A000F0D3F810B10120029065
:103AE00015E000BF01F07CFE82464FF47A70BAFB0D
:103AF000F0F100FB11ABBAFBF0F0094B5A4601465E
:103B0000019017A0FEF70AFA00BF00200290384685
:103B1000FEF70CFD002700F0A7F80298BDE8FE8F25
:103B2000155C00085B253035642E253033642F4941
:103B30005D3A2025733A2025730D0A0041542B5A13
:103B4000495053454E443D322C0000002530327818
:103B5000000000000D0A000053454E44204F4B006A
:103B60005B253035642E253033642F455D3A2025A2
:103B7000733A2073656E64206661696C65640D0A32
:103B80000000000070B50220FEF748FC1AA000F00B
:103B9000BFF84FF47A711CA000F072F890B100BF2A
:103BA00001F01EFE04464FF47A70B4FBF0F100FB06
:103BB0001145B4FBF0F6154B2A46314614A0FEF72A
:103BC000ADF912E000BF01F00BFE04464FF47A702D
:103BD000B4FBF0F100FB1145B4FBF0F60B4B2A46A9
:103BE000314616A0FEF79AF900BF0220FEF724FC2A
:103BF0000220FEF713FC70BD41542B4950523D3159
:103C000031353230300D0A004F4B0000AD5B0008FB
:103C10005B253035642E253033642F495D3A2025ED
:103C2000733A2073657420626175647261746520F3
:103C3000737563636573730D0A0000005B2530358F
:103C4000642E253033642F455D3A2025733A207366
:103C50006574206261756472617465206661696C67
:103C600065640D0A0000000010B500231A461946CD
:103C70000248006801F04BFC10BD00009C000020D1
:103C80002DE9F0419EB005460E4600240027A046CF
:103C900003962846FCF70AFB074601A801F02AFA1A
:103CA00000BF1DA90220FEF7D5FB20B39DF87410BC
:103CB00016A0FEF733F99DF874000A280ED1002CE7
:103CC0000ADD3A46294604A8FCF705FB10B94FF077
:103CD000010816E000240EE000240CE0642C0AD257
:103CE0009DF87400202806DB9DF874202046611C96
:103CF0008CB204A90A5403A901A801F09DFC002874
:103D0000CFD000BF40461EB0BDE8F0812563000063
:103D10002DE9F04104460220FEF780FB2046FCF727
:103D2000C5FA85B22A4621460220FEF7A2FBFFF71C
:103D30009BFCA0B900F028F800BF01F051FD05463A
:103D40004FF47A70B5FBF0F100FB1156B5FBF0F7BC
:103D500023463246394606A0FEF7E0F806E000F0BA
:103D60004BF8322000F0B7F800F046F8BDE8F081DB
:103D70005B253035642E253033642F495D3A202D84
:103D80003E2025730D0A000010B500F02FF86420C6
:103D900000F0A1F800F024F810BD000008B50121E2
:103DA0001020FDF735FD00F01BF803208DF8020010
:103DB00010208DF803004020ADF80000694605484A
:103DC000FCF7E6FC01200449086064200349086010
:103DD00008BD000000100140A4000020A800002041
:103DE000402001490861704700100140402001490E
:103DF00048617047001001400348C06880F04000EF
:103E00000149C8607047000000100140012080F3A4
:103E1000108800BFFEF7F2FA0548016805A0FEF71A
:103E20007DF8FCF703FC01F077F900BFFEE7000026
:103E30000000002025730000F0B50B30154D20F078
:103E400007010024144A0FE003688B420BD38B4216
:103E500005D95E1A43184768C3E9006700E0436864
:103E6000136002C004E0021D10680028ECD1204657
:103E7000002802D1286808B10020F0BD064A074892
:103E80001060074A121A22F00702C0E9002401203C
:103E90002860D7E7C4000020C0000020D4690020BB
:103EA000D06B002070B505460C46A1B241F28832B5
:103EB0002846FFF7BDFD012801D1002070BD4FF05D
:103EC000FF30FBE710B504464FF47A7104FB01F0B4
:103ED00000F09CFD10BD10B50446204600F096FD94
:103EE00010BD00002DE9F0438DB0054647A00068E5
:103EF0000C900026002400BF01F072FC07464FF42E
:103F00007A70B7FBF0F100FB1178B7FBF0F905F11F
:103F1000900005F110012B464246CDE900104946BC
:103F20003BA0FDF7FBFF00BF0CA905F11000FCF75B
:103F3000DFF906463FE000BF01F052FC07464FF4B0
:103F40007A70B7FBF0F100FB1178B7FBF0F923466C
:103F5000424649463AA00096FDF7E0FF00BF54B93B
:103F6000002009900A900B9033463FA20A2109A82D
:103F7000FDF7E4FF18E0012C0AD10020069007901D
:103F80000890334638A20A2106A8FDF7D7FF0BE0B8
:103F9000022C09D10020039004900590334632A2F0
:103FA0000A2103A8FDF7CAFF601CC4B20CA90020B7
:103FB000FCF79EF90646002EBDD1032C22D12BA181
:103FC00009A8FCF77AF9E8B92AA106A8FCF775F95F
:103FD000C0B929A103A8FCF770F998B900BF01F096
:103FE000FFFB07464FF47A70B7FBF0F100FB117846
:103FF000B7FBF0F94246494621A0FDF78FFF00BF0D
:1040000000F038FB0DB0BDE8F08300002F00000089
:104010005B253035642E253033642F495D3A2067A7
:104020006574206D6573736167652066726F6D20BE
:1040300025733A202573202D2025730D0A000000DA
:104040005B253035642E253033642F495D3A206975
:104050006E6465783A2025642C20726573756C74E3
:104060003A2025730D0A0000257300004354524C7A
:10407000000000004F4244005245534554000000E8
:104080005B253035642E253033642F495D3A20524C
:104090004553455421210D0A0000000010B5044687
:1040A0000E48006844600E480068844207D20B48FE
:1040B0000168091D0B48006800F0F8FB0CE0074898
:1040C0000168091D0848006800F0F0FB0748006817
:1040D000844201D20548046010BD00004000002069
:1040E0005400002048000020440000207000002000
:1040F0002DE9F04106460F461FB9B00000F010FA56
:1041000000E03846054655B1542000F009FA04464F
:104110000CB1256304E0284600F026FC00E00024F2
:104120002046BDE8F081000070B523E001F024F8DE
:104130001348006808B9012000E00020054601F09E
:104140008FFCBDB900F0D8FB0D48C068C468201DC5
:1041500000F088FB0B480068401E0A4908600A48C6
:104160000068401E0849086000F0E8FB204600F0A7
:1041700062F800BF044800680028D7D170BD000075
:10418000441A0020500000204C00002070B5044666
:104190000D46206C70B1216CE0680844E0606168F5
:1041A000E068884201D32068E0602846226CE1681C
:1041B000FCF738F870BD2DE9F04104460E4615466F
:1041C0000027206C40B9206878BB606801F0ACFB28
:1041D00007460020606028E07DB93146226CA06867
:1041E000FCF720F8216CA0680844A060D4E9011015
:1041F00088421AD32068A06017E03146226CE0683C
:10420000FCF710F8216CE068401AE0602168E06873
:10421000884203D2216C6068401AE060022D04D10C
:10422000A06B10B1A06B401EA063A06B401CA063EC
:104230003846BDE8F08110B50446206B00F094FBD1
:10424000204600F091FB10BD30B54FF4884317486D
:1042500000F007042CB1C01D20F00700134C041B14
:104260001B1B0246124C22600024114D6C60D018BA
:10427000083820F007000F4C206000240D4D2D68F9
:104280006C600C4D2D682C601146441A4C60094C32
:1042900024680C60084D4C682C60084D4C682C60FC
:1042A0004FF00044064D2C6030BD00006C1A002019
:1042B000840000208C00002094000020900000204A
:1042C0009800002000BFFFF72FFF03480068012877
:1042D000F9D900F08FFBF6E7401900202DE9F047EF
:1042E00004460F4615469946DDF82080002607E073
:1042F000B95D04F134008155B85D00B902E0761C67
:10430000102EF5D300BF0021432001550A2D00D304
:104310000925E56265640020A064201D00F0C3FA51
:1043200004F1180000F0BFFA2461C5F10A00A06191
:1043300064620020E06484F85000BDE8F08700006B
:1043400010B5002407E004EB84010F4A02EB810062
:1043500000F09CFA641C0A2CF5D30C4800F096FA85
:104360000B4800F093FA0B4800F090FA0A4800F06E
:104370008DFA0A4800F08AFA04480949086004489E
:104380000849086010BD000040190020081A0020EC
:104390001C1A0020301A0020441A0020581A00204D
:1043A000440000204800002010B50146164800E0F7
:1043B000006803688B42FBD30246436813448B4278
:1043C00004D143684C682344436001460A464B6865
:1043D00013440468A34211D10C4C03682468A3421F
:1043E00008D04B680468646823444B6003681B680A
:1043F0000B6005E0054B1B680B6001E003680B6078
:10440000884200D0016010BD840000208C00002094
:1044100070B5054600F070FAA86B08B9012400E0F9
:10442000002400F08BFA204670BD70B5054600F000
:1044300063FAA86BE96B884201D1012400E00024F3
:1044400000F07CFA204670BD0A490968096809B97C
:10445000012100E0002121B14FF0FF31064A116037
:1044600006E004490968C968C868034A41681160E0
:1044700070470000440000207000002007480068DA
:10448000401C08B9012000E0002018B9FBF79EFE8F
:1044900000BFFEE7FBF79AFE00BFFEE778000020B2
:1044A00010B5044600F028FA11E0606A08B901204E
:1044B00000E0002038B904F1240001F08BFA18B1B3
:1044C00000F0B8FB00E005E0A06C401EA064A06C0A
:1044D0000028EADC00BF4FF0FF30A06400F02EFAA5
:1044E00000F00AFA11E0206908B9012000E000207C
:1044F00050B904F1100001F06DFA08B100F09AFB18
:10450000606C401E606400E002E0606C0028EADC41
:1045100000BF4FF0FF30606400F010FA10BD0000E3
:104520002DE9F04104464FF0000800F025FE3C481C
:10453000006808B9FFF788FE3A4800682040002864
:104540005DD19CB1083404F0070078B104F0070095
:10455000C0F10800044404F0070008B9012000E09D
:10456000002018B9FBF732FE00BFFEE7002C46D052
:104570002D480068844242D82C4E3046056801E040
:104580002E462D686868A04202D228680028F7D11C
:1045900023480068854232D0306800F10808286856
:1045A00030606868001B102812D92F1907F0070027
:1045B00008B9012000E0002018B9FBF707FE00BF92
:1045C000FEE76868001B78606C603846FFF7ECFE19
:1045D000154968680968081A1349086008460068A0
:1045E00013490968884203D20F48006810490860DF
:1045F0000C4968680968084368600020286001F079
:104600002FFA08F0070008B9012000E0002018B9CF
:10461000FBF7DCFD00BFFEE74046BDE8F08100008F
:104620008C000020980000209000002084000020D2
:10463000940000200648006830B10549096801F17E
:104640004800896C491C01600148006870470000FF
:1046500040000020001F4FF080730360001F0160C6
:10466000001F034B036014380260203870470000BD
:104670007D44000810B5FBF7B7FD10BD2DE9FC5FC8
:1046800007460C462FA00068019000260025A94689
:1046900001A93846FBF72CFE064643E000BF01F0B7
:1046A0009FF880464FF47A70B8FBF0F100FB118A56
:1046B000B8FBF0FB2B465246594623A00096FDF767
:1046C0002DFC00BF55B910212046FBF7D2FDB31CCD
:1046D00027A210212046FDF731FC1CE0012D0CD152
:1046E000802104F11000FBF7C4FD334620A2802195
:1046F00004F11000FDF722FC0DE0022D0BD180210A
:1047000004F19000FBF7B5FD334619A2802104F1B6
:104710009000FDF713FC681CC5B201A90020FBF74F
:10472000E7FD0646002EB9D1042D07D138783C2884
:1047300004D178783C2801D14FF001094846BDE802
:10474000FC9F00002C0000005B253035642E2530D6
:1047500033642F495D3A20696E6465783A20256498
:104760002C20726573756C743A2025730D0A000055
:10477000257300002DE9F04FA5B007468846914605
:10478000802105A8FBF775FD0024002004908246D7
:104790003B4620A2802105A8CDE90089FDF7CEFB8C
:1047A0000446002604E005A8805D80EA0A0A761C1B
:1047B000A642F8DB05A90819534619A28021FDF786
:1047C000BDFB0444214605A8FFF76CFB0546002D00
:1047D0001DDA00BF01F004F883464FF47A70BBFB8A
:1047E000F0F100FB11B003904FF47A70BBFBF0F0D6
:1047F000029004980C4BCDE900400CA0DDE90212B8
:10480000FDF78CFB00BF002025B0BDE8F08F012034
:10481000FAE700003E3E25732C25732C25732C00EF
:10482000253032780A000000555C00085B253035E1
:10483000642E253033642F455D3A2025733A207766
:10484000726974652025642062797465732C206117
:10485000637475616C2077726974652025640D0A34
:104860000000000001460A69D1E901309860D1E9F1
:10487000010358605068884201D188685060002068
:1048800008611068401E10601068704700F1080150
:1048900041604FF0FF31816000F10801C1600161AA
:1048A00000210160704700210161704710B5024688
:1048B0000B685C1C0CB9106907E002F1080000E00D
:1048C0004068446824689C42FAD944684C604C684B
:1048D000A160886041600A611468641C146010BDA6
:1048E00042684A6093688B60936859609160086180
:1048F00003685B1C0360704710B5FBF767FC0D484D
:104900000068401C0B490860BFF34F8FBFF36F8FE7
:104910000846006801280BD107480068C0B208B9F2
:10492000012000E0002018B9FBF750FC00BFFEE7B3
:1049300010BD00007800002004ED00E010B509482B
:10494000006818B9FBF742FC00BFFEE705480068A5
:10495000401E044908600846006810B90020FBF7B3
:104960003CFC10BD7800002070B506463546002E90
:1049700031D0083D2C46184960680968084008B1E4
:10498000012000E0002018B9FBF720FC00BFFEE783
:10499000206808B9012000E0002018B9FBF716FCD8
:1049A00000BFFEE70C4960680968084098B12068BC
:1049B00088B90949606809688843606000F0DCFBD9
:1049C0000649606809680844044908602046FFF702
:1049D000EBFC01F045F870BD98000020900000202D
:1049E00003484FF0E021486107200861704700004C
:1049F0003F1901004FF0805003490860BFF34F8F0B
:104A0000BFF36F8F7047000004ED00E070B50446FF
:104A1000002634B31548006808B9012000E00020E2
:104A200018B9FBF7D3FB00BFFEE700F0A5FB104869
:104A3000006805190F480068001DFFF713FF50B903
:104A40000C48006890F82C10012088400A49096839
:104A50008143094801602846FFF720FB01F000F878
:104A600006460EB9FFF7C6FF70BD000074000020B7
:104A7000540000204000002058000020C2B0002454
:104A80004FF4807101A8FBF7F4FB69211648FBF78E
:104A9000F0FBFDF757FE25E01420FFF71CFA1BE0A2
:104AA0009DF8040101A90855022C13DB01A8005D43
:104AB0000A280FD1601E085C0D280BD10A48FBF7AD
:104AC000F6FEFDF765FD4FF4807101A8FBF7D1FB01
:104AD000002401E0601CC4B241A90320FDF7BAFC28
:104AE0000028DDD1D8E700002863002000BF00F0D7
:104AF00077FE04464FF47A70B4FBF0F100FB1145E9
:104B0000B4FBF0F62B4B2A4631462BA0FDF706FAF4
:104B100000BFFEF745FD00202D49087041E0FEF77B
:104B2000E3FD012812D100BF00F05AFE04464FF405
:104B30007A70B4FBF0F100FB1145B4FBF0F61D4BAD
:104B40002A46314623A0FDF7E9F913E000BF00F043
:104B500047FE04464FF47A70B4FBF0F100FB1145B8
:104B6000B4FBF0F6134B2A46314625A0FDF7D6F9E3
:104B700000BF16E040F25C712AA0FEF787FB012817
:104B800005D1FFF733F901201149087008E0FFF75C
:104B900027F900200E490870FEF778FDFEF7ECFEBD
:104BA00000BF0B4800780028B9D002E00A20FFF7C8
:104BB00089F9FBE7665B00085B253035642E2530FC
:104BC00033642F495D3A2025733A20450D0A0000D1
:104BD000A00000205B253035642E253033642F493A
:104BE0005D3A2025733A20706F7765726F6E20737F
:104BF00075636365737366756C6C790D0A000000EC
:104C00005B253035642E253033642F455D3A2025F1
:104C1000733A20706F7765726F6E206661696C659C
:104C2000640D0A003133392E3232342E3232372EAF
:104C300031373400012001490860704764000020CA
:104C400086B000240020059000265A4801901021CB
:104C50005948FBF70EFB4FF480715848FBF709FBEE
:104C6000A6E0FEF701FD00287ED05348FDF786FC44
:104C7000059830B952A253A14F48FFF77BFD0120A0
:104C80000590C4F5807291B24C4A10194FF4FA6243
:104C9000FEF742FEC7B23C44601E4849085C0A2841
:104CA00048D1002501E0681C85B24448405D3C289D
:104CB000F9D1424828444549086000BF00F090FD02
:104CC00081464FF47A70B9FBF0F100FB119AB9FB01
:104CD000F0FB3E485246594603683DA0FDF71EF9D9
:104CE00000BF3A4801990068FFF7C8FC01281BD1B2
:104CF00000230A2201A93D48006800F008FC0128B1
:104D000012D000BF00F06CFD81464FF47A70B9FB01
:104D1000F0F100FB119AB9FBF0FB354B52465946B6
:104D200034A0FDF7FBF800BF00244FF48071234846
:104D3000FBF79FFA3220FFF7CEF80A20B6FBF0F11E
:104D400000FB1160C0B90A20B6FBF0F94B4635A252
:104D5000014602A8FDF7F2F81FFA80F8002002A928
:104D600001F8080002AA00E00DE02FA11248FFF7A9
:104D700001FD08B9FFF77EFC3046761CB0F57A7F5E
:104D800016D3002614E000BF00F02AFD81464FF440
:104D90007A70B9FBF0F100FB119AB9FBF0FB5246B7
:104DA000594623A0FDF7BAF800BF0420FFF78AF8A0
:104DB00057E70000AB670020BB680020CB680020ED
:104DC000000000004C4F47494E000000B400002096
:104DD0005B253035642E253033642F495D3A2072CF
:104DE0006563763A2025730D0A000000B0000020AC
:104DF000355C00085B253035642E253033642F4543
:104E00005D3A2025733A2073656E64206D65737377
:104E1000616765207175657565206661696C65649B
:104E20000D0A00002564000050494E4700000000B4
:104E30005B253035642E253033642F495D3A20637D
:104E40006F6E6E656374696E672E2E2E0D0A0000FC
:104E500070B505460C461DB9FBF7B8F900BFFEE773
:104E60001348016818312846FFF720FD10480068F4
:104E7000001DFFF7F7FC50B90D48006890F82C10A2
:104E8000012088400B49096881430A480160601C81
:104E900030B907480168091D0748FFF721FD05E003
:104EA0000648006806193046FFF7F8F870BD0000A4
:104EB0004000002058000020581A00205400002014
:104EC00070B505462C46002D4BD02649E06A09688E
:104ED000C96A884245D2A06900F0004028B921483B
:104EE0000068C06AC0F10A00A061E16A01EB8101BB
:104EF0001D4A02EB81016069884201D1012000E076
:104F0000002050B3201DFFF7ADFC78B9E06A00EB3C
:104F10008000154951F8200040B994F82C10012068
:104F20008840124909688143104801600D480068B3
:104F3000C06AE06294F82C10012088400B4909688F
:104F400008430A490860E16A01EB8101064A02EB65
:104F50008100211DFFF7C4FC03E002480068C06A1D
:104F6000E06270BD40000020401900205800002081
:104F700008B500BF00F034FC05464FF47A70B5FB6D
:104F8000F0F100FB1156B5FBF0F72D4B32463946D8
:104F90002CA0FCF7C3FF00BF00220421022000F078
:104FA000A7F92E4908600846006890B900BF00F0D4
:104FB00017FC05464FF47A70B5FBF0F100FB115673
:104FC000B5FBF0F71E4B3246394625A0FCF7A6FF8D
:104FD00000BF33E000BF00F003FC05464FF47A70D9
:104FE000B5FBF0F100FB1156B5FBF0F7144B324660
:104FF000394628A0FCF792FF00BF00235A1E6946DD
:105000001648006800F0A7F90446012C03D1009867
:10501000FEF768FF12E000BF00F0E2FB05464FF428
:105020007A70B5FBF0F100FB1156B5FBF0F7044BBD
:105030003246394621A0FCF771FF00BFCAE70000E5
:10504000485B00085B253035642E253033642F49DA
:105050005D3A2025733A20450D0A0000B00000207B
:105060005B253035642E253033642F455D3A20258D
:10507000733A206661696C656420746F20637265A1
:10508000617465206D7174742071756575650D0AA4
:10509000000000005B253035642E253033642F4935
:1050A0005D3A2025733A207761697420666F72201B
:1050B0006D6573736167650D0A0000005B2530350F
:1050C000642E253033642F455D3A2025733A2066DF
:1050D00061696C656420746F20676574206D657309
:1050E000736167652066726F6D2071756575652ED9
:1050F0000D0A000010B504461CB9FBF767F800BFA5
:10510000FEE703480068206002480068606010BD48
:1051100068000020540000201FB50020009001907E
:105120000290034680220EA103900F4800F0BEFAC1
:105130000446012C0DD1FBF749F8A01E0B4908606D
:1051400001200B49086000200A49086000F05CF863
:1051500004E01CB9FBF73AF800BFFEE71FBD0000F2
:1051600049444C4500000000C54200087000002082
:105170005C0000205400002002480068401C0149E7
:10518000086070477400002010B51A48006818B114
:105190000120194908602BE00020174908601748D2
:1051A0000068B0FA80F0C0F11F0404EB84001449D9
:1051B00051F8200008B1012000E0002018B9FBF7E9
:1051C00005F800BFFEE704EB84010D4A02EB810005
:1051D00041684968416000F1080142688A4202D191
:1051E0004168496841604168C968064A116000BF6A
:1051F00010BD000074000020640000205800002052
:1052000040190020400000201CB5224801460978C2
:105210000191FF21024611700146097800919DF825
:10522000001001F010011C4A117007211B4A116087
:1052300009E01A490968491E184A11609DF80010D2
:105240004906090E00919DF8001001F080018029A7
:10525000EFD0124909680902104A11601146098805
:1052600001F4E06111600B4A019911700C4800686B
:1052700040F470000A4908600846006840F0704039
:105280000860FFF7ADFB002006490860FAF76CFFE5
:1052900000201CBD00E400E07C0000208000002015
:1052A00020ED00E07800002070B505464C20FFF7A7
:1052B00037F90446D4B1002060602060A060E0604F
:1052C000A0630120E06300202064401E6064A064AD
:1052D00004F11000FFF7DAFA04F12400FFF7D6FA20
:1052E00000231A461946204600F011F9204670BDE9
:1052F0002DE9F04706460D4691464FF000080EB1E5
:10530000012000E0002018B9FAF760FF00BFFEE7B7
:105310000DB9002702E006FB05F0471C07F14C0021
:10532000FFF7FEF8044664B10DB9246002E004F111
:105330004C002060E66325640121204600F0ABF8B4
:10534000A046B8F1000F03D1FAF740FF00BFFEE717
:105350004046BDE8F0872DE9FF4383B005460E4681
:105360001F464FF000092C461CB9FAF72FFF00BF6B
:10537000FEE70EB9206C08B9012000E0002018B942
:10538000FAF724FF00BFFEE700BFFFF7B5FAA06BF6
:1053900090B3D4F80C8031462046FEF7F7FEB7B93B
:1053A000A06B401EA063206810B9FFF743F960604E
:1053B000206908B9012000E00020B8B904F110000C
:1053C00000F008FB012811D1FFF714FB0EE0C4F830
:1053D0000C80606A08B9012000E0002030B904F1B7
:1053E000240000F0F7FA08B1FFF704FBFFF7A6FA74
:1053F000012007B0BDE8F083FFE7059818B9FFF773
:105400009DFA0020F5E7B9F1000F04D101A8FFF7DC
:1054100071FE4FF00109FFF791FAFFF7ADFEFFF7BC
:105420006BFA606C401C08B900206064A06C401CE2
:1054300008B90020A064FFF781FA05A901A800F0CF
:10544000FBF808BB2046FEF7E3FFB8B1206830B98F
:10545000FFF752FA6068FFF733FDFFF76FFA04F1C8
:1054600024000599FFF7F4FC2046FFF719F800F037
:10547000F7FA002889D1FFF7BDFA86E72046FFF743
:105480000FF800F0EDFA80E72046FFF709F800F08A
:10549000E7FA0020ADE770B505460E462C461CB96C
:1054A000FAF794FE00BFFEE7FFF726FAD4E90F12E1
:1054B000206801FB020060600020A0632068A060FB
:1054C000E06B401E226C216800FB0210E0604FF090
:1054D000FF306064A06476B9206908B9012000E05B
:1054E000002080B904F1100000F074FA01280AD1FC
:1054F000FFF780FA07E004F11000FFF7C7F904F1A5
:105500002400FFF7C3F9FFF719FA012070BD2DE958
:10551000FF4383B0064688461D464FF000093446D7
:105520001CB9FAF753FE00BFFEE7B8F1000F01D136
:10553000206C08B9012000E0002018B9FAF746FEF7
:1055400000BFFEE7022D02D1E06B012801D101204E
:1055500000E0002018B9FAF739FE00BFFEE700BFEF
:10556000FFF7CAF9A06BE16B884201D3022D1DD170
:105570002A4641462046FEF71EFE0746606A08B9E5
:10558000012000E0002040B904F1240000F022FADC
:10559000012805D1FFF72EFA02E00FB1FFF72AFA32
:1055A000FFF7CCF9012007B0BDE8F083059818B9E2
:1055B000FFF7C4F90020F6E7B9F1000F04D101A804
:1055C000FFF798FD4FF00109FFF7B8F9FFF7D4FD99
:1055D000FFF792F9606C401C08B900206064A06C71
:1055E000401C08B90020A064FFF7A8F905A901A88C
:1055F00000F022F8C0B92046FEF717FF70B104F1A1
:1056000010000599FFF724FC2046FEF749FF00F043
:1056100027FA0028A4D1FFF7EDF9A1E72046FEF70D
:105620003FFF00F01DFA9BE72046FEF739FF00F030
:1056300017FA0020B7E700002DE9F04104460D46B7
:105640001CB9FAF7C3FD00BFFEE71DB9FAF7BEFDAE
:1056500000BFFEE7FFF750F9124807682868401CB2
:1056600008B9002619E0104920680968884204D06A
:105670006068B84201D801260FE06068381A2968CE
:10568000884209D228686168791A401A2860204641
:10569000FFF730FD002600E00126FFF74FF9304606
:1056A000BDE8F08154000020680000202DE9FF4F84
:1056B00081B0804616469A46DDE90E5BB8F1000FD0
:1056C00003D1FAF783FD00BFFEE70A2D01D20120C6
:1056D00000E0002018B9FAF779FD00BFFEE7304678
:1056E0001099FEF705FD0446002C5AD0701E216B60
:1056F00001EB800929F0070909F0070008B901202A
:1057000000E0002018B9FAF761FD00BFFEE700963F
:105710002A462046119B0299FEF7E0FD524641467B
:105720004846FEF797FF2060BBF1000F01D0CBF891
:105730000040FFF7E1F824480068401C2249086057
:105740002248006840B921480460084600680128E2
:105750000CD1FEF7F5FD09E01D48006830B91B4883
:105760000068C06AA84201D8184804601948006857
:10577000401C1849086094F82C10012088401649F4
:105780000968084314490860E16A01EB8101134A82
:1057900002EB8100211DFFF7A3F80127FFF7CEF8E8
:1057A00001E04FF0FF37012F09D10948006830B1FF
:1057B00006480068C06AA84201D2FFF71BF93846C4
:1057C00005B0BDE8F08F0000500000204000002030
:1057D0005C0000206C0000205800002040190020D0
:1057E0000149086870470000540000202DE9F0418D
:1057F0004FF0000841480068002872D14048006816
:10580000401C3F49086008460668DEB93D4800680C
:10581000006808B9012000E0002018B9FAF7D6FCAA
:1058200000BFFEE737480768374800683549086019
:105830003548076035480068401C34490860FEF769
:1058400003FE00BF3248006886423CD300BF2D48AB
:105850000068006808B9012000E0002020B14FF086
:10586000FF302B4908602DE026480068C068C468F6
:105870006568AE4202D22648056023E0201DFEF78F
:10588000F1FFA06A18B104F11800FEF7EBFF94F8DD
:105890002C10012088401F49096808431D490860F1
:1058A000E16A01EB81011C4A02EB8100211DFFF737
:1058B00017F81A49E06A0968C96A8842C7D34FF0E5
:1058C0000108C4E700BF15480068C06A00EB80000B
:1058D000114951F82000012808D94FF0010805E0CE
:1058E000FFE70F480068401C0D4908600D4800683C
:1058F00008B14FF001084046BDE8F0817400002077
:1059000054000020440000204800002068000020CF
:1059100070000020580000204019002040000020A6
:10592000600000206400002070B505462C4600266B
:10593000002D47D024480068844201D1012000E0B6
:10594000002018B9FAF742FC00BFFEE7A06C18B9B6
:10595000FAF73CFC00BFFEE7A06C401EA064616C3F
:10596000E06A88422ED0A06C60BB201DFEF77AFF53
:1059700078B9E06A00EB8000144951F8200040B982
:1059800094F82C100120884011490968814310487F
:105990000160606CE062E06AC0F10A00A06194F806
:1059A0002C10012088400A4909680843084908600A
:1059B000E16A01EB8101054A02EB8100211DFEF73E
:1059C0008FFF0126304670BD4000002040190020A6
:1059D0005800002070B50646F068C4681CB9FAF794
:1059E000F5FB00BFFEE704F11800FEF73BFF164889
:1059F0000068A8B9201DFEF735FF94F82C1001208F
:105A0000884012490968084310490860E16A01EBBF
:105A100081010F4A02EB8100211DFEF761FF04E0C6
:105A200004F118010B48FEF75BFF0B49E06A0968B7
:105A3000C96A884204D9012501200849086000E0AC
:105A40000025284670BD000074000020580000208A
:105A500040190020301A002040000020640000207F
:105A600070B500253048006818B9FAF7AFFB00BFE1
:105A7000FEE7FEF741FF2C480068401E2A490860F7
:105A80000846006800284BD128480068002847D005
:105A900024E02748C068C46804F11800FEF7E2FE5D
:105AA000201DFEF7DFFE94F82C10012088402149CC
:105AB000096808431F490860E16A01EB81011E4A39
:105AC00002EB8100211DFEF70BFF1C49E06A09680B
:105AD000C96A884202D30120194908601448006845
