:020000040800F2
:10000000E8700020E9010008690B000859050008A4
:10001000650B00089D03000819130008000000008C
:100020000000000000000000000000004501000882
:10003000370400080000000089010008650E000870
:10004000030200080302000803020008030200087C
:10005000030200080302000803020008030200086C
:10006000030200080302000803020008030200085C
:10007000030200080302000803020008030200084C
:10008000030200080302000803020008030200083C
:10009000030200080302000803020008030200082C
:1000A000030200080302000803020008030200081C
:1000B000030200080302000803020008030200080C
:1000C00003020008030200080302000803020008FC
:1000D00003020008F50E0008050F0008150F0008C0
:1000E00003020008030200080302000803020008DC
:1000F00003020008030200080302000803020008CC
:1001000003020008030200080302000803020008BB
:10011000E50E0008030200080302000803020008BD
:10012000030200080302000803020008030200089B
:10013000DFF80CD000F0E6F800480047E52E000894
:10014000E8700020204B19680868B0E8F00F80F3D1
:100150000988BFF36F8F4FF0000080F311884EF0D5
:100160000D0E70470000000006480068006880F32C
:10017000088862B661B6BFF34F8FBFF36F8F00DFA1
:1001800000BF00BF08ED00E0EFF30980BFF36F8F01
:100190000D4B1A6820E9F00F106008B54FF0100001
:1001A00080F3118803F0B0FD4FF0000080F3118858
:1001B000BDE8084019680868B0E8F00F80F30988C6
:1001C000BFF36F8F704700BF30000020EFF3118046
:1001D0004FF0100181F31188704780F31188704748
:1001E000EFF3058070470000064880470648004747
:1001F000FEE7FEE7FEE7FEE7FEE7FEE7FEE7FEE7D7
:10020000FEE7FEE7850E00083101000840EA010321
:100210009B0703D009E008C9121F08C0042AFAD2BC
:1002200003E011F8013B00F8013B521EF9D2704780
:10023000D2B201E000F8012B491EFBD27047002228
:10024000F6E710B513460A4604461946FFF7F0FFD5
:10025000204610BD30B505462A460B4612F8010B64
:1002600013F8014B08B1A042F8D01CB1002802D00D
:100270006D1CF1E7284630BD421C10F8011B002917
:10028000FBD1801A704730B504460020034600E0D9
:100290005B1C934203D2E05CCD5C401BF8D030BDC8
:1002A0002DE9F05F0546002092469B4688460646AB
:1002B000814640241BE0284641464746224600F03E
:1002C00042F853465A46C01A914110D31146184677
:1002D000224600F029F82D1A67EB01084F46224606
:1002E0000120002100F020F817EB00094E41201EEC
:1002F000A4F10104DFDC484631462A464346BDE806
:10030000F09F0000064C074D06E0E06840F0010356
:1003100094E8070098471034AC42F6D3FFF70CFF7F
:100320006848000888480008202A04DB203A00FAC0
:1003300002F1002070479140C2F1200320FA03F33C
:10034000194390407047202A04DB203A21FA02F03A
:100350000021704721FA02F3D040C2F120029140FF
:1003600008431946704700001FB50020064A0423C1
:10037000CDE901200093039003464FF4007203A1DE
:10038000054803F0E3FE1FBD0400002076546173AE
:100390006B537461727400007D3C000800BFFEE77F
:1003A000014609B900207047012901D10748FAE741
:1003B000022901D10648F6E7032901D10548F2E7F1
:1003C000042901D10020EEE70020ECE7A80000207E
:1003D000D0080020F810002008B526208DF8000075
:1003E00001208DF8010000208DF8020001208DF819
:1003F0000300684600F0BAFB27208DF800000120BA
:100400008DF8010000208DF8020001208DF8030016
:10041000684600F0ABFB34208DF8000001208DF819
:10042000010000208DF8020001208DF803006846CD
:1004300000F09CFB08BD70472DE9F0410246002505
:100440000026002000230024002791F803C00CF0B0
:100450000F0591F803C00CF0100CBCF1000F03D095
:1004600091F802C04CEA050591F800C0BCF1000FFC
:1004700031D0146800202BE04FF0010C0CFA00F38F
:10048000B1F800C00CEA03069E4220D183004FF071
:100490000F0C0CFA03F7BC4305FA03FC4CEA040406
:1004A00091F803C0BCF1280F06D14FF0010C0CFAF3
:1004B00000FCC2F814C00AE091F803C0BCF1480F78
:1004C00005D14FF0010C0CFA00FCC2F810C0401C22
:1004D0000828D1D31460B1F800C0BCF1FF0F34DD9F
:1004E000546800202EE000F1080C4FF0010808FAD3
:1004F0000CF3B1F800C00CEA03069E4221D1830040
:100500004FF00F0C0CFA03F7BC4305FA03FC4CEA5E
:10051000040491F803C0BCF1280F05D100F1080CC8
:1005200008FA0CF8C2F8148091F803C0BCF1480F27
:1005300007D100F1080C4FF0010808FA0CF8C2F8D6
:100540001080401C0828CED35460BDE8F081416182
:10055000704701617047000009A100200CE00A5CAF
:10056000124B1A8000BF114A121F128802F040027B
:10057000002AF8D0421CD0B22A28F0D300BFFEE7F0
:100580000D0A456E74657220486172644661756C2F
:10059000745F48616E646C65722C20537973746566
:1005A0006D2048616C742E0D0A0000000438014073
:1005B00000B585B00121052000F02AFB0121480487
:1005C00000F016FB0420ADF8100018208DF8130081
:1005D00003208DF8120004A96648FFF72DFF0820BC
:1005E000ADF8100004208DF8130004A96148FFF74E
:1005F00023FF04A95F48FFF71FFF4FF4E13000908D
:100600000020ADF80400ADF80600ADF80800ADF824
:100610000C000C20ADF80A006946574800F0E6FCD3
:10062000012240F22551544800F0BBFC0121524800
:1006300000F081FC4021504800F074FC01210820AA
:1006400000F0E6FA10208DF8130003208DF8120058
:100650000420ADF8100004A94848FFF7EDFE012181
:10066000092000F0D5FA0121880400F0C1FA4FF406
:100670008060ADF8100018208DF8130003208DF86D
:10068000120004A93D48FFF7D7FE4FF40060ADF813
:10069000100004208DF8130004A93848FFF7CCFEA1
:1006A00004A93648FFF7C8FE4FF4E130009000205F
:1006B000ADF80400ADF80600ADF80800ADF80C0088
:1006C0000C20ADF80A0069462D4800F08FFC01228D
:1006D00040F225512A4800F064FC0121284800F02E
:1006E0002AFC4021264800F01DFC0121112000F0C9
:1006F0008FFA0121C80400F07BFA4FF48060ADF856
:10070000100018208DF8130003208DF8120004A9A2
:100710001C48FFF791FE4FF40060ADF81000042074
:100720008DF8130004A91748FFF786FE4FF4E13057
:1007300000900020ADF80400ADF80600ADF8080008
:10074000ADF80C000C20ADF80A0069460E4800F028
:100750004DFC012240F225510B4800F022FC012102
:10076000094800F0E8FB4021074800F0DBFB05B03A
:1007700000BD00000008014000440040000C0140A2
:100780000048004000100140004C004010B50446F5
:1007900000F0A8F94FF480510C48FFF7D8FED8209C
:1007A00000F0D6F8C4F3074000F0D2F8C4F30720F5
:1007B00000F0CEF8E0B200F0CBF84FF480510348DF
:1007C000FFF7C7FE00F0E0F810BD0000000C01408C
:1007D00000B585B000F030F84FF480511448FFF7B1
:1007E000B8FE0020ADF800004FF48270ADF80200B2
:1007F0000020ADF804000220ADF806000120ADF89D
:1008000008004002ADF80A000820ADF80C000020F6
:10081000ADF80E000720ADF810006946054800F05D
:100820008FFA0121034800F071FA05B000BD000005
:10083000000C01400038004008B50121880300F099
:10084000D7F90121082000F0E3F918208DF8030002
:1008500003208DF802004FF40050ADF80000694607
:100860001048FFF7E9FD4FF40040ADF8000069467D
:100870000C48FFF7E1FD4FF48040ADF800006946F9
:100880000848FFF7D9FD4FF48050ADF80000102064
:100890008DF8030003208DF8020069460148FFF738
:1008A000CBFD08BD000C014070B505460C46164650
:1008B0004FF480511048FFF74AFE032000F048F83B
:1008C000C4F3074000F044F8C4F3072000F040F8F8
:1008D000E0B200F03DF804E0A52000F039F82870FF
:1008E0006D1C301EA6F101018EB2F5D14FF480517E
:1008F0000148FFF72EFE70BD000C01402DE9F041CC
:1009000000240025002600274FF480510F48FFF7F0
:100910001EFE9F2000F01CF8A52000F019F80546E7
:10092000A52000F015F80646A52000F011F80746AE
:100930004FF480510548FFF70CFE280440EA0620DA
:1009400040EA07042046BDE8F0810000000C0140A9
:1009500010B5044600BF02210A4800F0E3F9002860
:10096000F9D02146074800F0E9F900BF0121054808
:1009700000F0D8F90028F9D0024800F0DCF9C0B244
:1009800010BD00000038004010B500244FF4805125
:100990000A48FFF7DCFD0520FFF7DAFF00BFA520BE
:1009A000FFF7D6FF044604F001000028F7D14FF40A
:1009B00080510248FFF7CDFD10BD0000000C014042
:1009C0002DE9F05F07460E4614464FF00008C14679
:1009D000C2460025AB4606F0FF0ACAF10000C5B2C8
:1009E0002046E11704EB1161C1F30728E11704EB7E
:1009F00011610912A4EB012101F0FF09BAF1000F06
:100A000020D1B8F1000F05D122463146384600F01A
:100A10007BF864E009E04FF480723146384600F01C
:100A200073F806F5807607F58077B8F10000A8F135
:100A3000010101F0FF08EED14A463146384600F088
:100A400063F84CE0B8F1000F18D1A94510DDA9EB0F
:100A5000050000F0FF0B2A463146384600F054F8F6
:100A60002E442F445A463146384600F04DF836E0C1
:100A700022463146384600F047F830E0601B84B229
:100A80002046E11704EB1161C1F30728E11704EBDD
:100A900011610912A4EB012101F0FF092A46314638
:100AA000384600F031F82E442F4409E04FF48072AC
:100AB0003146384600F028F806F5807607F580774D
:100AC000B8F10000A8F1010101F0FF08EED1B9F181
:100AD000000F04D04A463146384600F015F8BDE80C
:100AE000F09F000010B54FF480510648FFF72FFD2E
:100AF0000620FFF72DFF4FF480510248FFF729FD34
:100B000010BD0000000C014070B505460C461646AD
:100B1000FFF7E8FF4FF480511148FFF718FD02205E
:100B2000FFF716FFC4F30740FFF712FFC4F30720D7
:100B3000FFF70EFFE0B2FFF70BFF03E02878FFF7A7
:100B400007FF6D1C301EA6F101018EB2F6D14FF4E5
:100B500080510348FFF7FDFCFFF716FF70BD000052
:100B6000000C014000BFFEE77047000070B5002197
:100B700000230F22C47804B3154C246804F4E06405
:100B8000C4F5E064210AC1F10403CA40447804FAC0
:100B900003F184781440214309010E4C0678A155D5
:100BA000047804F01F050124AC4005786D11AD00F8
:100BB00005F1E025C5F8004109E0047804F01F05BF
:100BC0000124AC40044D0678761145F8264070BDEE
:100BD0000CED00E000E400E080E100E002490143A8
:100BE000024A1160704700000000FA050CED00E0B9
:100BF00029B1064AD2690243044BDA6104E0034A90
:100C0000D2698243014BDA61704700000010024054
:100C100029B1064A92690243044B9A6104E0034AEF
:100C200092698243014B9A617047000000100240B4
:100C300030B500210022002400232D4D6D6805F001
:100C40000C0121B1042905D0082923D105E0294D43
:100C5000056022E0284D05601FE0254D6D6805F414
:100C60007012234D6D6805F48034022505EB924225
:100C70001CB9224D554305600BE01D4D6D6805F410
:100C800000351DB11E4D5543056002E01A4D554318
:100C9000056002E0174D056000BF00BF144D6D6890
:100CA00005F0F0010909174D6B5C0568DD404560F2
:100CB0000F4D6D6805F4E061090A124D6B5C4568E3
:100CC000DD4085600A4D6D6805F46051C90A0D4D1F
:100CD0006B5C4568DD40C560054D6D6805F44041BD
:100CE000890B094D6B5CC568B5FBF3F5056130BD3B
:100CF0000010024000127A00001BB70000093D00FE
:100D0000808D5B001B0000202B00002021B1028899
:100D100042F04002028004E002884FF6BF731A409E
:100D2000028070470246002013890B400BB101205E
:100D300000E0002070470146888970478181704734
:100D400010B50022028802F441520B884C882343DC
:100D50008C882343CC8823430C8923434C89234329
:100D60008C892343CC8923431A430280838B4FF21F
:100D7000FF74234083830B8A038210BD10B500F0FB
:100D800001F810BD0CB500200190009033480068B8
:100D900040F480303149086000BF3048006800F4FA
:100DA000003000900198401C0190009818B90198FB
:100DB000B0F5A06FF1D12948006800F4003010B1FF
:100DC0000120009001E0002000900098012843D10C
:100DD0002348006840F01000214908600846006878
:100DE00020F0030008600846006840F00200086038
:100DF0001A484068194948600846406848600846F3
:100E0000406840F4806048600846406820F47C10E8
:100E100048600846406840F488104860084600680A
:100E200040F08070086000BF0C48006800F000705F
:100E30000028F9D00948406820F0030007494860BD
:100E40000846406840F00200486000BF0348406820
:100E500000F00C000828F9D10CBD00000010024081
:100E60000020024010B5FFF7B1F903F00FFA18B1F6
:100E70004FF08050024908600020FFF7AEF910BD26
:100E800004ED00E010B51348006840F0010011497E
:100E9000086008464068104908400E494860084606
:100EA00000680E4908400B4908600846006820F4B5
:100EB000802008600846406820F4FE0048604FF437
:100EC0001F008860FFF75AFF4FF000600449086078
:100ED00010BD0000001002400000FFF8FFFFF6FE0A
:100EE00008ED00E010B5024800F016F910BD000052
:100EF000F810002010B5024800F07FFE10BD000081
:100F0000205E002010B5024800F006F910BD000078
:100F1000A800002010B5024800F0FEF810BD000047
:100F2000D008002001F40072B2F5007F00D100BFAC
:100F3000CA430280704721B1828942F40052828103
:100F400004E082894DF6FF731A408281704770B5C4
:100F50000246002400230025002040F66A16B14214
:100F600000D100BFC1F3421501F01F03012606FAAC
:100F700003F3012D02D19689334006E0022D02D100
:100F8000168A334001E0968A33400C12012606FA95
:100F900004F41688344013B10CB1012000E00020A5
:100FA00070BDF0B50346002400260025002040F661
:100FB0006A17B94200D100BF1846C1F3421401F0CC
:100FC0001F06012707FA06F5012C01D10C3004E0B9
:100FD000022C01D1103000E014301AB107682F4301
:100FE000076002E00768AF430760F0BD2DE9F047F6
:100FF00086B005460E460024A24600BFA146002743
:10100000B08900B100BF2F462C8A4CF6FF70044017
:10101000F08804432C82AC894EF6F3100440B0886B
:1010200031890843718908430443AC81AC8A4FF687
:10103000FF400440B0890443AC8201A8FFF7F8FDEB
:101040001F48874202D1DDF810A001E0DDF80CA0B6
:10105000A88900F4004040B10AEBCA0000EB0A1076
:1010600031684900B0FBF1F807E00AEBCA0000EB79
:101070000A1031688900B0FBF1F86420B8FBF0F089
:1010800004012009642101FB1089A88900F40040B3
:1010900040B1322000EBC900B0FBF1F000F00700D6
:1010A000044308E0322000EB09106421B0FBF1F0AA
:1010B00000F00F0004432C8106B0BDE8F08700006B
:1010C0000038014001468888C0F308007047C1F32A
:1010D00008028280704770B504460D4602F00EFB90
:1010E000668B02F02DFB0EB9002070BD218BA0682D
:1010F000405C287002F002FB208B401C80B22083F1
:10110000E189884201DB00202083608B401E6083E0
:1011100002F016FB0120E8E770B5044640F22551C5
:101120002068FFF714FFE0B12068FFF7CBFFC5B2DE
:10113000E18AA0684554E08A401C80B2E082E189DF
:10114000884201DB0020E082608BE189884202DA7C
:10115000608B401C6083606A10B12846616A8847D2
:1011600000BF40F227712068FFF7F1FE08B3A08AA4
:1011700060B9002240F227712068FFF712FF0122B8
:1011800040F226612068FFF70CFF37E0638A62684F
:10119000D15C2068FFF79BFF608A401C80B26082B0
:1011A000A189884201DB00206082A08A401EA082C3
:1011B00024E040F226612068FFF7C9FEF0B1A08A62
:1011C00050B9002240F226612068FFF7EAFE206A4B
:1011D000A0B1206A804711E0638A6268D15C206810
:1011E000FFF775FF608A401C80B26082A189884247
:1011F00001DB00206082A08A401EA08270BDF8B58D
:1012000004460E461746002525E00CE002F076FA6B
:10121000A08A009002F094FAA089BDF800108842DC
:1012200000DD01E000BFF1E700BF705D228A616868
:10123000885402F063FA208A401C80B22082A1897F
:10124000884201DB00202082A08A401CA08202F09C
:1012500077FA681C85B2BD42D7DB012240F22771C4
:101260002068FFF79EFEF8BD1F482049086020480F
:101270004860204888604FF480608881C8810020E1
:1012800008824882C882088348838882C8610862CD
:101290004862194819490860194848601948886027
:1012A0004FF480608881C881002008824882C8820B
:1012B000088348838882C8610862486212481349DB
:1012C000086013484860134888604FF48060888144
:1012D000C881002008824882C882088348838882A7
:1012E000C86108624862704700440040A8000020BE
:1012F000D0000020D004002000480040D00800208A
:10130000F8080020F80C0020004C0040F8100020E5
:10131000201100202015002000BFFEE70FB4054B70
:1013200010B503A9044A029800F02CF810BC5DF82F
:1013300014FB0000711B00089C0000200FB41CB5BA
:101340000A46521ECDE9000207A9054B6A460698D7
:1013500000F018F8009A002111701CBC5DF814FB15
:10136000E717000802E008C8121F08C1002AFAD1D6
:1013700070477047002001E001C1121F002AFBD115
:10138000704700002DE9FF4F8DB00F46054600263F
:1013900006E025280BD0DDE90F1290476D1C761C66
:1013A00028780028F5D111B03046BDE8F08F002430
:1013B000A246A1460122EC4900E0044315F8013F92
:1013C000203B02FA03F00842F7D128782A2810D0EF
:1013D0006FF02F022878A0F13001092914D80AEB08
:1013E0008A0102EB410144F0020400EB010A6D1C8A
:1013F000F0E701CF5FEA000A03D544F40054CAF1D4
:10140000000A44F002046D1C28782E2817D115F824
:10141000010F44F004042A280ED06FF02F02287820
:10142000A0F1300109290AD809EB890102EB410139
:1014300000EB01096D1CF2E757F8049B6D1C28783E
:101440006C280FD006DC4C2817D068280DD06A28ED
:1014500014D104E0742810D07A280FD10DE044F4A0
:1014600000140AE044F4801401E044F44014697864
:10147000814202D104F580146D1C6D1C2A786E2AFD
:101480001FD00CDC632A31D004DC002A8BD0582A10
:1014900011D1A3E0642A68D0692A0CD165E0732ACF
:1014A0002ED004DC6F2A73D0702A04D19BE0752AF9
:1014B0006FD0782A6ED01046DDE90F129047761C67
:1014C00050E1C4F30250022806D0032809D00428B2
:1014D00001CF09D0066045E101CFF117C0E90061F5
:1014E00040E101CF06803DE106703BE117F8040BB7
:1014F0008DF8000000208DF80100EB46012003E08C
:1015000057F804BB4FF0FF3061074FF0000102D4E1
:101510000DE008F10101884649450FDA8045F8DB06
:101520001BF808100029F4D108E008F101018846F1
:101530008142FADB1BF808100029F6D1DDE90F2300
:10154000AAEB08008146214600F036F9304400EB52
:10155000080604E0DDE90F121BF8010B9047B8F113
:101560000108F7D221464846F7E00A21C4F30253A6
:101570004FF0000B0891022B04D001CFC117032BB1
:1015800009D00AE0FF1D27F00707F7E8020108E08D
:1015900032E01FE020E000B2C117042B01D140B2BD
:1015A000C117031E71F1000307DA4FF0000CD0EBF6
:1015B0000C006CEB01012D2302E0230504D52B2345
:1015C0008DF82430012303E0E30701D02023F7E75F
:1015D000984658E00A2110E010210EE010204FF04C
:1015E000000B08900CE010214FF0000B44F00404B5
:1015F0004FF00809089103E008214FF0000B089113
:10160000C4F30253022B04D001CF0021032B06D0D8
:1016100006E0FF1D27F00707F7E8020103E080B2AC
:10162000042B00D1C0B24FF0000823072BD5702A3D
:1016300007D0DDF820C08CF0100C5CEA0B0C05D054
:101640000EE040238DF82430012308E050EA010326
:1016500006D030238DF824308DF8252002239846BB
:10166000DDF820C08CF0080C5CEA0B0C0BD150EAC2
:10167000010301D1630706D530238DF824304FF0E4
:101680000108A9F10109582A04D038A20B9208AA2E
:101690000A920BE03AA2F9E75B46089AFEF700FED1
:1016A0000B9B9B5C0A9A521E0A92137050EA01022D
:1016B000F2D10A98ADEB000000F1200B600702D5D3
:1016C00024F4803401E04FF00109D94502DDA9EB93
:1016D0000B0000E0002000EB0B0141440890AAEB56
:1016E000010AE00306D4DDE90F232146504600F04D
:1016F00063F806444FF0000908E009A911F8090051
:10170000DDE90F12904709F10109761CC145F4DBB0
:10171000E0030CD5DDE90F232146504600F04CF8DC
:10172000064404E0DDE90F1230209047761C08994A
:10173000481E08900029F5DC08E00A980A9900780C
:10174000491C0A91DDE90F129047761CBBF100019C
:10175000ABF1010BF1DC21465046DDE90F2300F02F
:1017600019F806446D1C1BE609280100303132339C
:1017700034353637383961626364656600000000CD
:1017800030313233343536373839414243444546B7
:10179000000000002DE9F041044600251E461746D2
:1017A000880404D405E039462020B0476D1C641E2F
:1017B000F9D52846BDE8F0812DE9F0410446002521
:1017C0001E469046C80301D5302700E02027880434
:1017D00004D505E041463846B0476D1C641EF9D576
:1017E0002846BDE8F0814A68002A06D00A68531CE2
:1017F0000B6010704868401E4860704710B54FF489
:101800004070FFF7EBF900F001F810BD10B5FFF7DD
:101810002BFDFEF7CDFEFEF7DFFD10BD00B5034644
:101820001846FEF7BDFD024602B900BD0020D08279
:101830001083508300BFF8E770B505460E46284672
:10184000FEF7AEFD04460CB9002070BD31462046BF
:10185000FFF741FCF9E72DE9F04105460E46174632
:101860002846FEF79DFD04460CB9BDE8F081E0690D
:1018700008B1E06980473A4631462046FFF7BFFC91
:1018800000BFF2E713B50446012201A92046FFF785
:10189000E2FF1CBDF8B5FEF79BFFFFF72FF80546EA
:1018A00000BF02F0EDFC04464FF47A70B4FBF0F197
:1018B00000FB1146B4FBF0F7044B3246394604A056
:1018C0000095FFF72BFD00BFF8BD0000E8450008BC
:1018D0005B253035642E253033642F495D3A202551
:1018E000733A207265616420666C61736820696474
:1018F0002025780D0A0000002DE9F04387B0182458
:1019000000BF02F0BDFC07464FF47A70B7FBF0F160
:1019100000FB1178B7FBF0F9624B4246494662A0E2
:10192000FFF7FCFC00BF204601F0F2FA0646214614
:101930003046FEF784FC21466148FEF780FCA2B2E7
:1019400000213046FEF7B0FF00250FE0725D715DAB
:101950005CA0FFF7E3FC681C0A2190FBF1F201FB9D
:10196000120010B955A0FFF7D9FC6D1CA542EDDBA4
:1019700052A0FFF7D3FC224631465148FEF746FC01
:101980004F480078242842D14D48407824283ED141
:1019900000BF02F075FC07464FF47A70B7FBF0F118
:1019A00000FB1178B7FBF0F93E4B4246494648A090
:1019B000FFF7B4FC00BF00BF02F062FC07464FF423
:1019C0007A70B7FBF0F100FB1178B7FBF0F93C48F7
:1019D00040693B49891C334B4246CDE900104946DA
:1019E00046A0FFF79BFC00BF35484069401C3449C6
:1019F00048610020FEF7CAFE224631493046FEF714
:101A000005FCA2B200213046FEF7DAFF31E003A860
:101A100000F0E0F800BF02F033FC07464FF47A70A4
:101A2000B7FBF0F100FB1178B7FBF0F903A81D4BF1
:101A30004246494600903EA0FFF770FC00BF2420BC
:101A40001F4908704870102203A91D48801CFEF72A
:101A5000DDFB01201A4948610020FEF797FE22466F
:101A600017493046FEF7D2FBA2B200213046FEF7FE
:101A7000A7FF304600F086F800BF02F001FC0746E1
:101A80004FF47A70B7FBF0F100FB1178B7FBF0F977
:101A9000044B4246494630A0FFF740FC00BF07B068
:101AA000BDE8F083BB4600085B253035642E253049
:101AB00033642F495D3A2025733A20450D0A000012
:101AC000085E002025303278282563292000000098
:101AD0005B253035642E253033642F495D3A20254F
:101AE000733A20636F6E66696720616C726561642A
:101AF0007920646F6E650D0A000000005B253035AB
:101B0000642E253033642F495D3A2025733A2064D2
:101B100065766963656964202D2025732C20626FCA
:101B20006F742074696D6573202D2025640D0A0083
:101B30005B253035642E253033642F495D3A2025EE
:101B4000733A20676574206465766963652069640B
:101B50002025730D0A0000005B253035642E2530EA
:101B600033642F495D3A2025733A20580D0A00004E
:101B700070B504460D46E1B20120FFF783FE204612
:101B800070BD000010B5002821D0114B0022001FAD
:101B9000196803E0814203D80A4649680029F9D14F
:101BA00052B11368841A9C4204D100681844106032
:101BB000104602E0506000E0186039B102680B1A6C
:101BC000934203D10B681A4402604968416010BD1A
:101BD000A000002010B50446102202492046FEF75E
:101BE00015FB10BDF75D00200146302903DB3929C4
:101BF00001DC012070470020FCE770B5044640F28C
:101C000025512068FFF7A3F9B8B12068FFF75AFA09
:101C1000C5B2E18AA0684554E08A401C80B2E082E7
:101C2000E189884201DB0020E082608BE189884203
:101C300002DA608B401C608300BF40F2277120688D
:101C4000FFF785F908B3A08A60B9002240F2277136
:101C50002068FFF7A6F9012240F226612068FFF70D
:101C6000A0F933E0638A6268D15C2068FFF72FFA3D
:101C7000608A401C80B26082A189884201DB00201A
:101C80006082A08A401EA08220E040F22661206887
:101C9000FFF75DF9D0B1A08A30B9002240F2266189
:101CA0002068FFF77EF911E0638A6268D15C2068E2
:101CB000FFF70DFA608A401C80B26082A1898842D9
:101CC00001DB00206082A08A401EA08270BD00005F
:101CD0002DE9F0410220FFF7A1FD1AA001F0D2F892
:101CE00040F6B8311AA001F087F8A0B100BF02F0A9
:101CF000C7FA05464FF47A70B5FBF0F100FB1156B8
:101D0000B5FBF0F7134B3246394613A0FFF706FB3D
:101D100000BF012413E000BF02F0B2FA05464FF401
:101D20007A70B5FBF0F100FB1156B5FBF0F7094BEB
:101D30003246394611A0FFF7F1FA00BF00242046D1
:101D4000BDE8F08141542B43474154543F0D0A00F4
:101D50004F4B0000774600085B253035642E253058
:101D600033642F495D3A2025733A206367617474A8
:101D700020737563636573730D0A00005B2530354E
:101D8000642E253033642F455D3A2025733A206355
:101D900067617474206661696C65640D0A000000F7
:101DA00070B50220FFF73AFD17A001F06BF84FF471
:101DB000FA6118A001F020F890B100BF02F060FABB
:101DC00004464FF47A70B4FBF0F100FB1145B4FB0C
:101DD000F0F6114B2A46314610A0FFF79FFA12E0A9
:101DE00000BF02F04DFA04464FF47A70B4FBF0F1F4
:101DF00000FB1145B4FBF0F6074B2A46314612A012
:101E0000FFF78CFA00BF70BD41542B43474D520D74
:101E10000A0000004F4B0000324600085B253035B9
:101E2000642E253033642F495D3A2025733A2063B0
:101E30006865636B2076657273696F6E2073756376
:101E4000636573730D0A00005B253035642E253001
:101E500033642F455D3A2025733A20636865636BD0
:101E60002076657273696F6E206661696C65640DBA
:101E70000A0000002DE9F04186B0142101A8FEF708
:101E8000DEF90F213148FEF7DAF90220FFF7C6FC30
:101E90002FA000F0F7FFC82201A930A000F0F4FD48
:101EA00090B100BF02F0ECF906464FF47A70B6FB31
:101EB000F0F100FB1167B6FBF0F8294B3A464146BA
:101EC00028A0FFF72BFA15E000BF02F0D9F906466B
:101ED0004FF47A70B6FBF0F100FB1167B6FBF0F837
:101EE0001F4B3A4641462BA0FFF718FA00BF06B039
:101EF000BDE8F081002408E001A9085DFFF774FE49
:101F000008B1254603E0601CC4B2142CF4DB00BF0A
:101F1000052C05DA01A841190F220C48FEF776F9C5
:101F200000BF02F0ADF906464FF47A70B6FBF0F14F
:101F300000FB1167B6FBF0F8044B3A46414621A07E
:101F4000FFF7ECF900BF00BFD1E70000E85D00201B
:101F500041542B4347534E0D0A0000004F4B0000E5
:101F6000594600085B253035642E253033642F49EF
:101F70005D3A2025733A20636865636B206465765B
:101F800069636520696D6569207375636365737343
:101F90000D0A00005B253035642E253033642F4553
:101FA0005D3A2025733A20636865636B206465762B
:101FB00069636520696D6569206661696C65640D9A
:101FC0000A0000005B253035642E253033642F492C
:101FD0005D3A20696D65693A2025730D0A0000009D
:101FE0002DE9F043A3B004460D460220FFF716FC8E
:101FF00056A000F047FF4FF4FA515BA000F0FCFE42
:10200000A0B100BF02F03CF907464FF47A70B7FB6D
:10201000F0F100FB1178B7FBF0F9544B424649460A
:1020200053A0FFF77BF900BF012614E000BF02F0C8
:1020300027F907464FF47A70B7FBF0F100FB1178EF
:10204000B7FBF0F9494B4246494654A0FFF766F901
:1020500000BF002675E05CA000F014FF41F288315B
:1020600041A000F0C9FEA0B100BF02F009F9074687
:102070004FF47A70B7FBF0F100FB1178B7FBF0F981
:102080003A4B4246494654A0FFF748F900BF0126A3
:1020900014E000BF02F0F4F807464FF47A70B7FB83
:1020A000F0F100FB1178B7FBF0F9304B424649469E
:1020B00053A0FFF733F900BF002642E0802103A8B8
:1020C000FEF7BDF8234659A24FF4806103A800959E
:1020D000FFF734F903A800F0D5FE42F2107159A0C1
:1020E00000F08AFEB0B100BF02F0CAF807464FF414
:1020F0007A70B7FBF0F100FB1178B7FBF0F91B4BDE
:102100004246494652A0CDE90045FFF707F900BF16
:10211000012615E000BF02F0B3F807464FF47A70CD
:10212000B7FBF0F100FB1179B7FBF0F80F4B4A4613
:10213000414652A0CDE90045FFF7F0F800BF002668
:1021400000BF304623B0BDE8F083000041542B5A55
:1021500049504346473D756E696D326D2E6E6A6D0E
:10216000326D61706E0D0A004F4B0000AE460008E4
:102170005B253035642E253033642F495D3A2025A8
:10218000733A207265676973746572206770727341
:1021900020737563636573730D0A00005B2530352A
:1021A000642E253033642F455D3A2025733A207222
:1021B0006567697374657220677072732066616900
:1021C0006C65640D0A00000041542B5A495043418C
:1021D0004C4C3D310D0A00005B253035642E253016
:1021E00033642F495D3A2025733A207A6970636120
:1021F0006C6C20737563636573730D0A00000000D7
:102200005B253035642E253033642F455D3A20251B
:10221000733A207A697063616C6C20677072732006
:102220006661696C65640D0A0000000041542B5A18
:1022300049504F50454E3D322C302C25732C25648F
:102240000D0A0000434F4E4E454354204F4B0000B3
:102250005B253035642E253033642F495D3A2025C7
:10226000733A20636F6E6E6563742025733A25643C
:1022700020737563636573730D0A00005B25303549
:10228000642E253033642F455D3A2025733A206350
:102290006F6E6E6563742025733A256420666169EC
:1022A0006C65640D0A0000002DE9F0410220FFF783
:1022B000B5FA1AA000F0E6FDC8211BA000F09CFDB5
:1022C000A0B100BF01F0DCFF05464FF47A70B5FB0A
:1022D000F0F100FB1156B5FBF0F7144B32463946CE
:1022E00013A0FFF71BF800BF012413E000BF01F0AB
:1022F000C7FF05464FF47A70B5FBF0F100FB1156AD
:10230000B5FBF0F7094B3246394613A0FFF706F844
:1023100000BF00242046BDE8F081000041542B435B
:1023200050494E3F0D0A00004F4B00006346000825
:102330005B253035642E253033642F495D3A2025E6
:10234000733A20636865636B2073696D20737563EE
:10235000636573730D0A00005B253035642E2530EC
:1023600033642F455D3A2025733A20636865636BBB
:102370002073696D206661696C65640D0A00000058
:102380002DE9F04788B020216846FDF758FF002668
:1023900060E000F0B3F8012000F003FE0220FFF738
:1023A0003DFA30A000F06EFD4FF47A72694630A01D
:1023B00000F06AFBA8B100BF01F062FF07464FF4CE
:1023C0007A70B7FBF0F100FB1179B7FBF0FA294BFB
:1023D0004A46514628A0FEF7A1FF00BF4FF0010872
:1023E00014E000BF01F04CFF07464FF47A70B7FBD2
:1023F000F0F100FB1179B7FBF0FA1E4B4A4651464B
:1024000029A0FEF78BFF00BF4FF0000832A16846FD
:10241000FDF720FF054668783038C4B200BF01F0F0
:102420002FFF07464FF47A70B7FBF0F100FB1179EC
:10243000B7FBF0FA23464A46514628A0FEF76EFF46
:1024400000BF012C01D0052C02D14FF0010803E0A0
:10245000701CC6B20A2E9CDB00BF404608B0BDE827
:10246000F087000041542B435245473F0D0A0000BE
:102470004F4B00006D4600085B253035642E25303B
:1024800033642F495D3A2025733A2072656769737A
:10249000746572206E6574776F726B2073756363F9
:1024A0006573730D0A0000005B253035642E2530FE
:1024B00033642F455D3A2025733A2072656769734E
:1024C000746572206E6574776F726B206661696CDB
:1024D00065640D0A000000002C0000005B2530350B
:1024E000642E253033642F495D3A2073746174750E
:1024F00073203D2025640D0A0000000070B5022005
:10250000FFF78CF917A000F0BDFCC82118A000F05F
:1025100073FC90B100BF01F0B3FE04464FF47A7033
:10252000B4FBF0F100FB1145B4FBF0F6114B2A4669
:10253000314611A0FEF7F2FE12E000BF01F0A0FE4E
:1025400004464FF47A70B4FBF0F100FB1145B4FB84
:10255000F0F6084B2A46314611A0FEF7DFFE00BF19
:1025600070BD000041542B4353510D0A0000000080
:102570004F4B0000294600085B253035642E25307E
:1025800033642F495D3A2025733A20636865636B95
:102590002063737120737563636573730D0A0000A4
:1025A0005B253035642E253033642F455D3A202578
:1025B000733A20636865636B206373712066616999
:1025C0006C65640D0A0000002DE9F04186B014210D
:1025D00001A8FDF734FE0F213148FDF730FE02203F
:1025E000FFF71CF92FA000F04DFCC82201A930A074
:1025F00000F04AFA90B100BF01F042FE06464FF4E7
:102600007A70B6FBF0F100FB1167B6FBF0F8294BCE
:102610003A46414628A0FEF781FE12E000BF01F0D5
:102620002FFE06464FF47A70B6FBF0F100FB1167FF
:10263000B6FBF0F81F4B3A4641462BA0FEF76EFE64
:1026400000BF002408E001A9085DFFF7CDFA08B13A
:10265000254603E0601CC4B2142CF4DB00BF052C3B
:1026600008DA01A841190F220D48FDF7CFFD00201F
:102670000B49C87300BF01F003FE06464FF47A70A1
:10268000B6FBF0F100FB1167B6FBF0F8044B3A46DD
:10269000414621A0FEF742FE00BF06B0BDE8F08132
:1026A000F75D002041542B49434349440D0A000083
:1026B0004F4B00004E4600085B253035642E253018
:1026C00033642F495D3A2025733A20636865636B54
:1026D0002064657669636520696363696420737546
:1026E00063636573730D0A005B253035642E2530F6
:1026F00033642F455D3A2025733A20636865636B28
:102700002064657669636520696363696420666136
:10271000696C65640D0A00005B253035642E253038
:1027200033642F495D3A2069636369643A202573F5
:102730000D0A000070B586B001210820FEF768FA86
:102740000120ADF8140010208DF8170003208DF83B
:10275000160005A93248FDF76FFE01211020FEF793
:1027600057FA4FF40040ADF8140010208DF8170010
:1027700003208DF8160005A92A48FDF75DFE01200B
:1027800001F052FB284908600846006890B900BF74
:1027900001F076FD04464FF47A70B4FBF0F100FBD3
:1027A0001145B4FBF0F6214B2A46314620A0FEF736
:1027B000B5FD00BF00BF01F063FD04464FF47A7021
:1027C000B4FBF0F100FB1145B4FBF0F62A463146AC
:1027D00025A0FEF7A3FD00BF00202E4A0423CDE96B
:1027E00001200093039003464FF400722AA12D4864
:1027F00001F0ACFC00BF01F043FD04464FF47A70D9
:10280000B4FBF0F100FB1145B4FBF0F6074B2A4690
:10281000314625A0FEF782FD00BF06B070BD000066
:10282000000C0140001001408C000020064600080A
:102830005B253035642E253033642F455D3A2025E5
:10284000733A206661696C656420746F20637265F9
:10285000617465206D7574657820666F72206C32C6
:1028600030360D0A000000005B253035642E25301F
:1028700033642F495D3A20637265617465206C3260
:1028800030362070726F63657373207461736B0DE3
:102890000A000000900000204C32303650726F6306
:1028A00065737300813800085B253035642E253050
:1028B00033642F495D3A20257320646F6E650D0ADD
:1028C00000000000014800787047000094000020DC
:1028D00010B500235A1E19460248006801F0C8FAD4
:1028E00010BD00008C0000202DE9F041002431E0F3
:1028F0003EA000F0C7FA4FF47A713EA000F07CFAD7
:10290000A0B100BF01F0BCFC05464FF47A70B5FBE6
:10291000F0F100FB1156B5FBF0F73246394636A010
:10292000FEF7FCFC00BF0120BDE8F08100BF01F014
:10293000A7FC05464FF47A70B5FBF0F100FB115689
:10294000B5FBF0F73246394634A0FEF7E7FC00BF8E
:10295000601CC4B2012CCBDB00F0D6F80121384852
:10296000FDF7F7FD022000F01CFB01213448FDF7C4
:10297000EEFD0A2000F015FB0220FEF74FFF0024B9
:102980001EE01AA000F07EFA4FF47A7119A000F050
:1029900033FA98B100BF01F073FC05464FF47A702A
:1029A000B5FBF0F100FB1156B5FBF0F732463946A6
:1029B00024A0FEF7B3FC00BF0120B5E7601CC4B241
:1029C000052CDEDB00BF01F05BFC05464FF47A709E
:1029D000B5FBF0F100FB1156B5FBF0F73246394676
:1029E00021A0FEF79BFC00BF00209DE7415445302D
:1029F0000D0A00004F4B00005B253035642E25305A
:102A000033642F495D3A20416C72656164792070AE
:102A10006F7765726F6E210D0A0000005B253035FF
:102A2000642E253033642F455D3A20506F776572F0
:102A3000206F6E206661696C65640D0A00000000FD
:102A4000000C01405B253035642E253033642F495E
:102A50005D3A20706F7765726F6E20737563636582
:102A600073730D0A000000005B253035642E25309D
:102A700033642F455D3A20706F7765726F6E206604
:102A800061696C65640D0A002DE9F0439DB08146D3
:102A90000E4617460024002502974846FDF7ECFB3A
:102AA0000546684601F0D8F800BF1CA90220FEF7D1
:102AB000C3FEE0B19DF8701012A0FEF72FFC9DF848
:102AC00070202046611C8CB203A90A54AC420ED37C
:102AD000601B03AA81182A464846FDF7D4FB30B98B
:102AE000A046224603A93046FDF790FB05E002A967
:102AF000684601F0F1FA0028D7D000BF40461DB06B
:102B0000BDE8F0832563000070B500BF01F0B8FB9D
:102B100004464FF47A70B4FBF0F100FB1145B4FBAE
:102B2000F0F6194B2A46314618A0FEF7F7FB00BF16
:102B30004FF400411B48FDF70CFD022000F031FA74
:102B40004FF400411748FDF702FD012000F029FA7B
:102B50004FF400411348FDF7FCFC022000F021FA7D
:102B600000BF01F08DFB04464FF47A70B4FBF0F126
:102B700000FB1145B4FBF0F6034B2A4631460AA090
:102B8000FEF7CCFB00BF70BD104600085B2530355A
:102B9000642E253033642F495D3A2025733A204551
:102BA0000D0A0000001001405B253035642E2530F1
:102BB00033642F495D3A2025733A20580D0A0000EE
:102BC0002DE9FE4F06460C469046002002908146B5
:102BD00000BF01F055FB82464FF47A70BAFBF0F16A
:102BE00000FB11ABBAFBF0F02E4B5A460146CDE983
:102BF00000602DA0FEF792FB00BFFFF769FE6100A9
:102C000001F10D0000F084F90746600000F10D01AC
:102C10003846FDF714FB2AA24FF480613846FEF7D0
:102C20008DFB1FFA80F900250CE0735D07EB0900AE
:102C300027A24FF48061FEF781FB48441FFA80F918
:102C4000681C85B2A542F0DB384600F01BF922A0D3
:102C500000F018F91FFA88F120A000F0CDF810B1AB
:102C60000120029015E000BF01F00AFB82464FF4FC
:102C70007A70BAFBF0F100FB11ABBAFBF0F0094B34
:102C80005A460146019017A0FEF748FB00BF0020FE
:102C900002903846FEF776FF002700F0A1F8029870
:102CA000BDE8FE8FA44600085B253035642E253034
:102CB00033642F495D3A2025733A2025730D0A00AD
:102CC00041542B5A495053454E443D322C0000008C
:102CD00025303278000000000D0A000053454E44B4
:102CE000204F4B005B253035642E253033642F4553
:102CF0005D3A2025733A2073656E64206661696CC5
:102D000065640D0A0000000070B50220FEF786FD24
:102D100017A000F0B7F8C82119A000F06DF890B125
:102D200000BF01F0ADFA04464FF47A70B4FBF0F145
:102D300000FB1145B4FBF0F6124B2A46314612A0B7
:102D4000FEF7ECFA12E000BF01F09AFA04464FF4E5
:102D50007A70B4FBF0F100FB1145B4FBF0F6094BBF
:102D60002A46314613A0FEF7D9FA00BF70BD000015
:102D700041542B4950523D3131353230300D0A002B
:102D80004F4B00003C4600085B253035642E253053
:102D900033642F495D3A2025733A207365742062AD
:102DA0006175647261746520737563636573730D17
:102DB0000A0000005B253035642E253033642F4532
:102DC0005D3A2025733A20736574206261756472E0
:102DD000617465206661696C65640D0A000000001D
:102DE00010B500231A4619460248006801F0E0F8C1
:102DF00010BD00008C0000202DE9F0419EB005467A
:102E00000E460024A04603962846FDF735FA804674
:102E100001A800F021FF00BF1DA90220FEF70CFD54
:102E200018B39DF8741016A0FEF778FA9DF8740098
:102E30000A280DD1002C09DD4246294604A8FDF7D9
:102E400022FA08B9012716E000240EE000240CE065
:102E5000642C0AD29DF87400202806DB9DF87420AB
:102E60002046611C8CB204A90A5403A901A801F0F0
:102E700033F90028D0D000BF38461EB0BDE8F0813D
:102E8000256300002DE9F04104460220FEF7C6FC50
:102E90002046FDF7F1F985B22A4621460220FEF7C9
:102EA000DAFC00BF01F0ECF905464FF47A70B5FB8F
:102EB000F0F100FB1156B5FBF0F7234632463946D8
:102EC00002A0FEF72BFA00BFBDE8F0815B2530358C
:102ED000642E253033642F495D3A202D3E20257322
:102EE0000D0A0000012080F3108800BFFEF786FC69
:102EF0000548016805A0FEF711FAFDF735FA00F064
:102F0000CBFE00BFFEE7000000000020257300009C
:102F1000F0B50B30154D20F007010024144A0FE0E6
:102F200003688B420BD38B4205D95E1A431847685E
:102F3000C3E9006700E04368136002C004E0021DBB
:102F400010680028ECD12046002802D1286808B17A
:102F50000020F0BD064A07481060074A121A22F006
:102F60000702C0E9002401202860D7E7A400002060
:102F7000A0000020EC660020E86800200246002047
:102F8000704770B505460C46A1B241F2883228461A
:102F9000FFF716FE012801D1002070BD4FF0FF3071
:102FA000FBE710B504464FF47A7104FB01F000F022
:102FB0002FFC10BD10B50446204600F029FC10BDC2
:102FC00010B504460E48006844600E48006884420C
:102FD00007D20B480168091D0B48006800F068FB28
:102FE0000CE007480168091D0848006800F060FB14
:102FF00007480068844201D20548046010BD000003
:103000003000002044000020380000203400002060
:10301000600000202DE9F04106460F461FB9B000C0
:1030200000F010FA00E03846054655B1542000F093
:1030300009FA04460CB1256304E0284600F096FB2B
:1030400000E000242046BDE8F081000070B523E0D8
:1030500000F052FE1348006808B9012000E000208B
:10306000054601F04DFABDB900F048FB0D48C068B7
:10307000C468201D00F0F8FA0B480068401E0A4999
:1030800008600A480068401E0849086000F058FBC4
:10309000204600F062F800BF044800680028D7D13D
:1030A00070BD0000C0190020400000203C0000203E
:1030B00070B504460D46206C70B1216CE068084480
:1030C000E0606168E068884201D32068E0602846DB
:1030D000226CE168FDF79AF870BD2DE9F0410446D5
:1030E0000E4615460027206C40B9206878BB606802
:1030F00001F06AF907460020606028E07DB931469A
:10310000226CA068FDF782F8216CA0680844A060DA
:10311000D4E9011088421AD32068A06017E0314634
:10312000226CE068FDF772F8216CE068401AE060FC
:103130002168E068884203D2216C6068401AE06030
:10314000022D04D1A06B10B1A06B401EA063A06B38
:10315000401CA0633846BDE8F08110B50446206BE2
:1031600000F004FB204600F001FB10BD30B54FF429
:103170008843174800F007042CB1C01D20F0070059
:10318000134C041B1B1B0246124C22600024114DE1
:103190006C60D018083820F007000F4C2060002425
:1031A0000D4D2D686C600C4D2D682C601146441A35
:1031B0004C60094C24680C60084D4C682C60084D2C
:1031C0004C682C604FF00044064D2C6030BD000070
:1031D000E8190020740000207C00002084000020FA
:1031E000800000208800002000BFFFF72FFF034869
:1031F00000680128F9D900F0FFFAF6E7201900204D
:103200002DE9F04704460F4615469946DDF8208023
:10321000002607E0B95D04F134008155B85D00B9BE
:1032200002E0761C102EF5D300BF0021432001558B
:10323000052D00D30425E56265640020A064201DEF
:1032400000F033FA04F1180000F02FFA2461C5F100
:103250000500A06164620020E06484F85000BDE8CD
:10326000F087000010B5002407E004EB84010F4A4A
:1032700002EB810000F00CFA641C052CF5D30C481D
:1032800000F006FA0B4800F003FA0B4800F000FAD1
:103290000A4800F0FDF90A4800F0FAF90448094923
:1032A000086004480849086010BD0000201900208B
:1032B0008419002098190020AC190020C0190020A2
:1032C000D4190020340000203800002010B5014639
:1032D000164800E0006803688B42FBD3024643684F
:1032E00013448B4204D143684C6823444360014635
:1032F0000A464B6813440468A34211D10C4C03687E
:103300002468A34208D04B680468646823444B6077
:1033100003681B680B6005E0054B1B680B6001E050
:1033200003680B60884200D0016010BD740000206B
:103330007C00002070B5054600F0E0F9A86B08B9E4
:10334000012400E0002400F0FBF9204670BD70B5B8
:10335000054600F0D3F9A86BE96B884201D101243E
:1033600000E0002400F0ECF9204670BD0A4909682D
:10337000096809B9012100E0002121B14FF0FF31B6
:10338000064A116006E004490968C968C868034A2A
:103390004168116070470000340000206000002088
:1033A00007480068401C08B9012000E0002018B957
:1033B000FCF70CFF00BFFEE7FCF708FF00BFFEE7CD
:1033C0006800002010B5044600F098F911E0606A2A
:1033D00008B9012000E0002038B904F1240001F010
:1033E00049F818B100F04AFB00E005E0A06C401E6F
:1033F000A064A06C0028EADC00BF4FF0FF30A0649E
:1034000000F09EF900F07AF911E0206908B9012076
:1034100000E0002050B904F1100001F02BF808B1D1
:1034200000F02CFB606C401E606400E002E0606C09
:103430000028EADC00BF4FF0FF30606400F080F944
:1034400010BD00002DE9F04104464FF0000800F0E7
:1034500053FC3C48006808B9FFF788FE3A4800680A
:10346000204000285DD19CB1083404F0070078B1F9
:1034700004F00700C0F10800044404F0070008B994
:10348000012000E0002018B9FCF7A0FE00BFFEE715
:10349000002C46D02D480068844242D82C4E30463D
:1034A000056801E02E462D686868A04202D22868AF
:1034B0000028F7D123480068854232D0306800F1F7
:1034C0000808286830606868001B102812D92F1976
:1034D00007F0070008B9012000E0002018B9FCF748
:1034E00075FE00BFFEE76868001B78606C603846B8
:1034F000FFF7ECFE154968680968081A1349086067
:103500000846006813490968884203D20F480068DA
:10351000104908600C496868096808436860002021
:10352000286000F0EDFF08F0070008B9012000E076
:10353000002018B9FCF74AFE00BFFEE74046BDE890
:10354000F08100007C000020880000208000002026
:1035500074000020840000200648006830B105494E
:10356000096801F14800896C491C01600148006844
:103570007047000030000020001F4FF08073036090
:10358000001F0160001F034B0360143802602038E5
:1035900070470000A13300087FB500BF00F070FE47
:1035A00004464FF47A70B4FBF0F100FB1145B4FB14
:1035B000F0F6184B2A46314617A0FDF7AFFE00BFC4
:1035C0001B481C49C1F824041B48C1F828040020EA
:1035D0001A4A0423CDE901200093039003464FF4D7
:1035E000006217A1194800F0B1FD00BF00F048FECD
:1035F00004464FF47A70B4FBF0F100FB1145B4FBC4
:10360000F0F6044B2A46314611A0FDF787FE00BFB5
:103610007FBD0000DD4600085B253035642E253077
:1036200033642F495D3A2025733A20450D0A000086
:103630007D2F0008BC620020832F00089800002026
:103640004D71747450726F6365737300893A00082A
:103650005B253035642E253033642F495D3A2025B3
:10366000733A20580D0A000001460A69D1E9013079
:103670009860D1E9010358605068884201D1886898
:103680005060002008611068401E1060106870478C
:1036900000F1080141604FF0FF31816000F1080145
:1036A000C160016100210160704700210161704724
:1036B00010B502460B685C1C0CB9106907E002F1FA
:1036C000080000E04068446824689C42FAD94468D5
:1036D0004C604C68A160886041600A611468641C99
:1036E000146010BD42684A6093688B6093685960AB
:1036F0009160086103685B1C0360704710B5FCF7BC
:1037000065FD0D480068401C0B490860BFF34F8FF2
:10371000BFF36F8F0846006801280BD10748006887
:10372000C0B208B9012000E0002018B9FCF74EFD36
:1037300000BFFEE710BD00006800002004ED00E0BF
:1037400010B50948006818B9FCF740FD00BFFEE756
:1037500005480068401E044908600846006810B922
:103760000020FCF73AFD10BD6800002070B5064649
:103770003546002E31D0083D2C461849606809684E
:10378000084008B1012000E0002018B9FCF71EFD38
:1037900000BFFEE7206808B9012000E0002018B94A
:1037A000FCF714FD00BFFEE70C496068096808409B
:1037B00098B1206888B909496068096888436060E1
:1037C00000F09AFA064960680968084404490860EC
:1037D0002046FFF77BFD00F093FE70BD88000020BF
:1037E0008000002003484FF0E02148610720086175
:1037F000704700003F1901004FF0805003490860F6
:10380000BFF34F8FBFF36F8F7047000004ED00E0F0
:1038100070B50446002634B31548006808B9012085
:1038200000E0002018B9FCF7D1FC00BFFEE700F073
:1038300063FA1048006805190F480068001DFFF77B
:1038400013FF50B90C48006890F82C1001208840F4
:103850000A4909688143094801602846FFF7B0FB1F
:1038600000F04EFE06460EB9FFF7C6FF70BD000021
:1038700064000020440000203000002048000020A8
:103880002DE9F041074600BF00F0FAFC04464FF472
:103890007A70B4FBF0F100FB1145B4FBF0F63D4B40
:1038A0002A4631463CA0FDF739FD00BFFFF71CF862
:1038B000012812D100BF00F0E3FC04464FF47A70F7
:1038C000B4FBF0F100FB1145B4FBF0F6314B2A4696
:1038D000314637A0FDF722FD14E000BF00F0D0FC18
:1038E00004464FF47A70B4FBF0F100FB1145B4FBD1
:1038F000F0F6284B2A46314638A0FDF70FFD00BFF1
:10390000BDE8F081FFF700FAFEF74AFAFEF7B2FAD7
:10391000FEF7CAFCFEF758FEFEF732FDFEF7D8F9B7
:10392000FDF7EAFF40F25C7135A0FEF759FBA8B144
:1039300000BF00F0A5FC04464FF47A70B4FBF0F130
:1039400000FB1145B4FBF0F62A46314630A0FDF7E6
:10395000E5FC00BF01203C49087015E000BF00F005
:103960008FFC04464FF47A70B4FBF0F100FB114574
:10397000B4FBF0F62A46314634A0FDF7CFFC00BF79
:10398000002031490870BBE702E00A20FFF712FB74
:10399000FBE70000F54500085B253035642E253037
:1039A00033642F495D3A2025733A20450D0A000003
:1039B0005B253035642E253033642F495D3A202550
:1039C000733A20706F7765726F6E207375636365ED
:1039D000737366756C6C790D0A0000005B253035D9
:1039E000642E253033642F455D3A2025733A2070CC
:1039F0006F7765726F6E206661696C65640D0A0091
:103A00003133392E3232342E3232372E31373400C0
:103A10005B253035642E253033642F495D3A2063B1
:103A20006F6E6E65637420736F636B65742073656E
:103A300072766572207375636365737366756C6CFB
:103A40007921210D0A000000940000205B2530350B
:103A5000642E253033642F455D3A20636F6E6E65AA
:103A6000637420736F636B6574207365727665721F
:103A7000206661696C656421210D0A0001200149FD
:103A8000086070475400002031E000BF00F0F8FBF0
:103A900004464FF47A70B4FBF0F100FB1145B4FB1F
:103AA000F0F6134B2A46314612A0FDF737FC00BF53
:103AB0000A20FFF776FAFEF705FF012817D1134811
:103AC0000621D0F8282412A0904700BF00F0D8FBB0
:103AD00004464FF47A70B4FBF0F100FB1145B4FBDF
:103AE000F0F62A4631460CA0FDF718FC00BFCCE7E3
:103AF000CC4600085B253035642E253033642F49D1
:103B00005D3A2025733A20450D0A0000BC62002072
:103B100048656C6C6F0A00005B253035642E2530DB
:103B200033642F495D3A2073656E642068656C6C60
:103B30006F21210D0A00000070B505460C461DB925
:103B4000FCF744FB00BFFEE7134801681831284624
:103B5000FFF7AEFD10480068001DFFF785FD50B966
:103B60000D48006890F82C10012088400B49096826
:103B700081430A480160601C30B907480168091D8B
:103B80000748FFF7AFFD05E0064800680619304614
:103B9000FFF716FA70BD000030000020480000203A
:103BA000D41900204400002070B505462C46002D95
:103BB0004BD02649E06A0968C96A884245D2A069A3
:103BC00000F0004028B921480068C06AC0F1050033
:103BD000A061E16A01EB81011D4A02EB810160698C
:103BE000884201D1012000E0002050B3201DFFF7E2
:103BF0003BFD78B9E06A00EB8000154951F82000E0
:103C000040B994F82C10012088401249096881437A
:103C1000104801600D480068C06AE06294F82C10FA
:103C2000012088400B49096808430A490860E16A95
:103C300001EB8101064A02EB8100211DFFF752FDD5
:103C400003E002480068C06AE06270BD30000020F6
:103C5000201900204800002010B504461CB9FCF7CC
:103C6000B5FA00BFFEE7034800682060024800681C
:103C7000606010BD580000204400002000BFFDF728
:103C800009FEFEF757FDFFF787FC03E04FF4FA60EB
:103C9000FFF790F9FAE700001FB5002000900190AF
:103CA0000290034680220EA103900F4800F04EFAC6
:103CB0000446012C0DD1FCF789FAA01E0B490860BF
:103CC00001200B49086000200A49086000F05CF8F8
:103CD00004E01CB9FCF77AFA00BFFEE71FBD000044
:103CE00049444C4500000000E93100086000002014
:103CF0004C0000204400002002480068401C01499C
:103D0000086070476400002010B51A48006818B1B8
:103D10000120194908602BE0002017490860174866
:103D20000068B0FA80F0C0F11F0404EB840014496D
:103D300051F8200008B1012000E0002018B9FCF77C
:103D400045FA00BFFEE704EB84010D4A02EB810057
:103D500041684968416000F1080142688A4202D125
:103D60004168496841604168C968064A116000BFFE
:103D700010BD000064000020540000204800002016
:103D800020190020300000201CB522480146097887
:103D90000191FF21024611700146097800919DF8BA
:103DA000001001F010011C4A117007211B4A11601C
:103DB00009E01A490968491E184A11609DF8001067
:103DC0004906090E00919DF8001001F0800180293C
:103DD000EFD0124909680902104A1160114609889A
:103DE00001F4E06111600B4A019911700C48006800
:103DF00040F470000A4908600846006840F07040CE
:103E00000860FFF7EFFC002006490860FCF7ACF9FA
:103E100000201CBD00E400E06C00002070000020C9
:103E200020ED00E06800002070B505464C20FFF74B
:103E300009FB0446D4B1002060602060A060E0600F
:103E4000A0630120E06300202064401E6064A06441
:103E500004F11000FFF71CFC04F12400FFF718FC2C
:103E600000231A461946204600F0A2F8204670BDED
:103E70002DE9FF4383B005460E461F464FF000096B
:103E80002C461CB9FCF7A2F900BFFEE70EB9206C66
:103E900008B9012000E0002018B9FCF797F900BF2D
:103EA000FEE700BFFFF72AFCA06B90B3D4F80C80AC
:103EB00031462046FFF7FCF8B7B9A06B401EA0635F
:103EC000206810B9FFF748FB6060206908B901203D
:103ED00000E00020B8B904F1100000F0CBFA01288E
:103EE00011D1FFF789FC0EE0C4F80C80606A08B9B4
:103EF000012000E0002030B904F1240000F0BAFAFB
:103F000008B1FFF779FCFFF71BFC012007B0BDE803
:103F1000F083FFE7059818B9FFF712FC0020F5E7DA
:103F2000B9F1000F04D101A8FFF796FE4FF0010987
:103F3000FFF706FCFFF7E0FEFFF7E0FB606C401CBC
:103F400008B900206064A06C401C08B90020A0647F
:103F5000FFF7F6FB05A901A800F0BEF808BB204654
:103F6000FFF7E8F9B8B1206830B9FFF7C7FB606820
:103F7000FFF71AFEFFF7E4FB04F124000599FFF7B1
:103F8000DBFD2046FFF71EFA00F0BAFA002889D1BF
:103F9000FFF732FC86E72046FFF714FA00F0B0FA8C
:103FA00080E72046FFF70EFA00F0AAFA0020ADE7FE
:103FB0002DE9FF4383B0064688461D464FF00009B1
:103FC00034461CB9FCF702F900BFFEE7B8F1000F58
:103FD00001D1206C08B9012000E0002018B9FCF7DD
:103FE000F5F800BFFEE7022D02D1E06B012801D1F8
:103FF000012000E0002018B9FCF7E8F800BFFEE758
:1040000000BFFFF77BFBA06BE16B884201D3022D61
:104010001DD12A4641462046FFF75FF80746606AF1
:1040200008B9012000E0002040B904F1240000F0AC
:1040300021FA012805D1FFF7DFFB02E00FB1FFF7FE
:10404000DBFBFFF77DFB012007B0BDE8F08305989F
:1040500018B9FFF775FB0020F6E7B9F1000F04D19E
:1040600001A8FFF7F9FD4FF00109FFF769FBFFF722
:1040700043FEFFF743FB606C401C08B900206064FE
:10408000A06C401C08B90020A064FFF759FB05A9EB
:1040900001A800F021F8C0B92046FFF758F970B127
:1040A00004F110000599FFF747FD2046FFF78AF954
:1040B00000F026FA0028A4D1FFF79EFBA1E72046D6
:1040C000FFF780F900F01CFA9BE72046FFF77AF92A
:1040D00000F016FA0020B7E72DE9F04104460D463E
:1040E0001CB9FCF773F800BFFEE71DB9FCF76EF8CA
:1040F00000BFFEE7FFF702FB124807682868401C74
:1041000008B9002619E0104920680968884204D0DF
:104110006068B84201D801260FE06068381A296843
:10412000884209D228686168791A401A28602046B6
:10413000FFF792FD002600E00126FFF701FB304665
:10414000BDE8F08144000020580000202DE9FF4F19
:1041500081B0804616469A46DDE90E5BB8F1000F45
:1041600003D1FCF733F800BFFEE7052D01D2012093
:1041700000E0002018B9FCF729F800BFFEE7304640
:104180001099FEF747FF0446002C5AD0701E216B91
:1041900001EB800929F0070909F0070008B901209F
:1041A00000E0002018B9FCF711F800BFFEE7009608
:1041B0002A462046119B0299FFF722F852464146B3
:1041C0004846FFF7D9F92060BBF1000F01D0CBF8CA
:1041D0000040FFF793FA24480068401C2249086019
:1041E0002248006840B92148046008460068012858
:1041F0000CD1FFF737F809E01D48006830B91B48BB
:104200000068C06AA84201D81848046019480068CC
:10421000401C1849086094F82C1001208840164969
:104220000968084314490860E16A01EB8101134AF7
:1042300002EB8100211DFFF755FA0127FFF780FAF5
:1042400001E04FF0FF37012F09D10948006830B174
:1042500006480068C06AA84201D2FFF7CDFA384686
:1042600005B0BDE8F08F00004000002030000020C5
:104270004C0000205C000020480000202019002095
:104280000149086870470000440000202DE9F04112
:104290004FF0000841480068002872D1404800688B
:1042A000401C3F49086008460668DEB93D48006882
:1042B000006808B9012000E0002018B9FBF786FF6C
:1042C00000BFFEE73748076837480068354908608F
:1042D0003548076035480068401C34490860FFF7DE
:1042E00045F800BF3248006886423CD300BF2D48E5
:1042F0000068006808B9012000E0002020B14FF0FC
:10430000FF302B4908602DE026480068C068C4686B
:104310006568AE4202D22648056023E0201DFFF703
:10432000A3F9A06A18B104F11800FFF79DF994F8F9
:104330002C10012088401F49096808431D49086066
:10434000E16A01EB81011C4A02EB8100211DFFF7AC
:10435000C9F91A49E06A0968C96A8842C7D34FF0A7
:104360000108C4E700BF15480068C06A00EB800080
:10437000114951F82000012808D94FF0010805E043
:10438000FFE70F480068401C0D4908600D480068B1
:1043900008B14FF001084046BDE8F08164000020FC
:1043A0004400002034000020380000205800002085
:1043B000600000204800002020190020300000206C
:1043C000500000205400002070B505462C46002601
:1043D000002D47D024480068844201D1012000E02C
:1043E000002018B9FBF7F2FE00BFFEE7A06C18B979
:1043F000FBF7ECFE00BFFEE7A06C401EA064616C02
:10440000E06A88422ED0A06C60BB201DFFF72CF91B
:1044100078B9E06A00EB8000144951F8200040B9F7
:1044200094F82C10012088401149096881431048F4
:104430000160606CE062E06AC0F10500A06194F880
:104440002C10012088400A4909680843084908607F
:10445000E16A01EB8101054A02EB8100211DFFF7B2
:1044600041F90126304670BD30000020201900209F
:104470004800002070B50646F068C4681CB9FBF718
:10448000A5FE00BFFEE704F11800FFF7EDF816489F
:104490000068A8B9201DFFF7E7F894F82C10012058
:1044A000884012490968084310490860E16A01EB35
:1044B00081010F4A02EB8100211DFFF713F904E08F
:1044C00004F118010B48FFF70DF90B49E06A096880
:1044D000C96A884204D9012501200849086000E022
:1044E0000025284670BD0000640000204800002020
:1044F00020190020AC1900203000002054000020BA
:1045000070B500253048006818B9FBF75FFE00BFA2
:10451000FEE7FFF7F3F82C480068401E2A490860C0
:104520000846006800284BD128480068002847D07A
:1045300024E02748C068C46804F11800FFF794F825
:10454000201DFFF791F894F82C1001208840214994
:10455000096808431F490860E16A01EB81011E4AAE
:1045600002EB8100211DFFF7BDF81C49E06A0968D4
:10457000C96A884202D301201949086014480068BA
:1045800008B9012000E000200028D2D015480068BA
:1045900078B10AE0FFF77AFE10B1012010490860F7
:1045A00010480068401E0F4908600E480068002847
:1045B000F0D10B480068012802D10125FFF71CF952
:1045C000FFF7BEF8284670BD6400002040000020C0
:1045D000AC190020480000202019002030000020E5
:1045E0005400002050000020647269766572735F89
:1045F000696E697400765461736B4C323036507258
:104600006F63657373006C3230365F696E69740076
:104610006C3230365F7265736574006C3230365FB1
:10462000706F7765726F6666006C3230365F6373E9
:1046300071006C3230365F63676D72006C323036F9
:104640005F7365745F6261756472617465006C327A
:1046500030365F6963636964006C3230365F63676C
:10466000736E006C3230365F6370696E006C32308E
:10467000365F63726567006C3230365F6367617402
:1046800074006C3230365F6674705F6765745F66A5
:10469000696C65006C3230365F6674705F636F6E94
:1046A000666967006C3230365F73656E64006C3229
:1046B00030365F636F6E6E65637400666C6173683D
:1046C0005F7461626C655F696E69740076546173D2
:1046D0006B4D71747450726F6365737300746869A5
:1046E0006E5F6D7174745F696E6974007468696E71
:1046F0005F6D7174745F636F6E6E65637400746870
:10470000696E5F6D7174745F646973636F6E6E65FB
:104710006374007468696E5F6D7174745F70696E44
:1047200067007468696E5F6D7174745F7075626C38
:10473000697368007468696E5F6D7174745F737516
:1047400062736372696265002B2B2B2B2B2B2B2B37
:104750002B2B2B2B2B2B2B2B2B2B2B2B2B2B2B2BA9
:104760002B2B2B2B2B2B2B2B2B2B2B2B2B2B2B2B99
:104770002B2B2B0D0A2B2020202020202020202036
:104780002020202020202020202020202020202029
:104790002020202020202020202020202020202B0E
:1047A0000D0A2B20202020202020202020202056F1
:1047B000656869636C65556E696F6E2E6F726720F0
:1047C0002020202020202020202020202B0D0A2BFC
:1047D0002020202020202020202020202056323081
:1047E00031382E303232362E303120202020202019
:1047F0002020202020202020202B0D0A2B202020CC
:1048000020202020202020202020202020202020A8
:104810002020202020202020202020202020202098
:104820002020202020202B0D0A2B2B2B2B2B2B2B59
:104830002B2B2B2B2B2B2B2B2B2B2B2B2B2B2B2BC8
:104840002B2B2B2B2B2B2B2B2B2B2B2B2B2B2B2BB8
:104850002B2B2B2B0D0A5468697320697320617010
:104860007021210D0A000000884800080000002087
:10487000A80000006413000830490008A8000020C8
:104880004070000074130008484700080000000052
:104890000000000048454C4C4F2121000000000062
:1048A00000000000000000010203040102030406EE
:1048B00007080902040608000000000000000000CC
:1048C00000000000000000000000000000000000E8
:1048D00000000000000000000000000000000000D8
:1048E00000000000000000000000000000000000C8
:1048F000AAAAAAAA00000000000000000000000010
:1049000000000000000000000000000000000000A7
:104910000000000000000000000000000000000097
:104920000000000000000000000000000000000087
:0400000508000131BD
:00000001FF
