:020000040800F2
:10000000286D0020E901000845090008A90500083D
:1000100041090008ED030008F51000080000000089
:100020000000000000000000000000004501000882
:10003000870400080000000089010008410C000846
:10004000030200080302000803020008030200087C
:10005000030200080302000803020008030200086C
:10006000030200080302000803020008030200085C
:10007000030200080302000803020008030200084C
:10008000030200080302000803020008030200083C
:10009000030200080302000803020008030200082C
:1000A000030200080302000803020008030200081C
:1000B000030200080302000803020008030200080C
:1000C00003020008030200080302000803020008FC
:1000D00003020008D10C0008E10C0008F10C000834
:1000E00003020008030200080302000803020008DC
:1000F00003020008030200080302000803020008CC
:1001000003020008030200080302000803020008BB
:10011000C10C0008030200080302000803020008E3
:10012000030200080302000803020008030200089B
:10013000DFF80CD000F0F4F800480047F12A00087E
:10014000286D0020204B19680868B0E8F00F80F394
:100150000988BFF36F8F4FF0000080F311884EF0D5
:100160000D0E70470000000006480068006880F32C
:10017000088862B661B6BFF34F8FBFF36F8F00DFA1
:1001800000BF00BF08ED00E0EFF30980BFF36F8F01
:100190000D4B1A6820E9F00F106008B54FF0100001
:1001A00080F3118803F0ECFB4FF0000080F311881E
:1001B000BDE8084019680868B0E8F00F80F30988C6
:1001C000BFF36F8F704700BF3C000020EFF311803A
:1001D0004FF0100181F31188704780F31188704748
:1001E000EFF3058070470000064880470648004747
:1001F000FEE7FEE7FEE7FEE7FEE7FEE7FEE7FEE7D7
:10020000FEE7FEE7610C00083101000810B5431A53
:10021000934209D28318881803E010F8011D03F8EF
:10022000011D521EF9D210BD40EA01039B0703D005
:1002300009E008C9121F08C0042AFAD203E011F825
:10024000013B00F8013B521EF9D210BDD2B201E0D1
:1002500000F8012B491EFBD270470022F6E710B5CB
:1002600013460A4604461946FFF7F0FF204610BD24
:1002700030B505462A460B4612F8010B13F8014B20
:1002800008B1A042F8D01CB1002802D06D1CF1E7E3
:10029000284630BD421C10F8011B0029FBD1801AF2
:1002A000704730B504460020034600E05B1C9342D3
:1002B00003D2E05CCD5C401BF8D030BD2DE9F05F8F
:1002C0000546002092469B468846064681464024C5
:1002D0001BE0284641464746224600F042F8534676
:1002E0005A46C01A914110D311461846224600F0D2
:1002F00029F82D1A67EB01084F46224601200021FC
:1003000000F020F817EB00094E41201EA4F1010473
:10031000DFDC484631462A464346BDE8F09F0000F0
:10032000064C074D06E0E06840F0010394E8070042
:1003300098471034AC42F6D3FFF7FEFE784400082D
:1003400098440008202A04DB203A00FA02F1002039
:1003500070479140C2F1200320FA03F31943904003
:100360007047202A04DB203A21FA02F0002170476E
:1003700021FA02F3D040C2F120029140084319460D
:10038000704700001FB501F081F900200D4A0823D5
:10039000CDE901200093039003464FF400620AA1C7
:1003A0000C4803F00FFD00200B4A0623CDE9012085
:1003B0000093039003464FF4006208A10A4803F03B
:1003C00001FD1FBD080000204C32303650726F63B3
:1003D00065737300AD3400080C0000204D71747417
:1003E00050726F6365737300B936000800BFFEE793
:1003F000014609B900207047012901D10748FAE7F1
:10040000022901D10648F6E7032901D10548F2E7A0
:10041000042901D10020EEE70020ECE7B400002021
:10042000DC0800200411002008B526208DF800000B
:1004300001208DF8010000208DF8020001208DF8C8
:100440000300684600F080FA27208DF800000120A4
:100450008DF8010000208DF8020001208DF80300C6
:10046000684600F071FA34208DF8000001208DF804
:10047000010000208DF8020001208DF8030068467D
:1004800000F062FA08BD70472DE9F04102460025F0
:100490000026002000230024002791F803C00CF060
:1004A0000F0591F803C00CF0100CBCF1000F03D045
:1004B00091F802C04CEA050591F800C0BCF1000FAC
:1004C00031D0146800202BE04FF0010C0CFA00F33F
:1004D000B1F800C00CEA03069E4220D183004FF021
:1004E0000F0C0CFA03F7BC4305FA03FC4CEA0404B6
:1004F00091F803C0BCF1280F06D14FF0010C0CFAA3
:1005000000FCC2F814C00AE091F803C0BCF1480F27
:1005100005D14FF0010C0CFA00FCC2F810C0401CD1
:100520000828D1D31460B1F800C0BCF1FF0F34DD4E
:10053000546800202EE000F1080C4FF0010808FA82
:100540000CF3B1F800C00CEA03069E4221D18300EF
:100550004FF00F0C0CFA03F7BC4305FA03FC4CEA0E
:10056000040491F803C0BCF1280F05D100F1080C78
:1005700008FA0CF8C2F8148091F803C0BCF1480FD7
:1005800007D100F1080C4FF0010808FA0CF8C2F886
:100590001080401C0828CED35460BDE8F081416132
:1005A000704701617047000009A100200CE00A5C5F
:1005B000124B1A8000BF114A121F128802F040022B
:1005C000002AF8D0421CD0B22A28F0D300BFFEE7A0
:1005D0000D0A456E74657220486172644661756CDF
:1005E000745F48616E646C65722C20537973746516
:1005F0006D2048616C742E0D0A0000000438014023
:1006000000B585B00121052000F0F0F90121480472
:1006100000F0DCF90420ADF8100018208DF813006C
:1006200003208DF8120004A96648FFF72DFF08206B
:10063000ADF8100004208DF8130004A96148FFF7FD
:1006400023FF04A95F48FFF71FFF4FF4E13000903C
:100650000020ADF80400ADF80600ADF80800ADF8D4
:100660000C000C20ADF80A006946574800F0ACFBBE
:10067000012240F22551544800F081FB01215248EB
:1006800000F047FB4021504800F03AFB01210820D0
:1006900000F0ACF910208DF8130003208DF8120043
:1006A0000420ADF8100004A94848FFF7EDFE012131
:1006B000092000F09BF90121880400F087F94FF42C
:1006C0008060ADF8100018208DF8130003208DF81D
:1006D000120004A93D48FFF7D7FE4FF40060ADF8C3
:1006E000100004208DF8130004A93848FFF7CCFE51
:1006F00004A93648FFF7C8FE4FF4E130009000200F
:10070000ADF80400ADF80600ADF80800ADF80C0037
:100710000C20ADF80A0069462D4800F055FB012277
:1007200040F225512A4800F02AFB0121284800F018
:10073000F0FA4021264800F0E3FA0121112000F0F0
:1007400055F90121C80400F041F94FF48060ADF87B
:10075000100018208DF8130003208DF8120004A952
:100760001C48FFF791FE4FF40060ADF81000042024
:100770008DF8130004A91748FFF786FE4FF4E13007
:1007800000900020ADF80400ADF80600ADF80800B8
:10079000ADF80C000C20ADF80A0069460E4800F0D8
:1007A00013FB012240F225510B4800F0E8FA012129
:1007B000094800F0AEFA4021074800F0A1FA05B060
:1007C00000BD00000008014000440040000C014052
:1007D0000048004000100140004C004000B585B0CA
:1007E00000F030F84FF480511448FFF7DAFE002093
:1007F000ADF800004FF48270ADF802000020ADF8B3
:1008000004000220ADF806000120ADF80800400207
:10081000ADF80A000820ADF80C000020ADF80E007D
:100820000720ADF810006946054800F077F901216E
:10083000034800F059F905B000BD0000000C01406C
:100840000038004008B50121880300F0BFF80121FD
:10085000082000F0CBF818208DF8030003208DF855
:1008600002004FF40050ADF8000069461048FFF751
:100870000BFE4FF40040ADF8000069460C48FFF74E
:1008800003FE4FF48040ADF8000069460848FFF7CA
:10089000FBFD4FF48050ADF8000010208DF80300F0
:1008A00003208DF8020069460148FFF7EDFD08BD01
:1008B000000C01402DE9F04100240025002600270E
:1008C0004FF480510F48FFF76AFE9F2000F01CF89C
:1008D000A52000F019F80546A52000F015F80646F9
:1008E000A52000F011F807464FF480510548FFF7A6
:1008F00058FE280440EA062040EA07042046BDE8E6
:10090000F0810000000C014010B5044600BF022138
:100910000A4800F0F5F80028F9D02146074800F011
:10092000FBF800BF0121054800F0EAF80028F9D0E3
:10093000024800F0EEF8C0B210BD000000380040E0
:1009400000BFFEE77047000070B5002100230F22B2
:10095000C47804B3154C246804F4E064C4F5E0647E
:10096000210AC1F10403CA40447804FA03F18478EF
:100970001440214309010E4C0678A155047804F077
:100980001F050124AC4005786D11AD0005F1E0258F
:10099000C5F8004109E0047804F01F050124AC40CB
:1009A000044D0678761145F8264070BD0CED00E048
:1009B00000E400E080E100E002490143024A1160E6
:1009C000704700000000FA050CED00E029B1064A6E
:1009D000D2690243044BDA6104E0034AD2698243DC
:1009E000014BDA61704700000010024029B1064A4D
:1009F00092690243044B9A6104E0034A926982437C
:100A0000014B9A61704700000010024030B5002190
:100A10000022002400232D4D6D6805F00C0121B14A
:100A2000042905D0082923D105E0294D056022E0DD
:100A3000284D05601FE0254D6D6805F47012234DAB
:100A40006D6805F48034022505EB92421CB9224DF5
:100A5000554305600BE01D4D6D6805F400351DB173
:100A60001E4D5543056002E01A4D5543056002E0F6
:100A7000174D056000BF00BF144D6D6805F0F00113
:100A80000909174D6B5C0568DD4045600F4D6D68C9
:100A900005F4E061090A124D6B5C4568DD40856034
:100AA0000A4D6D6805F46051C90A0D4D6B5C4568CF
:100AB000DD40C560054D6D6805F44041890B094D69
:100AC0006B5CC568B5FBF3F5056130BD00100240F5
:100AD00000127A00001BB70000093D00808D5B000A
:100AE000270000203700002021B1028842F0400298
:100AF000028004E002884FF6BF731A4002807047FC
:100B00000246002013890B400BB1012000E00020B9
:100B100070470146888970478181704710B500226F
:100B2000028802F441520B884C8823438C8823436B
:100B3000CC8823430C8923434C8923438C8923434A
:100B4000CC8923431A430280838B4FF2FF742340E6
:100B500083830B8A038210BD10B500F001F810BD2D
:100B60000CB50020019000903348006840F48030BC
:100B70003149086000BF3048006800F40030009040
:100B80000198401C0190009818B90198B0F5A06F29
:100B9000F1D12948006800F4003010B10120009024
:100BA00001E0002000900098012843D1234800680C
:100BB00040F01000214908600846006820F003005A
:100BC00008600846006840F0020008601A48406863
:100BD000194948600846406848600846406840F443
:100BE000806048600846406820F47C1048600846F1
:100BF000406840F4881048600846006840F0807003
:100C0000086000BF0C48006800F000700028F9D0B0
:100C10000948406820F003000749486008464068DA
:100C200040F00200486000BF0348406800F00C003C
:100C30000828F9D10CBD000000100240002002403D
:100C400010B5FFF7C3FA03F05DF918B14FF080500B
:100C5000024908600020FFF7C0FA10BD04ED00E073
:100C600010B51348006840F00100114908600846BB
:100C70004068104908400E494860084600680E491F
:100C800008400B4908600846006820F4802008608E
:100C90000846406820F4FE0048604FF41F0088605A
:100CA000FFF75AFF4FF000600449086010BD0000D4
:100CB000001002400000FFF8FFFFF6FE08ED00E024
:100CC00010B5024800F016F910BD00000411002014
:100CD00010B5024800F053FD10BD0000785E002002
:100CE00010B5024800F006F910BD0000B400002065
:100CF00010B5024800F0FEF810BD0000DC0800202E
:100D000001F40072B2F5007F00D100BFCA43028037
:100D1000704721B1828942F40052828104E08289C5
:100D20004DF6FF731A408281704770B50246002469
:100D300000230025002040F66A16B14200D100BF12
:100D4000C1F3421501F01F03012606FA03F3012D3A
:100D500002D19689334006E0022D02D1168A334033
:100D600001E0968A33400C12012606FA04F4168834
:100D7000344013B10CB1012000E0002070BDF0B58B
:100D80000346002400260025002040F66A17B942D9
:100D900000D100BF1846C1F3421401F01F0601271D
:100DA00007FA06F5012C01D10C3004E0022C01D128
:100DB000103000E014301AB107682F43076002E0DA
:100DC0000768AF430760F0BD2DE9F04786B00546E0
:100DD0000E460024A24600BFA1460027B08900B1FC
:100DE00000BF2F462C8A4CF6FF700440F088044365
:100DF0002C82AC894EF6F3100440B0883189084348
:100E0000718908430443AC81AC8A4FF6FF4004402B
:100E1000B0890443AC8201A8FFF7F8FD1F48874260
:100E200002D1DDF810A001E0DDF80CA0A88900F4E3
:100E3000004040B10AEBCA0000EB0A1031684900DB
:100E4000B0FBF1F807E00AEBCA0000EB0A103168CA
:100E50008900B0FBF1F86420B8FBF0F00401200930
:100E6000642101FB1089A88900F4004040B13220C0
:100E700000EBC900B0FBF1F000F00700044308E00C
:100E8000322000EB09106421B0FBF1F000F00F00FC
:100E900004432C8106B0BDE8F08700000038014013
:100EA00001468888C0F308007047C1F308028280B9
:100EB000704770B504460D4602F036FA668B02F0B4
:100EC00055FA0EB9002070BD218BA068405C2870D7
:100ED00002F02AFA208B401C80B22083E1898842EC
:100EE00001DB00202083608B401E608302F03EFA0D
:100EF0000120E8E770B5044640F225512068FFF76D
:100F000014FFE0B12068FFF7CBFFC5B2E18AA0680B
:100F10004554E08A401C80B2E082E189884201DBCE
:100F20000020E082608BE189884202DA608B401CFD
:100F30006083606A10B12846616A884700BF40F24A
:100F400027712068FFF7F1FE08B3A08A60B900227C
:100F500040F227712068FFF712FF012240F226615C
:100F60002068FFF70CFF37E0638A6268D15C206875
:100F7000FFF79BFF608A401C80B26082A189884293
:100F800001DB00206082A08A401EA08224E040F2A3
:100F900026612068FFF7C9FEF0B1A08A50B900228F
:100FA00040F226612068FFF7EAFE206AA0B1206ABD
:100FB000804711E0638A6268D15C2068FFF775FFA3
:100FC000608A401C80B26082A189884201DB0020D7
:100FD0006082A08A401EA08270BDF8B504460E460D
:100FE0001746002525E00CE002F09EF9A08A00904B
:100FF00002F0BCF9A089BDF80010884200DD01E0D4
:1010000000BFF1E700BF705D228A6168885402F07A
:101010008BF9208A401C80B22082A189884201DBA2
:1010200000202082A08A401CA08202F09FF9681C48
:1010300085B2BD42D7DB012240F227712068FFF75D
:101040009EFEF8BD1F48204908602048486020489F
:1010500088604FF480608881C881002008824882BF
:10106000C882088348838882C86108624862194838
:101070001949086019484860194888604FF4806031
:101080008881C881002008824882C88208834883FA
:101090008882C86108624862124813490860134890
:1010A0004860134888604FF480608881C8810020C0
:1010B00008824882C882088348838882C86108629F
:1010C0004862704700440040B4000020DC0000206B
:1010D000DC04002000480040DC0800200409002057
:1010E000040D0020004C0040041100202C110020B1
:1010F0002C15002000BFFEE70FB4054B10B503A967
:10110000044A029800F02CF810BC5DF814FB0000B3
:10111000F5160008A80000200FB41CB50A46521EA0
:10112000CDE9000207A9054B6A46069800F018F8B9
:10113000009A002111701CBC5DF814FBC315000857
:1011400002E008C8121F08C1002AFAD17047704790
:10115000002001E001C1121F002AFBD170470000EE
:101160002DE9FF4F8DB00F460546002606E02528E5
:101170000BD0DDE90F1290476D1C761C28780028F3
:10118000F5D111B03046BDE8F08F0024A246A1464B
:101190000122EC4900E0044315F8013F203B02FA2C
:1011A00003F00842F7D128782A2810D06FF02F02D8
:1011B0002878A0F13001092914D80AEB8A0102EB42
:1011C000410144F0020400EB010A6D1CF0E701CF7D
:1011D0005FEA000A03D544F40054CAF1000A44F05F
:1011E00002046D1C28782E2817D115F8010F44F041
:1011F00004042A280ED06FF02F022878A0F13001C5
:1012000009290AD809EB890102EB410100EB010928
:101210006D1CF2E757F8049B6D1C28786C280FD0E2
:1012200006DC4C2817D068280DD06A2814D104E0B9
:10123000742810D07A280FD10DE044F400140AE08D
:1012400044F4801401E044F440146978814202D1EE
:1012500004F580146D1C6D1C2A786E2A1FD00CDCDE
:10126000632A31D004DC002A8BD0582A11D1A3E0A4
:10127000642A68D0692A0CD165E0732A2ED004DC78
:101280006F2A73D0702A04D19BE0752A6FD0782A18
:101290006ED01046DDE90F129047761C50E1C4F382
:1012A0000250022806D0032809D0042801CF09D013
:1012B000066045E101CFF117C0E9006140E101CFCF
:1012C00006803DE106703BE117F8040B8DF8000045
:1012D00000208DF80100EB46012003E057F804BB25
:1012E0004FF0FF3061074FF0000102D40DE008F12C
:1012F0000101884649450FDA8045F8DB1BF80810E4
:101300000029F4D108E008F1010188468142FADBA6
:101310001BF808100029F6D1DDE90F23AAEB08001D
:101320008146214600F036F9304400EB080604E01F
:10133000DDE90F121BF8010B9047B8F10108F7D255
:1013400021464846F7E00A21C4F302534FF0000B50
:101350000891022B04D001CFC117032B09D00AE05A
:10136000FF1D27F00707F7E8020108E032E01FE061
:1013700020E000B2C117042B01D140B2C117031EF7
:1013800071F1000307DA4FF0000CD0EB0C006CEBAE
:1013900001012D2302E0230504D52B238DF82430F1
:1013A000012303E0E30701D02023F7E7984658E044
:1013B0000A2110E010210EE010204FF0000B0890E1
:1013C0000CE010214FF0000B44F004044FF008092A
:1013D000089103E008214FF0000B0891C4F3025379
:1013E000022B04D001CF0021032B06D006E0FF1D05
:1013F00027F00707F7E8020103E080B2042B00D1D1
:10140000C0B24FF0000823072BD5702A07D0DDF8B3
:1014100020C08CF0100C5CEA0B0C05D00EE04023D1
:101420008DF82430012308E050EA010306D0302370
:101430008DF824308DF8252002239846DDF820C051
:101440008CF0080C5CEA0B0C0BD150EA010301D1C3
:10145000630706D530238DF824304FF00108A9F139
:101460000109582A04D038A20B9208AA0A920BE06C
:101470003AA2F9E75B46089AFEF720FF0B9B9B5CBC
:101480000A9A521E0A92137050EA0102F2D10A9887
:10149000ADEB000000F1200B600702D524F480348E
:1014A00001E04FF00109D94502DDA9EB0B0000E096
:1014B000002000EB0B0141440890AAEB010AE00375
:1014C00006D4DDE90F232146504600F063F80644B8
:1014D0004FF0000908E009A911F80900DDE90F1231
:1014E000904709F10109761CC145F4DBE0030CD5F6
:1014F000DDE90F232146504600F04CF8064404E095
:10150000DDE90F1230209047761C0899481E08909C
:101510000029F5DC08E00A980A990078491C0A912C
:10152000DDE90F129047761CBBF10001ABF1010B16
:10153000F1DC21465046DDE90F2300F019F806449E
:101540006D1C1BE609280100303132333435363743
:1015500038396162636465660000000030313233FF
:10156000343536373839414243444546000000009F
:101570002DE9F041044600251E461746880404D490
:1015800005E039462020B0476D1C641EF9D5284679
:10159000BDE8F0812DE9F041044600251E46904645
:1015A000C80301D5302700E02027880404D505E0D2
:1015B00041463846B0476D1C641EF9D52846BDE843
:1015C000F0814A68002A06D00A68531C0B6010702C
:1015D0004868401E4860704710B54FF44070FFF7F0
:1015E000EBF900F001F810BD10B5FFF72BFDFFF788
:1015F00007F8FEF719FF10BD00B503461846FEF7C1
:10160000F7FE024602B900BD0020D082108350834D
:1016100000BFF8E700B503461846FEF7E9FE0246AC
:1016200002B900BD002010825082908200BFF8E70E
:1016300070B505460E462846FEF7DAFE04460CB99C
:10164000002070BD31462046FFF733FCF9E72DE955
:10165000F04105460E4617462846FEF7C9FE0446E9
:101660000CB9BDE8F081E06908B1E06980473A460D
:1016700031462046FFF7B1FC00BFF2E713B5044640
:10168000012201A92046FFF7E2FF1CBDF8B501F0D9
:10169000F7F9FFF7A3F8FFF70DF9054600BF02F0D1
:1016A0002BFC04464FF47A70B4FBF0F100FB1146BA
:1016B000B4FBF0F7044B3246394604A00095FFF71F
:1016C0001BFD00BFF8BD0000604200085B253035FF
:1016D000642E253033642F495D3A2025733A2072F9
:1016E00065616420666C6173682069642025780DEB
:1016F0000A00000070B504460D46E1B20120FFF774
:10170000BDFF204670BD000010B5002821D0114B50
:101710000022001F196803E0814203D80A46496885
:101720000029F9D152B11368841A9C4204D100688F
:1017300018441060104602E0506000E0186039B1B3
:1017400002680B1A934203D10B681A44026049687D
:10175000416010BDAC00002010B5044610220249C3
:101760002046FEF753FD10BD675E0020014630297C
:1017700003DB392901DC012070470020FCE770B54C
:10178000044640F225512068FFF7CFFAB8B120682F
:10179000FFF786FBC5B2E18AA0684554E08A401C89
:1017A00080B2E082E189884201DB0020E082608B28
:1017B000E189884202DA608B401C608300BF40F2FE
:1017C00027712068FFF7B1FA08B3A08A60B9002238
:1017D00040F227712068FFF7D2FA012240F2266119
:1017E0002068FFF7CCFA33E0638A6268D15C206836
:1017F000FFF75BFB608A401C80B26082A18988424F
:1018000001DB00206082A08A401EA08220E040F21E
:1018100026612068FFF789FAD0B1A08A30B900228A
:1018200040F226612068FFF7AAFA11E0638A626835
:10183000D15C2068FFF739FB608A401C80B260826F
:10184000A189884201DB00206082A08A401EA0821C
:1018500070BD00002DE9F0410220FFF7CDFE1AA077
:1018600001F0C8F840F6B8311AA001F07DF8A0B137
:1018700000BF02F041FB05464FF47A70B5FBF0F172
:1018800000FB1156B5FBF0F7134B3246394613A057
:10189000FFF732FC00BF012413E000BF02F02CFB75
:1018A00005464FF47A70B5FBF0F100FB1156B5FB1D
:1018B000F0F7094B3246394611A0FFF71DFC00BF77
:1018C00000242046BDE8F08141542B434741545445
:1018D0003F0D0A004F4B0000EF4200085B253035FA
:1018E000642E253033642F495D3A2025733A2063F6
:1018F0006761747420737563636573730D0A000008
:101900005B253035642E253033642F455D3A202524
:10191000733A206367617474206661696C65640D55
:101920000A00000070B50220FFF766FE17A001F064
:1019300061F84FF4FA6118A001F016F890B100BFF9
:1019400002F0DAFA04464FF47A70B4FBF0F100FBCF
:101950001145B4FBF0F6114B2A46314610A0FFF7B3
:10196000CBFB12E000BF02F0C7FA04464FF47A70D6
:10197000B4FBF0F100FB1145B4FBF0F6074B2A462F
:10198000314612A0FFF7B8FB00BF70BD41542B4396
:10199000474D520D0A0000004F4B0000AA420008BC
:1019A0005B253035642E253033642F495D3A202580
:1019B000733A20636865636B2076657273696F6E36
:1019C00020737563636573730D0A00005B25303502
:1019D000642E253033642F455D3A2025733A206309
:1019E0006865636B2076657273696F6E20666169E6
:1019F0006C65640D0A0000002DE9F04186B01421E9
:101A000001A8FEF72AFC0F213148FEF726FC022030
:101A1000FFF7F2FD2FA000F0EDFFC82201A930A0D2
:101A200000F0E4FD90B100BF02F066FA06464FF404
:101A30007A70B6FBF0F100FB1167B6FBF0F8294BAA
:101A40003A46414628A0FFF757FB15E000BF02F0D9
:101A500053FA06464FF47A70B6FBF0F100FB1167BB
:101A6000B6FBF0F81F4B3A4641462BA0FFF744FB6C
:101A700000BF06B0BDE8F081002408E001A9085DC0
:101A8000FFF774FE08B1254603E0601CC4B2142CB5
:101A9000F4DB00BF052C05DA01A841190F220C4820
:101AA000FEF7B4FB00BF02F027FA06464FF47A7047
:101AB000B6FBF0F100FB1167B6FBF0F8044B3A46B9
:101AC000414621A0FFF718FB00BF00BFD1E700008F
:101AD000585E002041542B4347534E0D0A0000002E
:101AE0004F4B0000D14200085B253035642E253075
:101AF00033642F495D3A2025733A20636865636B30
:101B00002064657669636520696D65692073756316
:101B1000636573730D0A00005B253035642E253034
:101B200033642F455D3A2025733A20636865636B03
:101B30002064657669636520696D65692066616901
:101B40006C65640D0A0000005B253035642E25307D
:101B500033642F495D3A20696D65693A2025730D1C
:101B60000A0000002DE9F043A3B004460D46022010
:101B7000FFF742FD56A000F03DFF4FF4FA515BA085
:101B800000F0F2FEA0B100BF02F0B6F907464FF434
:101B90007A70B7FBF0F100FB1178B7FBF0F9544B0A
:101BA0004246494653A0FFF7A7FA00BF012614E0BA
:101BB00000BF02F0A1F907464FF47A70B7FBF0F1CD
:101BC00000FB1178B7FBF0F9494B4246494654A057
:101BD000FFF792FA00BF002675E05CA000F00AFF54
:101BE00041F2883141A000F0BFFEA0B100BF02F079
:101BF00083F907464FF47A70B7FBF0F100FB1178D8
:101C0000B7FBF0F93A4B4246494654A0FFF774FA45
:101C100000BF012614E000BF02F06EF907464FF442
:101C20007A70B7FBF0F100FB1178B7FBF0F9304B9D
:101C30004246494653A0FFF75FFA00BF002642E044
:101C4000802103A8FEF709FB234659A24FF48061C7
:101C500003A80095FFF760FA03A800F0CBFE42F25C
:101C6000107159A000F080FEB0B100BF02F044F93D
:101C700007464FF47A70B7FBF0F100FB1178B7FB21
:101C8000F0F91B4B4246494652A0CDE90045FFF70B
:101C900033FA00BF012615E000BF02F02DF9074618
:101CA0004FF47A70B7FBF0F100FB1179B7FBF0F855
:101CB0000F4B4A46414652A0CDE90045FFF71CFABA
:101CC00000BF002600BF304623B0BDE8F08300000F
:101CD00041542B5A49504346473D756E696D326DEC
:101CE0002E6E6A6D326D61706E0D0A004F4B0000F2
:101CF000264300085B253035642E253033642F4998
:101D00005D3A2025733A20726567697374657220A5
:101D10006770727320737563636573730D0A0000D7
:101D20005B253035642E253033642F455D3A202500
:101D3000733A207265676973746572206770727395
:101D4000206661696C65640D0A00000041542B5ADD
:101D5000495043414C4C3D310D0A00005B25303564
:101D6000642E253033642F495D3A2025733A207A5A
:101D7000697063616C6C20737563636573730D0ABE
:101D8000000000005B253035642E253033642F457C
:101D90005D3A2025733A207A697063616C6C206724
:101DA000707273206661696C65640D0A0000000042
:101DB00041542B5A49504F50454E3D322C302C2522
:101DC000732C25640D0A0000434F4E4E45435420AA
:101DD0004F4B00005B253035642E253033642F498E
:101DE0005D3A2025733A20636F6E6E65637420251B
:101DF000733A256420737563636573730D0A00007D
:101E00005B253035642E253033642F455D3A20251F
:101E1000733A20636F6E6E6563742025733A256490
:101E2000206661696C65640D0A0000002DE9F041CF
:101E30000220FFF7E1FB1AA000F0DCFDC8211BA087
:101E400000F092FDA0B100BF02F056F805464FF435
:101E50007A70B5FBF0F100FB1156B5FBF0F7144BAF
:101E60003246394613A0FFF747F900BF012413E0BB
:101E700000BF02F041F805464FF47A70B5FBF0F16F
:101E800000FB1156B5FBF0F7094B3246394613A05B
:101E9000FFF732F900BF00242046BDE8F0810000C2
:101EA00041542B4350494E3F0D0A00004F4B000058
:101EB000DB4200085B253035642E253033642F4922
:101EC0005D3A2025733A20636865636B2073696D02
:101ED00020737563636573730D0A00005B253035ED
:101EE000642E253033642F455D3A2025733A2063F4
:101EF0006865636B2073696D206661696C65640D4C
:101F00000A0000002DE9F04788B020216846FEF75E
:101F1000A4F9002660E000F0B3F8012000F044FED0
:101F20000220FFF769FB30A000F064FD4FF47A72E5
:101F3000694630A000F05AFBA8B100BF01F0DCFFF9
:101F400007464FF47A70B7FBF0F100FB1179B7FB4D
:101F5000F0FA294B4A46514628A0FFF7CDF800BFBA
:101F60004FF0010814E000BF01F0C6FF07464FF430
:101F70007A70B7FBF0F100FB1179B7FBF0FA1E4B5A
:101F80004A46514629A0FFF7B7F800BF4FF00008B6
:101F900032A16846FEF76CF9054668783038C4B25D
:101FA00000BF01F0A9FF07464FF47A70B7FBF0F1CC
:101FB00000FB1179B7FBF0FA23464A46514628A0A8
:101FC000FFF79AF800BF012C01D0052C02D14FF089
:101FD000010803E0701CC6B20A2E9CDB00BF40461D
:101FE00008B0BDE8F087000041542B435245473FFD
:101FF0000D0A00004F4B0000E54200085B2530351C
:10200000642E253033642F495D3A2025733A2072BF
:1020100065676973746572206E6574776F726B2083
:10202000737563636573730D0A0000005B253035BB
:10203000642E253033642F455D3A2025733A207293
:1020400065676973746572206E6574776F726B2053
:102050006661696C65640D0A000000002C000000D8
:102060005B253035642E253033642F495D3A20736B
:102070007461747573203D2025640D0A0000000012
:1020800070B50220FFF7B8FA17A000F0B3FCC82122
:1020900018A000F069FC90B100BF01F02DFF0446CC
:1020A0004FF47A70B4FBF0F100FB1145B4FBF0F68D
:1020B000114B2A46314611A0FFF71EF812E000BF6F
:1020C00001F01AFF04464FF47A70B4FBF0F100FB04
:1020D0001145B4FBF0F6084B2A46314611A0FFF734
:1020E0000BF800BF70BD000041542B4353510D0A43
:1020F000000000004F4B0000A14200085B25303576
:10210000642E253033642F495D3A2025733A2063CD
:102110006865636B206373712073756363657373A4
:102120000D0A00005B253035642E253033642F45C1
:102130005D3A2025733A20636865636B2063737191
:10214000206661696C65640D0A0000002DE9F041AC
:102150008CB0142102A8FEF780F80F214B48FEF73F
:102160007CF80220FFF748FA0220FFF753FA48A054
:1021700000F040FC4FF47A7202A948A000F036FA51
:1021800090B100BF01F0B8FE06464FF47A70B6FB7E
:10219000F0F100FB1167B6FBF0F8414B3A464146BF
:1021A00040A0FEF7A9FF12E000BF01F0A5FE064621
:1021B0004FF47A70B6FBF0F100FB1167B6FBF0F854
:1021C000374B3A46414643A0FEF796FF00BF00BF9B
:1021D00001F092FE06464FF47A70B6FBF0F100FB78
:1021E0001167B6FBF0F802AB3A46414645A0FEF750
:1021F00083FF00BF00240DE002A8015D48A0FEF7A8
:102200007BFF02A9085DFFF7B1FA08B1254603E09C
:10221000601CC4B2282CEFDB00BF1FA0FEF76CFFD0
:1022200000BF01F069FE06464FF47A70B6FBF0F18C
:1022300000FB1167B6FBF0F8194B3A4641463AA04D
:102240000094FEF759FF00BF142C08DA02A84119C8
:102250000F220E48FDF7DAFF00200C49C87300BFBB
:1022600001F04AFE06464FF47A70B6FBF0F100FB2F
:102270001167B6FBF0F8054B3A46414631A0FEF730
:102280003BFF00BF0CB0BDE8F0810000675E00209E
:1022900041542B49434349440D0A00004F4B000071
:1022A000C64200085B253035642E253033642F4943
:1022B0005D3A2025733A20636865636B2064657618
:1022C000696365206963636964207375636365731B
:1022D000730D0A005B253035642E253033642F459D
:1022E0005D3A2025733A20636865636B20646576E8
:1022F000696365206963636964206661696C65640C
:102300000D0A00005B253035642E253033642F49DB
:102310005D3A206275663A2025730D0A00000000C0
:1023200025303278200000005B253035642E2530C2
:1023300033642F495D3A2025733A2069203D2025DA
:10234000640D0A005B253035642E253033642F4937
:102350005D3A2069636369643A2025730D0A0000C1
:10236000F8B501210820FEF741FB0120ADF800007F
:1023700010208DF8030003208DF8020069461848EC
:10238000FEF782F801211020FEF730FB4FF40040E9
:10239000ADF8000010208DF8030003208DF8020036
:1023A00069461048FEF770F8012001F079FB0E49EC
:1023B00008600846006890B900BF01F09DFD044622
:1023C0004FF47A70B4FBF0F100FB1145B4FBF0F66A
:1023D000064B2A46314606A0FEF78EFE00BFF8BD2A
:1023E000000C014000100140980000207E420008CF
:1023F0005B253035642E253033642F455D3A20252A
:10240000733A206661696C656420746F206372653D
:10241000617465206D7574657820666F72206C320A
:1024200030360D0A000000000148007870470000B7
:102430009C00002010B500235A1E1946024800686F
:1024400001F052FB10BD0000980000202DE9F04182
:10245000002431E03EA000F0CDFA4FF47A713EA0A6
:1024600000F082FAA0B100BF01F046FD05464FF42E
:102470007A70B5FBF0F100FB1156B5FBF0F7324670
:10248000394636A0FEF738FE00BF0120BDE8F081D6
:1024900000BF01F031FD05464FF47A70B5FBF0F155
:1024A00000FB1156B5FBF0F73246394634A0FEF773
:1024B00023FE00BF601CC4B2012CCBDB00F0D6F8B9
:1024C00001213848FEF76DF8022000F06DFB012174
:1024D0003448FEF764F80A2000F066FB0220FFF79C
:1024E0008BF800241EE01AA000F084FA4FF47A71F1
:1024F00019A000F039FA98B100BF01F0FDFC0546C3
:102500004FF47A70B5FBF0F100FB1156B5FBF0F714
:102510003246394624A0FEF7EFFD00BF0120B5E7A3
:10252000601CC4B2052CDEDB00BF01F0E5FC0546F3
:102530004FF47A70B5FBF0F100FB1156B5FBF0F7E4
:102540003246394621A0FEF7D7FD00BF00209DE7A7
:10255000415445300D0A00004F4B00005B253035DB
:10256000642E253033642F495D3A20416C726561D9
:10257000647920706F7765726F6E210D0A0000001C
:102580005B253035642E253033642F455D3A20506D
:102590006F776572206F6E206661696C65640D0AE5
:1025A00000000000000C01405B253035642E253012
:1025B00033642F495D3A20706F7765726F6E2073B8
:1025C0007563636573730D0A000000005B25303589
:1025D000642E253033642F455D3A20706F77657225
:1025E0006F6E206661696C65640D0A002DE9F04329
:1025F0009DB081460E4617460024002502974846A6
:10260000FDF748FE0546684601F070F900BF1CA9B9
:102610000220FFF70DF8E0B19DF8701012A0FEF750
:102620006BFD9DF870202046611C8CB203A90A54F2
:10263000AC420ED3601B03AA81182A464846FDF718
:1026400030FE30B9A046224603A93046FDF7DEFD34
:1026500005E002A9684601F07BFB0028D7D000BF47
:1026600040461DB0BDE8F0832563000070B500BF93
:1026700001F042FC04464FF47A70B4FBF0F100FB29
:102680001145B4FBF0F6194B2A46314618A0FEF767
:1026900033FD00BF4FF400411B48FDF782FF0220CD
:1026A00000F082FA4FF400411748FDF778FF01204F
:1026B00000F07AFA4FF400411348FDF772FF022050
:1026C00000F072FA00BF01F017FC04464FF47A7074
:1026D000B4FBF0F100FB1145B4FBF0F6034B2A46C6
:1026E00031460AA0FEF708FD00BF70BD8842000811
:1026F0005B253035642E253033642F495D3A202523
:10270000733A20450D0A0000001001405B2530356A
:10271000642E253033642F495D3A2025733A2058C2
:102720000D0A00002DE9FE4F06460C46904600209B
:102730000290814600BF01F0DFFB82464FF47A70C1
:10274000BAFBF0F100FB11ABBAFBF0F02E4B5A468E
:102750000146CDE900602DA0FEF7CEFC00BFFFF7DB
:1027600069FE610001F10D0000F0D8F90746600034
:1027700000F10D013846FDF770FD2AA24FF480618B
:102780003846FEF7C9FC1FFA80F900250CE0735D9E
:1027900007EB090027A24FF48061FEF7BDFC484417
:1027A0001FFA80F9681C85B2A542F0DB384600F0BC
:1027B00021F922A000F01EF91FFA88F120A000F0F4
:1027C000D3F810B10120029015E000BF01F094FB96
:1027D00082464FF47A70BAFBF0F100FB11ABBAFB02
:1027E000F0F0094B5A460146019017A0FEF784FC11
:1027F00000BF002002903846FEF786FF002700F059
:10280000A7F80298BDE8FE8F1C4300085B25303511
:10281000642E253033642F495D3A2025733A2025F4
:10282000730D0A0041542B5A495053454E443D32D2
:102830002C00000025303278000000000D0A000056
:1028400053454E44204F4B005B253035642E2530D8
:1028500033642F455D3A2025733A2073656E6420FA
:102860006661696C65640D0A0000000070B50220A5
:10287000FEF7C2FE1AA000F0BDF84FF47A711CA05A
:1028800000F072F890B100BF01F036FB04464FF43F
:102890007A70B4FBF0F100FB1145B4FBF0F6154B78
:1028A0002A46314614A0FEF727FC12E000BF01F0D3
:1028B00023FB04464FF47A70B4FBF0F100FB1145A2
:1028C000B4FBF0F60B4B2A46314616A0FEF714FC7B
:1028D00000BF0220FEF79EFE0220FEF78DFE70BDB7
:1028E00041542B4950523D3131353230300D0A00C0
:1028F0004F4B0000B44200085B253035642E253074
:1029000033642F495D3A2025733A20736574206241
:102910006175647261746520737563636573730DAB
:102920000A0000005B253035642E253033642F45C6
:102930005D3A2025733A2073657420626175647274
:10294000617465206661696C65640D0A00000000B1
:1029500010B500231A4619460248006801F064F9D0
:1029600010BD0000980000202DE9F0419EB0054602
:102970000E460024A04603962846FDF78BFC8046B1
:1029800001A800F0B3FF00BF1DA90220FEF750FE12
:1029900018B39DF8741016A0FEF7AEFB9DF87400F6
:1029A0000A280DD1002C09DD4246294604A8FDF76E
:1029B00078FC08B9012716E000240EE000240CE0A2
:1029C000642C0AD29DF87400202806DB9DF8742040
:1029D0002046611C8CB204A90A5403A901A801F085
:1029E000B7F90028D0D000BF38461EB0BDE8F0814E
:1029F000256300002DE9F04104460220FEF7FCFDAE
:102A00002046FDF747FC85B22A4621460220FEF704
:102A10001EFEFFF709FDA0B900F028F800BF01F085
:102A20006BFA05464FF47A70B5FBF0F100FB1156D6
:102A3000B5FBF0F723463246394606A0FEF75CFBAD
:102A400006E000F04BF8322000F0B7F800F046F84E
:102A5000BDE8F0815B253035642E253033642F4985
:102A60005D3A202D3E2025730D0A000010B500F0C0
:102A70002FF8642000F0A1F800F024F810BD000049
:102A800008B501211020FDF7B1FF00F01BF803206D
:102A90008DF8020010208DF803004020ADF80000F2
:102AA00069460548FDF7F0FC0120044908606420F0
:102AB0000349086008BD000000100140A00000208C
:102AC000A400002040200149086170470010014027
:102AD0004020014948617047001001400348C06828
:102AE00080F040000149C8607047000000100140BC
:102AF000012080F3108800BFFEF76EFD05480168D5
:102B000005A0FEF7F9FAFDF73DFC00F001FF00BF5C
:102B1000FEE700000000002025730000F0B50B3038
:102B2000154D20F007010024144A0FE003688B4282
:102B30000BD38B4205D95E1A43184768C3E9006777
:102B400000E04368136002C004E0021D1068002822
:102B5000ECD12046002802D1286808B10020F0BD41
:102B6000064A07481060074A121A22F00702C0E915
:102B7000002401202860D7E7B0000020AC0000202E
:102B80002C6300202865002070B505460C46A1B2D4
:102B900041F288322846FFF7C5FD012801D1002007
:102BA00070BD4FF0FF30FBE710B504464FF47A716B
:102BB00004FB01F000F042FC10BD10B504462046B5
:102BC00000F03CFC10BD000010B504460E48006843
:102BD00044600E480068844207D20B480168091D12
:102BE0000B48006800F07AFB0CE007480168091DFB
:102BF0000848006800F072FB07480068844201D270
:102C00000548046010BD00003C000020500000207A
:102C100044000020400000206C0000202DE9F0411D
:102C200006460F461FB9B00000F010FA00E0384623
:102C3000054655B1542000F009FA04460CB125634D
:102C400004E0284600F0A8FB00E000242046BDE890
:102C5000F081000070B523E000F08AFE13480068A0
:102C600008B9012000E00020054601F085FABDB951
:102C700000F05AFB0D48C068C468201D00F00AFB34
:102C80000B480068401E0A4908600A480068401E58
:102C90000849086000F06AFB204600F062F800BFB7
:102CA000044800680028D7D170BD0000301A002009
:102CB0004C0000204800002070B504460D46206CF2
:102CC00070B1216CE0680844E0606168E0688842A7
:102CD00001D32068E0602846226CE168FDF796FA8F
:102CE00070BD2DE9F04104460E4615460027206CC4
:102CF00040B9206878BB606801F0A2F9074600205F
:102D0000606028E07DB93146226CA068FDF77EFA4C
:102D1000216CA0680844A060D4E9011088421AD34D
:102D20002068A06017E03146226CE068FDF76EFA7B
:102D3000216CE068401AE0602168E068884203D2B4
:102D4000216C6068401AE060022D04D1A06B10B1C4
:102D5000A06B401EA063A06B401CA0633846BDE87A
:102D6000F08110B50446206B00F016FB204600F001
:102D700013FB10BD30B54FF48843174800F007042B
:102D80002CB1C01D20F00700134C041B1B1B024676
:102D9000124C22600024114D6C60D018083820F0CD
:102DA00007000F4C206000240D4D2D686C600C4D09
:102DB0002D682C601146441A4C60094C24680C6044
:102DC000084D4C682C60084D4C682C604FF0004456
:102DD000064D2C6030BD0000581A002080000020F5
:102DE00088000020900000208C000020940000202B
:102DF00000BFFFF72FFF034800680128F9D900F052
:102E000011FBF6E72C1900202DE9F04704460F4688
:102E100015469946DDF82080002607E0B95D04F1EB
:102E200034008155B85D00B902E0761C102EF5D350
:102E300000BF0021432001550A2D00D30925E5627A
:102E400065640020A064201D00F045FA04F118001C
:102E500000F041FA2461C5F10A00A061646200201B
:102E6000E06484F85000BDE8F087000010B500244D
:102E700007E004EB84010F4A02EB810000F01EFA28
:102E8000641C0A2CF5D30C4800F018FA0B4800F02B
:102E900015FA0B4800F012FA0A4800F00FFA0A4837
:102EA00000F00CFA04480949086004480849086021
:102EB00010BD00002C190020F4190020081A002071
:102EC0001C1A0020301A0020441A00204000002064
:102ED0004400002010B50146164800E00068036871
:102EE0008B42FBD30246436813448B4204D14368B0
:102EF0004C682344436001460A464B681344046807
:102F0000A34211D10C4C03682468A34208D04B683B
:102F10000468646823444B6003681B680B6005E029
:102F2000054B1B680B6001E003680B60884200D012
:102F3000016010BD800000208800002070B50546AB
:102F400000F0F2F9A86B08B9012400E0002400F0B9
:102F50000DFA204670BD70B5054600F0E5F9A86B86
:102F6000E96B884201D1012400E0002400F0FEF961
:102F7000204670BD0A490968096809B9012100E0C5
:102F8000002121B14FF0FF31064A116006E00449EB
:102F90000968C968C868034A416811607047000041
:102FA000400000206C00002007480068401C08B961
:102FB000012000E0002018B9FDF708F900BFFEE786
:102FC000FDF704F900BFFEE77400002010B50446C9
:102FD00000F0AAF911E0606A08B9012000E00020C1
:102FE00038B904F1240001F081F818B100F05EFB5B
:102FF00000E005E0A06C401EA064A06C0028EADCA4
:1030000000BF4FF0FF30A06400F0B0F900F08CF981
:1030100011E0206908B9012000E0002050B904F156
:10302000100001F063F808B100F040FB606C401E36
:10303000606400E002E0606C0028EADC00BF4FF052
:10304000FF30606400F092F910BD00002DE9F041FE
:1030500004464FF0000800F08BFC3C48006808B9BB
:10306000FFF788FE3A480068204000285DD19CB1F7
:10307000083404F0070078B104F00700C0F108003C
:10308000044404F0070008B9012000E0002018B94A
:10309000FDF79CF800BFFEE7002C46D02D480068E5
:1030A000844242D82C4E3046056801E02E462D68F9
:1030B0006868A04202D228680028F7D12348006837
:1030C000854232D0306800F10808286830606868AE
:1030D000001B102812D92F1907F0070008B901208A
:1030E00000E0002018B9FDF771F800BFFEE768683E
:1030F000001B78606C603846FFF7ECFE1549686885
:103100000968081A134908600846006813490968E5
:10311000884203D20F480068104908600C4968686B
:103120000968084368600020286001F025F808F06D
:10313000070008B9012000E0002018B9FDF746F8A3
:1031400000BFFEE74046BDE8F08100008800002097
:10315000940000208C0000208000002090000020BF
:103160000648006830B10549096801F14800896CDA
:10317000491C016001480068704700003C000020C5
:10318000001F4FF080730360001F0160001F034B9E
:10319000036014380260203870470000A92F00082F
:1031A0002DE9F04FA5B0074688469146802105A835
:1031B000FDF753F800240020049082463B4620A2ED
:1031C000802105A8CDE90089FDF7A6FF0446002669
:1031D00004E005A8805D80EA0A0A761CA642F8DBB6
:1031E00005A9081953461AA28021FDF795FF04444A
:1031F000214605A8FFF7C8FC0546002D1DDA00BFD3
:1032000000F07AFE83464FF47A70BBFBF0F100FBCE
:1032100011B003904FF47A70BBFBF0F00290049869
:103220000D4BCDE900400DA0DDE90212FDF764FF72
:1032300000BF002025B0BDE8F08F0120FAE70000B4
:103240003E3E25732C494F542F25732C25732C009B
:10325000253032780A000000534300085B253035E2
:10326000642E253033642F455D3A2025733A20774C
:10327000726974652025642062797465732C2061FD
:10328000637475616C2077726974652025640D0A1A
:103290000000000001460A69D1E901309860D1E9D7
:1032A000010358605068884201D18868506000204E
:1032B00008611068401E10601068704700F1080136
:1032C00041604FF0FF31816000F10801C160016190
:1032D00000210160704700210161704710B502466E
:1032E0000B685C1C0CB9106907E002F1080000E0F3
:1032F0004068446824689C42FAD944684C604C6831
:10330000A160886041600A611468641C146010BD8B
:1033100042684A6093688B60936859609160086165
:1033200003685B1C0360704710B5FCF74FFF0D4846
:103330000068401C0B490860BFF34F8FBFF36F8FCD
:103340000846006801280BD107480068C0B208B9D8
:10335000012000E0002018B9FCF738FF00BFFEE7AD
:1033600010BD00007400002004ED00E010B5094815
:10337000006818B9FCF72AFF00BFFEE7054800689F
:10338000401E044908600846006810B90020FCF798
:1033900024FF10BD7400002070B506463546002E8F
:1033A00031D0083D2C46184960680968084008B1CA
:1033B000012000E0002018B9FCF708FF00BFFEE77D
:1033C000206808B9012000E0002018B9FCF7FEFED3
:1033D00000BFFEE70C4960680968084098B12068A2
:1033E00088B90949606809688843606000F0C0FADC
:1033F0000649606809680844044908602046FFF7E8
:1034000069FD00F0B9FE70BD940000208C00002022
:1034100003484FF0E0214861072008617047000031
:103420003F1901004FF0805003490860BFF34F8FF0
:10343000BFF36F8F7047000004ED00E070B50446E5
:10344000002634B31548006808B9012000E00020C8
:1034500018B9FCF7BBFE00BFFEE700F089FA104880
:10346000006805190F480068001DFFF713FF50B9E9
:103470000C48006890F82C10012088400A4909681F
:103480008143094801602846FFF79EFB00F074FE67
:1034900006460EB9FFF7C6FF70BD000070000020A1
:1034A000500000203C000020540000202DE9F04195
:1034B000074600BF00F020FD04464FF47A70B4FBCD
:1034C000F0F100FB1145B4FBF0F63E4B2A463146C5
:1034D0003DA0FDF711FE00BFFEF742FFFEF7B6FF6D
:1034E000012812D100BF00F007FD04464FF47A70A6
:1034F000B4FBF0F100FB1145B4FBF0F6314B2A466A
:10350000314637A0FDF7F8FD14E000BF00F0F4FCF1
:1035100004464FF47A70B4FBF0F100FB1145B4FBA4
:10352000F0F6284B2A46314638A0FDF7E5FD00BFEE
:10353000BDE8F081FFF79AF9FEF7F4F9FEF75CFABF
:10354000FEF774FCFEF702FEFEF7DCFCFEF782F9E4
:1035500040F25C7136A0FEF705FBB8B100BF00F089
:10356000CBFC04464FF47A70B4FBF0F100FB11453C
:10357000B4FBF0F62A46314631A0FDF7BDFD00BF91
:10358000FFF7A6FA01203C49087016E0FFF79AFA07
:1035900000BF00F0B1FC04464FF47A70B4FBF0F1C8
:1035A00000FB1145B4FBF0F62A46314633A0FDF787
:1035B000A3FD00BF00203049087002E00A20FFF799
:1035C000F3FAFBE76D4200085B253035642E2530A9
:1035D00033642F495D3A2025733A20450D0A0000D7
:1035E0005B253035642E253033642F495D3A202524
:1035F000733A20706F7765726F6E207375636365C1
:10360000737366756C6C790D0A0000005B253035AC
:10361000642E253033642F455D3A2025733A20709F
:103620006F7765726F6E206661696C65640D0A0064
:103630003133392E3232342E3232372E3137340094
:103640005B253035642E253033642F495D3A206385
:103650006F6E6E65637420736F636B657420736542
:1036600072766572207375636365737366756C6CCF
:103670007921210D0A0000009C0000205B253035D7
:10368000642E253033642F455D3A20636F6E6E657E
:10369000637420736F636B657420736572766572F3
:1036A000206661696C656421210D0A0001200149D1
:1036B000086070476000002010212648FCF7CDFD0F
:1036C00046E000BF00F018FC04464FF47A70B4FBEB
:1036D000F0F100FB1145B4FBF0F61F4B2A463146D2
:1036E0001EA0FDF709FD00BFFEF79EFED8B11948E8
:1036F000FEF732F800BF00F0FFFB04464FF47A708B
:10370000B4FBF0F100FB1145B4FBF0F6114B2A4677
:10371000314618A0FDF7F0FC00BF1EA21FA10D4806
:10372000FFF73EFD11E000BF00F0E6FB04464FF45A
:103730007A70B4FBF0F100FB1145B4FBF0F62A46B9
:1037400031461AA0FDF7D8FC00BF0A20FFF72CFA7B
:10375000B7E7000014630020334300085B253035D1
:10376000642E253033642F495D3A2025733A204575
:103770000D0A00005B253035642E253033642F4957
:103780005D3A206465766963652069643A20257333
:103790000D0A00003132303000000000454E472F46
:1037A000444154412F52504D000000005B253035FC
:1037B000642E253033642F495D3A20636F6E6E6549
:1037C0006374696E672E2E2E0D0A000070B50546D3
:1037D0000C461DB9FCF7FAFC00BFFEE71348016870
:1037E00018312846FFF77AFD10480068001DFFF7E2
:1037F00051FD50B90D48006890F82C100120884008
:103800000B49096881430A480160601C30B90748C8
:103810000168091D0748FFF77BFD05E006480068C1
:1038200006193046FFF7D0F970BD00003C000020BB
:1038300054000020441A00205000002070B50546B6
:103840002C46002D4BD02649E06A0968C96A884297
:1038500045D2A06900F0004028B921480068C06A3C
:10386000C0F10A00A061E16A01EB81011D4A02EB8F
:1038700081016069884201D1012000E0002050B33D
:10388000201DFFF707FD78B9E06A00EB80001549BD
:1038900051F8200040B994F82C10012088401249BA
:1038A00009688143104801600D480068C06AE06201
:1038B00094F82C10012088400B49096808430A49F4
:1038C0000860E16A01EB8101064A02EB8100211DDB
:1038D000FFF71EFD03E002480068C06AE06270BDA9
:1038E0003C0000202C1900205400002010B5044694
:1038F0001CB9FCF76BFC00BFFEE7034800682060C2
:1039000002480068606010BD640000205000002084
:103910001FB50020009001900290034680220EA166
:1039200003900F4800F04EFA0446012C0DD1FCF72D
:103930004DFCA01E0B49086001200B4908600020C7
:103940000A49086000F05CF804E01CB9FCF73EFC92
:1039500000BFFEE71FBD000049444C4500000000C9
:10396000F12D00086C0000205800002050000020BD
:1039700002480068401C0149086070477000002040
:1039800010B51A48006818B10120194908602BE0E9
:1039900000201749086017480068B0FA80F0C0F1AD
:1039A0001F0404EB8400144951F8200008B10120E1
:1039B00000E0002018B9FCF709FC00BFFEE704EBAB
:1039C00084010D4A02EB810041684968416000F1C1
:1039D000080142688A4202D14168496841604168F1
:1039E000C968064A116000BF10BD000070000020C9
:1039F00060000020540000202C1900203C00002012
:103A00001CB52248014609780191FF210246117038
:103A10000146097800919DF8001001F010011C4A40
:103A2000117007211B4A116009E01A490968491EF3
:103A3000184A11609DF800104906090E00919DF882
:103A4000001001F080018029EFD0124909680902B5
:103A5000104A11601146098801F4E06111600B4AB7
:103A6000019911700C48006840F470000A49086020
:103A70000846006840F070400860FFF7C9FC00206D
:103A800006490860FCF770FB00201CBD00E400E064
:103A9000780000207C00002020ED00E07400002071
:103AA00070B505464C20FFF7D1FA0446D4B100208A
:103AB00060602060A060E060A0630120E0630020FF
:103AC0002064401E6064A06404F11000FFF7F6FB60
:103AD00004F12400FFF7F2FB00231A4619462046A2
:103AE00000F0A2F8204670BD2DE9FF4383B00546E3
:103AF0000E461F464FF000092C461CB9FCF766FB2A
:103B000000BFFEE70EB9206C08B9012000E00020DC
:103B100018B9FCF75BFB00BFFEE700BFFFF704FC32
:103B2000A06B90B3D4F80C8031462046FFF7C4F860
:103B3000B7B9A06B401EA063206810B9FFF710FB57
:103B40006060206908B9012000E00020B8B904F1E4
:103B5000100000F0CBFA012811D1FFF763FC0EE052
:103B6000C4F80C80606A08B9012000E0002030B978
:103B700004F1240000F0BAFA08B1FFF753FCFFF794
:103B8000F5FB012007B0BDE8F083FFE7059818B901
:103B9000FFF7ECFB0020F5E7B9F1000F04D101A815
:103BA000FFF7A4FE4FF00109FFF7E0FBFFF7E0FE8F
:103BB000FFF7BAFB606C401C08B900206064A06C81
:103BC000401C08B90020A064FFF7D0FB05A901A89C
:103BD00000F0BEF808BB2046FFF7B0F9B8B1206886
:103BE00030B9FFF7A1FB6068FFF728FEFFF7BEFBC7
:103BF00004F124000599FFF7E9FD2046FFF7E6F9F7
:103C000000F0BAFA002889D1FFF70CFC86E72046BD
:103C1000FFF7DCF900F0B0FA80E72046FFF7D6F9AD
:103C200000F0AAFA0020ADE72DE9FF4383B0064675
:103C300088461D464FF0000934461CB9FCF7C6FA09
:103C400000BFFEE7B8F1000F01D1206C08B90120D8
:103C500000E0002018B9FCF7B9FA00BFFEE7022D1A
:103C600002D1E06B012801D1012000E0002018B949
:103C7000FCF7ACFA00BFFEE700BFFFF755FBA06BF7
:103C8000E16B884201D3022D1DD12A4641462046D0
:103C9000FFF727F80746606A08B9012000E0002016
:103CA00040B904F1240000F021FA012805D1FFF702
:103CB000B9FB02E00FB1FFF7B5FBFFF757FB01209F
:103CC00007B0BDE8F083059818B9FFF74FFB002057
:103CD000F6E7B9F1000F04D101A8FFF707FE4FF096
:103CE0000109FFF743FBFFF743FEFFF71DFB606C85
:103CF000401C08B900206064A06C401C08B900207A
:103D0000A064FFF733FB05A901A800F021F8C0B9B2
:103D10002046FFF720F970B104F110000599FFF774
:103D200055FD2046FFF752F900F026FA0028A4D1ED
:103D3000FFF778FBA1E72046FFF748F900F01CFAEF
:103D40009BE72046FFF742F900F016FA0020B7E79C
:103D50002DE9F04104460D461CB9FCF737FA00BFC7
:103D6000FEE71DB9FCF732FA00BFFEE7FFF7DCFA09
:103D7000124807682868401C08B9002619E0104955
:103D800020680968884204D06068B84201D80126DA
:103D90000FE06068381A2968884209D2286861688B
:103DA000791A401A28602046FFF7A0FD002600E09F
:103DB0000126FFF7DBFA3046BDE8F0815000002015
:103DC000640000202DE9FF4F81B0804616469A46D8
:103DD000DDE90E5BB8F1000F03D1FCF7F7F900BF86
:103DE000FEE70A2D01D2012000E0002018B9FCF7FF
:103DF000EDF900BFFEE730461099FEF70FFF0446CD
:103E0000002C5AD0701E216B01EB800929F00709A4
:103E100009F0070008B9012000E0002018B9FCF7FC
:103E2000D5F900BFFEE700962A462046119B02996D
:103E3000FEF7EAFF524641464846FFF7A1F92060E7
:103E4000BBF1000F01D0CBF80040FFF76DFA24481A
:103E50000068401C224908602248006840B9214897
:103E600004600846006801280CD1FEF7FFFF09E056
:103E70001D48006830B91B480068C06AA84201D8D4
:103E80001848046019480068401C1849086094F8F4
:103E90002C1001208840164909680843144908601D
:103EA000E16A01EB8101134A02EB8100211DFFF75A
:103EB0002FFA0127FFF75AFA01E04FF0FF37012FE1
:103EC00009D10948006830B106480068C06AA842B4
:103ED00001D2FFF7A7FA384605B0BDE8F08F000021
:103EE0004C0000203C00002058000020680000200A
:103EF000540000202C190020014908687047000078
:103F0000500000202DE9F0414FF0000841480068C2
:103F1000002872D140480068401C3F4908600846AC
:103F20000668DEB93D480068006808B9012000E075
:103F3000002018B9FCF74AF900BFFEE737480768C8
:103F400037480068354908603548076035480068DB
:103F5000401C34490860FFF70DF800BF3248006884
:103F600086423CD300BF2D480068006808B9012094
:103F700000E0002020B14FF0FF302B4908602DE019
:103F800026480068C068C4686568AE4202D2264808
:103F9000056023E0201DFFF77DF9A06A18B104F148
:103FA0001800FFF777F994F82C10012088401F497A
:103FB000096808431D490860E16A01EB81011C4A58
:103FC00002EB8100211DFFF7A3F91A49E06A096895
:103FD000C96A8842C7D34FF00108C4E700BF15483B
:103FE0000068C06A00EB8000114951F820000128E8
:103FF00008D94FF0010805E0FFE70F480068401CB2
:104000000D4908600D48006808B14FF001084046AE
:10401000BDE8F0817000002050000020400000202A
:1040200044000020640000206C00002054000020A8
:104030002C1900203C0000205C00002060000020C3
:1040400070B505462C460026002D47D02448006850
:10405000844201D1012000E0002018B9FCF7B6F835
:1040600000BFFEE7A06C18B9FCF7B0F800BFFEE790
:10407000A06C401EA064616CE06A88422ED0A06CE7
:1040800060BB201DFFF706F978B9E06A00EB8000FD
:10409000144951F8200040B994F82C1001208840B0
:1040A00011490968814310480160606CE062E06A70
:1040B000C0F10A00A06194F82C10012088400A4940
:1040C0000968084308490860E16A01EB8101054A73
:1040D00002EB8100211DFFF71BF90126304670BD60
:1040E0003C0000202C1900205400002070B506462A
:1040F000F068C4681CB9FCF769F800BFFEE704F17A
:104100001800FFF7C7F816480068A8B9201DFFF788
:10411000C1F894F82C10012088401249096808431E
:1041200010490860E16A01EB81010F4A02EB81004E
:10413000211DFFF7EDF804E004F118010B48FFF72B
:10414000E7F80B49E06A0968C96A884204D9012581
:1041500001200849086000E00025284670BD0000E5
:1041600070000020540000202C1900201C1A002090
:104170003C0000206000002070B500253048006839
:1041800018B9FCF723F800BFFEE7FFF7CDF82C487D
:104190000068401E2A4908600846006800284BD184
:1041A00028480068002847D024E02748C068C46831
:1041B00004F11800FFF76EF8201DFFF76BF894F874
:1041C0002C10012088402149096808431F490860D4
:1041D000E16A01EB81011E4A02EB8100211DFFF71C
:1041E00097F81C49E06A0968C96A884202D301202D
:1041F000194908601448006808B9012000E000204F
:104200000028D2D01548006878B10AE0FFF77AFE9E
:1042100010B101201049086010480068401E0F4985
:1042200008600E4800680028F0D10B48006801289B
:1042300002D10125FFF7F6F8FFF798F8284670BD80
:10424000700000204C0000201C1A002054000020A8
:104250002C1900203C000020600000205C000020A1
:10426000647269766572735F696E69740076546111
:10427000736B4C32303650726F63657373006C32FF
:1042800030365F696E6974006C3230365F72657308
:104290006574006C3230365F706F7765726F66667A
:1042A000006C3230365F637371006C3230365F639E
:1042B000676D72006C3230365F7365745F62617572
:1042C0006472617465006C3230365F69636369647F
:1042D000006C3230365F6367736E006C3230365F6D
:1042E0006370696E006C3230365F63726567006CB4
:1042F0003230365F6367617474006C3230365F66EB
:1043000074705F6765745F66696C65006C32303627
:104310005F6674705F636F6E666967006C3230361B
:104320005F73656E64006C3230365F636F6E6E650E
:10433000637400765461736B4D71747450726F6363
:10434000657373007468696E5F6D7174745F696E14
:104350006974007468696E5F6D7174745F70756202
:104360006C697368000000002B2B2B2B2B2B2B2B45
:104370002B2B2B2B2B2B2B2B2B2B2B2B2B2B2B2B8D
:104380002B2B2B2B2B2B2B2B2B2B2B2B2B2B2B2B7D
:104390002B2B2B0D0A2B202020202020202020201A
:1043A000202020202020202020202020202020200D
:1043B0002020202020202020202020202020202BF2
:1043C0000D0A2B20202020202020202020202056D5
:1043D000656869636C65556E696F6E2E6F726720D4
:1043E0002020202020202020202020202B0D0A2BE0
:1043F0002020202020202020202020202056323065
:1044000031382E303232362E3031202020202020FC
:104410002020202020202020202B0D0A2B202020AF
:10442000202020202020202020202020202020208C
:10443000202020202020202020202020202020207C
:104440002020202020202B0D0A2B2B2B2B2B2B2B3D
:104450002B2B2B2B2B2B2B2B2B2B2B2B2B2B2B2BAC
:104460002B2B2B2B2B2B2B2B2B2B2B2B2B2B2B2B9C
:104470002B2B2B2B0D0A0000984400080000002075
:10448000B4000000401100084C450008B4000020B2
:10449000746C000050110008684300080000000020
:1044A000000000000000000000000000000000000C
:1044B00048454C4C4F212100000000000000000046
:1044C00000000001020304010203040607080902B8
:1044D00004060800000000000000000000000000CA
:1044E00000000000000000000000000000000000CC
:1044F00000000000000000000000000000000000BC
:10450000000000000000000000000000AAAAAAAA03
:10451000000000000000000000000000000000009B
:10452000000000000000000000000000000000008B
:10453000000000000000000000000000000000007B
:0C4540000000000000000000000000006F
:0400000508000131BD
:00000001FF
